{
  "contractName": "Assets",
  "abi": [
    {
      "inputs": [],
      "payable": false,
      "stateMutability": "nonpayable",
      "type": "constructor"
    },
    {
      "anonymous": false,
      "inputs": [
        {
          "indexed": true,
          "internalType": "address",
          "name": "owner",
          "type": "address"
        },
        {
          "indexed": true,
          "internalType": "address",
          "name": "approved",
          "type": "address"
        },
        {
          "indexed": true,
          "internalType": "uint256",
          "name": "tokenId",
          "type": "uint256"
        }
      ],
      "name": "Approval",
      "type": "event"
    },
    {
      "anonymous": false,
      "inputs": [
        {
          "indexed": true,
          "internalType": "address",
          "name": "owner",
          "type": "address"
        },
        {
          "indexed": true,
          "internalType": "address",
          "name": "operator",
          "type": "address"
        },
        {
          "indexed": false,
          "internalType": "bool",
          "name": "approved",
          "type": "bool"
        }
      ],
      "name": "ApprovalForAll",
      "type": "event"
    },
    {
      "anonymous": false,
      "inputs": [
        {
          "indexed": false,
          "internalType": "address",
          "name": "owner",
          "type": "address"
        },
        {
          "indexed": false,
          "internalType": "bytes32",
          "name": "uuid",
          "type": "bytes32"
        },
        {
          "indexed": false,
          "internalType": "uint256",
          "name": "timestamp",
          "type": "uint256"
        },
        {
          "indexed": false,
          "internalType": "string",
          "name": "filehash",
          "type": "string"
        }
      ],
      "name": "AssetCreated",
      "type": "event"
    },
    {
      "anonymous": false,
      "inputs": [
        {
          "indexed": false,
          "internalType": "address",
          "name": "owner",
          "type": "address"
        },
        {
          "indexed": false,
          "internalType": "bytes32",
          "name": "uuid",
          "type": "bytes32"
        },
        {
          "indexed": false,
          "internalType": "uint256",
          "name": "timestamp",
          "type": "uint256"
        }
      ],
      "name": "AssetRemoved",
      "type": "event"
    },
    {
      "anonymous": false,
      "inputs": [
        {
          "indexed": false,
          "internalType": "address",
          "name": "owner",
          "type": "address"
        },
        {
          "indexed": false,
          "internalType": "bytes32",
          "name": "uuid",
          "type": "bytes32"
        },
        {
          "indexed": false,
          "internalType": "uint256",
          "name": "timestamp",
          "type": "uint256"
        },
        {
          "indexed": false,
          "internalType": "string",
          "name": "filehash",
          "type": "string"
        }
      ],
      "name": "AssetUpdated",
      "type": "event"
    },
    {
      "anonymous": false,
      "inputs": [
        {
          "indexed": false,
          "internalType": "address",
          "name": "owner",
          "type": "address"
        },
        {
          "indexed": false,
          "internalType": "bytes32",
          "name": "uuid",
          "type": "bytes32"
        },
        {
          "indexed": false,
          "internalType": "uint256",
          "name": "timestamp",
          "type": "uint256"
        },
        {
          "indexed": false,
          "internalType": "string",
          "name": "metadatahash",
          "type": "string"
        }
      ],
      "name": "MetadataAdded",
      "type": "event"
    },
    {
      "anonymous": false,
      "inputs": [
        {
          "indexed": false,
          "internalType": "address",
          "name": "owner",
          "type": "address"
        },
        {
          "indexed": false,
          "internalType": "bytes32",
          "name": "uuid",
          "type": "bytes32"
        },
        {
          "indexed": false,
          "internalType": "uint256",
          "name": "timestamp",
          "type": "uint256"
        },
        {
          "indexed": false,
          "internalType": "uint256",
          "name": "index",
          "type": "uint256"
        }
      ],
      "name": "MetadataRemoved",
      "type": "event"
    },
    {
      "anonymous": false,
      "inputs": [
        {
          "indexed": true,
          "internalType": "address",
          "name": "previousOwner",
          "type": "address"
        },
        {
          "indexed": true,
          "internalType": "address",
          "name": "newOwner",
          "type": "address"
        }
      ],
      "name": "OwnershipTransferred",
      "type": "event"
    },
    {
      "anonymous": false,
      "inputs": [
        {
          "indexed": false,
          "internalType": "address",
          "name": "owner",
          "type": "address"
        },
        {
          "indexed": false,
          "internalType": "bytes32",
          "name": "uuid",
          "type": "bytes32"
        },
        {
          "indexed": false,
          "internalType": "uint256",
          "name": "timestamp",
          "type": "uint256"
        },
        {
          "indexed": false,
          "internalType": "string",
          "name": "metadatahash",
          "type": "string"
        }
      ],
      "name": "RelationAdded",
      "type": "event"
    },
    {
      "anonymous": false,
      "inputs": [
        {
          "indexed": false,
          "internalType": "address",
          "name": "owner",
          "type": "address"
        },
        {
          "indexed": false,
          "internalType": "bytes32",
          "name": "uuid",
          "type": "bytes32"
        },
        {
          "indexed": false,
          "internalType": "uint256",
          "name": "timestamp",
          "type": "uint256"
        },
        {
          "indexed": false,
          "internalType": "uint256",
          "name": "index",
          "type": "uint256"
        }
      ],
      "name": "RelationRemoved",
      "type": "event"
    },
    {
      "anonymous": false,
      "inputs": [
        {
          "indexed": true,
          "internalType": "address",
          "name": "from",
          "type": "address"
        },
        {
          "indexed": true,
          "internalType": "address",
          "name": "to",
          "type": "address"
        },
        {
          "indexed": true,
          "internalType": "uint256",
          "name": "tokenId",
          "type": "uint256"
        }
      ],
      "name": "Transfer",
      "type": "event"
    },
    {
      "constant": false,
      "inputs": [
        {
          "internalType": "address",
          "name": "to",
          "type": "address"
        },
        {
          "internalType": "uint256",
          "name": "tokenId",
          "type": "uint256"
        }
      ],
      "name": "approve",
      "outputs": [],
      "payable": false,
      "stateMutability": "nonpayable",
      "type": "function"
    },
    {
      "constant": true,
      "inputs": [
        {
          "internalType": "address",
          "name": "owner",
          "type": "address"
        }
      ],
      "name": "balanceOf",
      "outputs": [
        {
          "internalType": "uint256",
          "name": "",
          "type": "uint256"
        }
      ],
      "payable": false,
      "stateMutability": "view",
      "type": "function"
    },
    {
      "constant": true,
      "inputs": [],
      "name": "baseURI",
      "outputs": [
        {
          "internalType": "string",
          "name": "",
          "type": "string"
        }
      ],
      "payable": false,
      "stateMutability": "view",
      "type": "function"
    },
    {
      "constant": true,
      "inputs": [
        {
          "internalType": "uint256",
          "name": "tokenId",
          "type": "uint256"
        }
      ],
      "name": "getApproved",
      "outputs": [
        {
          "internalType": "address",
          "name": "",
          "type": "address"
        }
      ],
      "payable": false,
      "stateMutability": "view",
      "type": "function"
    },
    {
      "constant": true,
      "inputs": [
        {
          "internalType": "address",
          "name": "owner",
          "type": "address"
        },
        {
          "internalType": "address",
          "name": "operator",
          "type": "address"
        }
      ],
      "name": "isApprovedForAll",
      "outputs": [
        {
          "internalType": "bool",
          "name": "",
          "type": "bool"
        }
      ],
      "payable": false,
      "stateMutability": "view",
      "type": "function"
    },
    {
      "constant": true,
      "inputs": [],
      "name": "isOwner",
      "outputs": [
        {
          "internalType": "bool",
          "name": "",
          "type": "bool"
        }
      ],
      "payable": false,
      "stateMutability": "view",
      "type": "function"
    },
    {
      "constant": true,
      "inputs": [],
      "name": "name",
      "outputs": [
        {
          "internalType": "string",
          "name": "",
          "type": "string"
        }
      ],
      "payable": false,
      "stateMutability": "view",
      "type": "function"
    },
    {
      "constant": true,
      "inputs": [],
      "name": "owner",
      "outputs": [
        {
          "internalType": "address",
          "name": "",
          "type": "address"
        }
      ],
      "payable": false,
      "stateMutability": "view",
      "type": "function"
    },
    {
      "constant": true,
      "inputs": [
        {
          "internalType": "uint256",
          "name": "tokenId",
          "type": "uint256"
        }
      ],
      "name": "ownerOf",
      "outputs": [
        {
          "internalType": "address",
          "name": "",
          "type": "address"
        }
      ],
      "payable": false,
      "stateMutability": "view",
      "type": "function"
    },
    {
      "constant": false,
      "inputs": [],
      "name": "renounceOwnership",
      "outputs": [],
      "payable": false,
      "stateMutability": "nonpayable",
      "type": "function"
    },
    {
      "constant": false,
      "inputs": [
        {
          "internalType": "address",
          "name": "from",
          "type": "address"
        },
        {
          "internalType": "address",
          "name": "to",
          "type": "address"
        },
        {
          "internalType": "uint256",
          "name": "tokenId",
          "type": "uint256"
        }
      ],
      "name": "safeTransferFrom",
      "outputs": [],
      "payable": false,
      "stateMutability": "nonpayable",
      "type": "function"
    },
    {
      "constant": false,
      "inputs": [
        {
          "internalType": "address",
          "name": "from",
          "type": "address"
        },
        {
          "internalType": "address",
          "name": "to",
          "type": "address"
        },
        {
          "internalType": "uint256",
          "name": "tokenId",
          "type": "uint256"
        },
        {
          "internalType": "bytes",
          "name": "_data",
          "type": "bytes"
        }
      ],
      "name": "safeTransferFrom",
      "outputs": [],
      "payable": false,
      "stateMutability": "nonpayable",
      "type": "function"
    },
    {
      "constant": false,
      "inputs": [
        {
          "internalType": "address",
          "name": "to",
          "type": "address"
        },
        {
          "internalType": "bool",
          "name": "approved",
          "type": "bool"
        }
      ],
      "name": "setApprovalForAll",
      "outputs": [],
      "payable": false,
      "stateMutability": "nonpayable",
      "type": "function"
    },
    {
      "constant": true,
      "inputs": [
        {
          "internalType": "bytes4",
          "name": "interfaceId",
          "type": "bytes4"
        }
      ],
      "name": "supportsInterface",
      "outputs": [
        {
          "internalType": "bool",
          "name": "",
          "type": "bool"
        }
      ],
      "payable": false,
      "stateMutability": "view",
      "type": "function"
    },
    {
      "constant": true,
      "inputs": [],
      "name": "symbol",
      "outputs": [
        {
          "internalType": "string",
          "name": "",
          "type": "string"
        }
      ],
      "payable": false,
      "stateMutability": "view",
      "type": "function"
    },
    {
      "constant": true,
      "inputs": [
        {
          "internalType": "uint256",
          "name": "index",
          "type": "uint256"
        }
      ],
      "name": "tokenByIndex",
      "outputs": [
        {
          "internalType": "uint256",
          "name": "",
          "type": "uint256"
        }
      ],
      "payable": false,
      "stateMutability": "view",
      "type": "function"
    },
    {
      "constant": true,
      "inputs": [
        {
          "internalType": "address",
          "name": "owner",
          "type": "address"
        },
        {
          "internalType": "uint256",
          "name": "index",
          "type": "uint256"
        }
      ],
      "name": "tokenOfOwnerByIndex",
      "outputs": [
        {
          "internalType": "uint256",
          "name": "",
          "type": "uint256"
        }
      ],
      "payable": false,
      "stateMutability": "view",
      "type": "function"
    },
    {
      "constant": true,
      "inputs": [
        {
          "internalType": "uint256",
          "name": "tokenId",
          "type": "uint256"
        }
      ],
      "name": "tokenURI",
      "outputs": [
        {
          "internalType": "string",
          "name": "",
          "type": "string"
        }
      ],
      "payable": false,
      "stateMutability": "view",
      "type": "function"
    },
    {
      "constant": true,
      "inputs": [],
      "name": "totalSupply",
      "outputs": [
        {
          "internalType": "uint256",
          "name": "",
          "type": "uint256"
        }
      ],
      "payable": false,
      "stateMutability": "view",
      "type": "function"
    },
    {
      "constant": false,
      "inputs": [
        {
          "internalType": "address",
          "name": "from",
          "type": "address"
        },
        {
          "internalType": "address",
          "name": "to",
          "type": "address"
        },
        {
          "internalType": "uint256",
          "name": "tokenId",
          "type": "uint256"
        }
      ],
      "name": "transferFrom",
      "outputs": [],
      "payable": false,
      "stateMutability": "nonpayable",
      "type": "function"
    },
    {
      "constant": false,
      "inputs": [
        {
          "internalType": "address",
          "name": "newOwner",
          "type": "address"
        }
      ],
      "name": "transferOwnership",
      "outputs": [],
      "payable": false,
      "stateMutability": "nonpayable",
      "type": "function"
    },
    {
      "constant": false,
      "inputs": [
        {
          "internalType": "bytes32",
          "name": "uuid",
          "type": "bytes32"
        },
        {
          "internalType": "string",
          "name": "_newHash",
          "type": "string"
        }
      ],
      "name": "createAsset",
      "outputs": [],
      "payable": false,
      "stateMutability": "nonpayable",
      "type": "function"
    },
    {
      "constant": true,
      "inputs": [
        {
          "internalType": "bytes32",
          "name": "uuid",
          "type": "bytes32"
        }
      ],
      "name": "getAsset",
      "outputs": [
        {
          "internalType": "string",
          "name": "",
          "type": "string"
        }
      ],
      "payable": false,
      "stateMutability": "view",
      "type": "function"
    },
    {
      "constant": false,
      "inputs": [
        {
          "internalType": "bytes32",
          "name": "uuid",
          "type": "bytes32"
        },
        {
          "internalType": "string",
          "name": "_newHash",
          "type": "string"
        }
      ],
      "name": "updateAsset",
      "outputs": [],
      "payable": false,
      "stateMutability": "nonpayable",
      "type": "function"
    },
    {
      "constant": false,
      "inputs": [
        {
          "internalType": "bytes32",
          "name": "uuid",
          "type": "bytes32"
        }
      ],
      "name": "removeAsset",
      "outputs": [],
      "payable": false,
      "stateMutability": "nonpayable",
      "type": "function"
    },
    {
      "constant": true,
      "inputs": [
        {
          "internalType": "bytes32",
          "name": "uuid",
          "type": "bytes32"
        },
        {
          "internalType": "bytes32[]",
          "name": "_proof",
          "type": "bytes32[]"
        },
        {
          "internalType": "bytes32",
          "name": "_leaf",
          "type": "bytes32"
        }
      ],
      "name": "isValidAsset",
      "outputs": [
        {
          "internalType": "bool",
          "name": "",
          "type": "bool"
        }
      ],
      "payable": false,
      "stateMutability": "view",
      "type": "function"
    },
    {
      "constant": true,
      "inputs": [
        {
          "internalType": "bytes32",
          "name": "uuid",
          "type": "bytes32"
        },
        {
          "internalType": "bytes32",
          "name": "_messageHash",
          "type": "bytes32"
        },
        {
          "internalType": "bytes",
          "name": "_signature",
          "type": "bytes"
        }
      ],
      "name": "isValidAssetEthMessage",
      "outputs": [
        {
          "internalType": "bool",
          "name": "",
          "type": "bool"
        }
      ],
      "payable": false,
      "stateMutability": "view",
      "type": "function"
    },
    {
      "constant": false,
      "inputs": [
        {
          "internalType": "bytes32",
          "name": "uuid",
          "type": "bytes32"
        },
        {
          "internalType": "string",
          "name": "_metadatahash",
          "type": "string"
        }
      ],
      "name": "addRelation",
      "outputs": [],
      "payable": false,
      "stateMutability": "nonpayable",
      "type": "function"
    },
    {
      "constant": true,
      "inputs": [
        {
          "internalType": "bytes32",
          "name": "uuid",
          "type": "bytes32"
        }
      ],
      "name": "getRelations",
      "outputs": [
        {
          "internalType": "string[]",
          "name": "",
          "type": "string[]"
        }
      ],
      "payable": false,
      "stateMutability": "view",
      "type": "function"
    },
    {
      "constant": false,
      "inputs": [
        {
          "internalType": "bytes32",
          "name": "uuid",
          "type": "bytes32"
        },
        {
          "internalType": "uint256",
          "name": "index",
          "type": "uint256"
        }
      ],
      "name": "removeRelation",
      "outputs": [],
      "payable": false,
      "stateMutability": "nonpayable",
      "type": "function"
    },
    {
      "constant": true,
      "inputs": [
        {
          "internalType": "bytes32",
          "name": "uuid",
          "type": "bytes32"
        },
        {
          "internalType": "uint256",
          "name": "index",
          "type": "uint256"
        },
        {
          "internalType": "bytes32[]",
          "name": "_proof",
          "type": "bytes32[]"
        },
        {
          "internalType": "bytes32",
          "name": "_leaf",
          "type": "bytes32"
        }
      ],
      "name": "isValidRelation",
      "outputs": [
        {
          "internalType": "bool",
          "name": "",
          "type": "bool"
        }
      ],
      "payable": false,
      "stateMutability": "view",
      "type": "function"
    },
    {
      "constant": false,
      "inputs": [
        {
          "internalType": "bytes32",
          "name": "uuid",
          "type": "bytes32"
        },
        {
          "internalType": "string",
          "name": "_metadatahash",
          "type": "string"
        }
      ],
      "name": "addMetadata",
      "outputs": [],
      "payable": false,
      "stateMutability": "nonpayable",
      "type": "function"
    },
    {
      "constant": true,
      "inputs": [
        {
          "internalType": "bytes32",
          "name": "uuid",
          "type": "bytes32"
        }
      ],
      "name": "getMetadatas",
      "outputs": [
        {
          "internalType": "string[]",
          "name": "",
          "type": "string[]"
        }
      ],
      "payable": false,
      "stateMutability": "view",
      "type": "function"
    },
    {
      "constant": false,
      "inputs": [
        {
          "internalType": "bytes32",
          "name": "uuid",
          "type": "bytes32"
        },
        {
          "internalType": "uint256",
          "name": "index",
          "type": "uint256"
        }
      ],
      "name": "removeMetadata",
      "outputs": [],
      "payable": false,
      "stateMutability": "nonpayable",
      "type": "function"
    },
    {
      "constant": true,
      "inputs": [
        {
          "internalType": "bytes32",
          "name": "uuid",
          "type": "bytes32"
        },
        {
          "internalType": "uint256",
          "name": "index",
          "type": "uint256"
        },
        {
          "internalType": "bytes32[]",
          "name": "_proof",
          "type": "bytes32[]"
        },
        {
          "internalType": "bytes32",
          "name": "_leaf",
          "type": "bytes32"
        }
      ],
      "name": "isValidMetadata",
      "outputs": [
        {
          "internalType": "bool",
          "name": "",
          "type": "bool"
        }
      ],
      "payable": false,
      "stateMutability": "view",
      "type": "function"
    },
    {
      "constant": true,
      "inputs": [
        {
          "internalType": "string",
          "name": "source",
          "type": "string"
        }
      ],
      "name": "stringToBytes32",
      "outputs": [
        {
          "internalType": "bytes32",
          "name": "result",
          "type": "bytes32"
        }
      ],
      "payable": false,
      "stateMutability": "pure",
      "type": "function"
    }
  ],
  "bytecode": "0x60806040523480156200001157600080fd5b5060408051808201825260098152681391d4d25054d4d15560ba1b602080830191909152825180840190935260038352624e474160e81b908301529081816200006a6301ffc9a760e01b6001600160e01b036200015116565b620000856380ac58cd60e01b6001600160e01b036200015116565b620000a063780e9d6360e01b6001600160e01b036200015116565b8151620000b5906009906020850190620001b1565b508051620000cb90600a906020840190620001b1565b50620000e7635b5e139f60e01b6001600160e01b036200015116565b505050506000620000fd620001ac60201b60201c565b600d80546001600160a01b0319166001600160a01b038316908117909155604051919250906000907f8be0079c531659141344cd1fd0a4f28419497f9722a3daafe3b4186f6b6457e0908290a350620002af565b6001600160e01b03198082161415620001875760405162461bcd60e51b81526004016200017e906200028e565b60405180910390fd5b6001600160e01b0319166000908152602081905260409020805460ff19166001179055565b335b90565b828054600181600116156101000203166002900490600052602060002090601f016020900481019282601f10620001f457805160ff191683800117855562000224565b8280016001018555821562000224579182015b828111156200022457825182559160200191906001019062000207565b506200023292915062000236565b5090565b620001ae91905b808211156200023257600081556001016200023d565b600062000262601c83620002a6565b7f4552433136353a20696e76616c696420696e7465726661636520696400000000815260200192915050565b60208082528101620002a08162000253565b92915050565b90815260200190565b612e2a80620002bf6000396000f3fe608060405234801561001057600080fd5b506004361061021c5760003560e01c806370a0823111610125578063c87b56dd116100ad578063d3e1b62c1161007c578063d3e1b62c1461046d578063e985e9c514610480578063ef6cf34614610493578063f2fde38b146104a6578063f7b31d73146104b95761021c565b8063c87b56dd14610421578063cfb5192814610434578063d090cbc014610447578063d2f2dd541461045a5761021c565b80638da5cb5b116100f45780638da5cb5b146103e35780638f32d59b146103eb57806395d89b41146103f3578063a22cb465146103fb578063b88d4fde1461040e5761021c565b806370a08231146103a2578063715018a6146103b55780637ec56553146103bd578063837592db146103d05761021c565b80632f745c59116101a85780634f6ccce7116101775780634f6ccce71461034e57806362303ec4146103615780636352211e146103745780636a59c8c1146103875780636c0360eb1461039a5761021c565b80632f745c59146103025780633de852671461031557806342842e0e1461032857806346c7e1291461033b5761021c565b806318160ddd116101ef57806318160ddd1461029457806323b872dd146102a9578063280b7a6a146102bc5780632cc3ce80146102dc5780632e449fae146102ef5761021c565b806301ffc9a71461022157806306fdde031461024a578063081812fc1461025f578063095ea7b31461027f575b600080fd5b61023461022f366004612295565b6104cc565b6040516102419190612b2f565b60405180910390f35b6102526104ef565b6040516102419190612b66565b61027261026d3660046120fe565b610586565b6040516102419190612a4b565b61029261028d3660046120ce565b6105d2565b005b61029c6106b7565b6040516102419190612b3d565b6102926102b7366004611fd8565b6106bd565b6102cf6102ca3660046120fe565b6106fa565b6040516102419190612b1e565b6102526102ea3660046120fe565b610845565b6102346102fd366004612228565b6108fd565b61029c6103103660046120ce565b6109d0565b610292610323366004612209565b610a31565b610292610336366004611fd8565b610adc565b610234610349366004612228565b610af7565b61029c61035c3660046120fe565b610b21565b61023461036f36600461211c565b610b68565b6102726103823660046120fe565b610bdc565b610234610395366004612166565b610c11565b610252610c45565b61029c6103b0366004611f80565b610ca6565b610292610cef565b6102926103cb3660046121c1565b610d5d565b6102926103de3660046120fe565b610dff565b610272610ebb565b610234610eca565b610252610ef0565b61029261040936600461209e565b610f51565b61029261041c366004612025565b61101f565b61025261042f3660046120fe565b61105e565b61029c6104423660046122d1565b61116c565b6102cf6104553660046120fe565b61118a565b6102926104683660046121c1565b6112ce565b61029261047b366004612209565b611366565b61023461048e366004611f9e565b611405565b6102926104a13660046121c1565b611433565b6102926104b4366004611f80565b6114be565b6102926104c73660046121c1565b6114ee565b6001600160e01b0319811660009081526020819052604090205460ff165b919050565b60098054604080516020601f600260001961010060018816150201909516949094049384018190048102820181019092528281526060939092909183018282801561057b5780601f106105505761010080835404028352916020019161057b565b820191906000526020600020905b81548152906001019060200180831161055e57829003601f168201915b505050505090505b90565b60006105918261157f565b6105b65760405162461bcd60e51b81526004016105ad90612c17565b60405180910390fd5b506000908152600260205260409020546001600160a01b031690565b60006105dd82610bdc565b9050806001600160a01b0316836001600160a01b031614156106115760405162461bcd60e51b81526004016105ad90612c77565b806001600160a01b031661062361159c565b6001600160a01b0316148061063f575061063f8161048e61159c565b61065b5760405162461bcd60e51b81526004016105ad90612be7565b60008281526002602052604080822080546001600160a01b0319166001600160a01b0387811691821790925591518593918516917f8c5be1e5ebec7d5bd14f71427d1e84f3dd0314c0f7b2291e5b200ac8c7c3b92591a4505050565b60075490565b6106ce6106c861159c565b826115a0565b6106ea5760405162461bcd60e51b81526004016105ad90612c87565b6106f583838361161d565b505050565b606080600e60008481526020019081526020016000206003018054905060405190808252806020026020018201604052801561074a57816020015b60608152602001906001900390816107355790505b50905060005b6000848152600e602052604090206003015481101561083e576000848152600e6020526040812060030180548390811061078657fe5b60009182526020918290200180546040805160026001841615610100026000190190931692909204601f8101859004850283018501909152808252919350918391908301828280156108195780601f106107ee57610100808354040283529160200191610819565b820191906000526020600020905b8154815290600101906020018083116107fc57829003601f168201915b505050505083838151811061082a57fe5b602090810291909101015250600101610750565b5092915050565b6060600e60008381526020019081526020016000206001018054600181600116156101000203166002900480601f0160208091040260200160405190810160405280929190818152602001828054600181600116156101000203166002900480156108f15780601f106108c6576101008083540402835291602001916108f1565b820191906000526020600020905b8154815290600101906020018083116108d457829003601f168201915b50505050509050919050565b60006109c5836109bf600e6000898152602001908152602001600020600301878154811061092757fe5b600091825260209182902001805460408051601f60026000196101006001871615020190941693909304928301859004850281018501909152818152928301828280156109b55780601f1061098a576101008083540402835291602001916109b5565b820191906000526020600020905b81548152906001019060200180831161099857829003601f168201915b505050505061116c565b8461163c565b90505b949350505050565b60006109db83610ca6565b82106109f95760405162461bcd60e51b81526004016105ad90612b87565b6001600160a01b0383166000908152600560205260409020805483908110610a1d57fe5b906000526020600020015490505b92915050565b6000828152600e60205260409020546001600160a01b03163314610a675760405162461bcd60e51b81526004016105ad90612c37565b6000828152600e60205260409020600301805482908110610a8457fe5b6000918252602082200190610a998282611cea565b50507f8789a6385b992e5c7a56591a95adfb43a53e9b5fcbe9757d089f358e27749df933834284604051610ad09493929190612ae0565b60405180910390a15050565b6106f58383836040518060200160405280600081525061101f565b60006109c5836109bf600e6000898152602001908152602001600020600201878154811061092757fe5b6000610b2b6106b7565b8210610b495760405162461bcd60e51b81526004016105ad90612c97565b60078281548110610b5657fe5b90600052602060002001549050919050565b6000838152600e60209081526040808320600190810180548351600293821615610100026000190190911692909204601f81018590048502830185019093528282526109c89387936109bf9392918301828280156109b55780601f1061098a576101008083540402835291602001916109b5565b6000818152600160205260408120546001600160a01b031680610a2b5760405162461bcd60e51b81526004016105ad90612c07565b6000838152600e60205260408120546001600160a01b0316610c3384846116d9565b6001600160a01b031614949350505050565b600b8054604080516020601f600260001961010060018816150201909516949094049384018190048102820181019092528281526060939092909183018282801561057b5780601f106105505761010080835404028352916020019161057b565b60006001600160a01b038216610cce5760405162461bcd60e51b81526004016105ad90612bf7565b6001600160a01b0382166000908152600360205260409020610a2b906117b5565b610cf7610eca565b610d135760405162461bcd60e51b81526004016105ad90612c27565b600d546040516000916001600160a01b0316907f8be0079c531659141344cd1fd0a4f28419497f9722a3daafe3b4186f6b6457e0908390a3600d80546001600160a01b0319169055565b6000828152600e60205260409020546001600160a01b0316331415610d945760405162461bcd60e51b81526004016105ad90612b77565b6000828152600e6020908152604090912080546001600160a01b031916331781558251610dc992600190920191840190611d2e565b507f117ef0a3887baaa508b007da020a6dc877e9f3e78883d885d11e272070e4517533834284604051610ad09493929190612ac5565b6000818152600e60205260409020546001600160a01b03163314610e355760405162461bcd60e51b81526004016105ad90612c37565b6000818152600e6020526040812080546001600160a01b031916815590610e5f6001830182611cea565b610e6d600283016000611dac565b610e7b600383016000611dca565b50507f165e0b2b83bed4af93560784cf9d7fb11677ad51853234d96edd5f346a5c2fae338242604051610eb093929190612a9d565b60405180910390a150565b600d546001600160a01b031690565b600d546000906001600160a01b0316610ee161159c565b6001600160a01b031614905090565b600a8054604080516020601f600260001961010060018816150201909516949094049384018190048102820181019092528281526060939092909183018282801561057b5780601f106105505761010080835404028352916020019161057b565b610f5961159c565b6001600160a01b0316826001600160a01b03161415610f8a5760405162461bcd60e51b81526004016105ad90612bc7565b8060046000610f9761159c565b6001600160a01b03908116825260208083019390935260409182016000908120918716808252919093529120805460ff191692151592909217909155610fdb61159c565b6001600160a01b03167f17307eab39ab6107e8899845ad3d59bd9653f200f220920489ca2b5937696c31836040516110139190612b2f565b60405180910390a35050565b61103061102a61159c565b836115a0565b61104c5760405162461bcd60e51b81526004016105ad90612c87565b611058848484846117b9565b50505050565b60606110698261157f565b6110855760405162461bcd60e51b81526004016105ad90612c57565b6000828152600c602090815260409182902080548351601f600260001961010060018616150201909316929092049182018490048402810184019094528084526060939283018282801561111a5780601f106110ef5761010080835404028352916020019161111a565b820191906000526020600020905b8154815290600101906020018083116110fd57829003601f168201915b505050505090508051600014156111415750506040805160208101909152600081526104ea565b600b81604051602001611155929190612a33565b6040516020818303038152906040529150506104ea565b805160009082906111815750600090506104ea565b50506020015190565b606080600e6000848152602001908152602001600020600201805490506040519080825280602002602001820160405280156111da57816020015b60608152602001906001900390816111c55790505b50905060005b6000848152600e602052604090206002015481101561083e576000848152600e6020526040812060020180548390811061121657fe5b60009182526020918290200180546040805160026001841615610100026000190190931692909204601f8101859004850283018501909152808252919350918391908301828280156112a95780601f1061127e576101008083540402835291602001916112a9565b820191906000526020600020905b81548152906001019060200180831161128c57829003601f168201915b50505050508383815181106112ba57fe5b6020908102919091010152506001016111e0565b6112d6611de8565b5060408051602080820183528382526000858152600e8252928320600301805460018101808355918552938290208351805194959294869492909301926113209284920190611d2e565b505050507f829d21df03bcaa7394716da182142e158a58f007643bf885a86c3b6c0b8047eb338442856040516113599493929190612ac5565b60405180910390a1505050565b6000828152600e60205260409020546001600160a01b0316331461139c5760405162461bcd60e51b81526004016105ad90612c37565b6000828152600e602052604090206002018054829081106113b957fe5b60009182526020822001906113ce8282611cea565b50507f7e5bcbc5dd515efc5e5efaaab255d1905cee90a6818c3d5aeb14aed62c87a75d33834284604051610ad09493929190612ae0565b6001600160a01b03918216600090815260046020908152604080832093909416825291909152205460ff1690565b61143b611de8565b5060408051602080820183528382526000858152600e8252928320600201805460018101808355918552938290208351805194959294869492909301926114859284920190611d2e565b505050507f8cdeb92d4e368713d9e629c4b0968b4ae93ad56cee838baddec1d633f950a997338442856040516113599493929190612ac5565b6114c6610eca565b6114e25760405162461bcd60e51b81526004016105ad90612c27565b6114eb816117ec565b50565b6000828152600e60205260409020546001600160a01b031633146115245760405162461bcd60e51b81526004016105ad90612c67565b6000828152600e60209081526040909120825161154992600190920191840190611d2e565b507fae9d878cbb7da8d6e131ff7b337b5fd1f8ee1488e193e5528400f3c1ca33e13133834284604051610ad09493929190612ac5565b6000908152600160205260409020546001600160a01b0316151590565b3390565b60006115ab8261157f565b6115c75760405162461bcd60e51b81526004016105ad90612bd7565b60006115d283610bdc565b9050806001600160a01b0316846001600160a01b0316148061160d5750836001600160a01b031661160284610586565b6001600160a01b0316145b806109c857506109c88185611405565b61162883838361186e565b6116328382611974565b6106f58282611a69565b600081815b85518110156116ce57600086828151811061165857fe5b6020026020010151905080831161169957828160405160200161167c929190612a01565b6040516020818303038152906040528051906020012092506116c5565b80836040516020016116ac929190612a01565b6040516020818303038152906040528051906020012092505b50600101611641565b509092149392505050565b600081516041146116ec57506000610a2b565b60208201516040830151606084015160001a7f7fffffffffffffffffffffffffffffff5d576e7357a4501ddfe92f46681b20a08211156117325760009350505050610a2b565b8060ff16601b1415801561174a57508060ff16601c14155b1561175b5760009350505050610a2b565b6001868285856040516000815260200160405260405161177e9493929190612b4b565b6020604051602081039080840390855afa1580156117a0573d6000803e3d6000fd5b5050604051601f190151979650505050505050565b5490565b6117c484848461161d565b6117d084848484611aa7565b6110585760405162461bcd60e51b81526004016105ad90612b97565b6001600160a01b0381166118125760405162461bcd60e51b81526004016105ad90612ba7565b600d546040516001600160a01b038084169216907f8be0079c531659141344cd1fd0a4f28419497f9722a3daafe3b4186f6b6457e090600090a3600d80546001600160a01b0319166001600160a01b0392909216919091179055565b826001600160a01b031661188182610bdc565b6001600160a01b0316146118a75760405162461bcd60e51b81526004016105ad90612c47565b6001600160a01b0382166118cd5760405162461bcd60e51b81526004016105ad90612bb7565b6118d681611be1565b6001600160a01b03831660009081526003602052604090206118f790611c1c565b6001600160a01b038216600090815260036020526040902061191890611c33565b60008181526001602052604080822080546001600160a01b0319166001600160a01b0386811691821790925591518493918716917fddf252ad1be2c89b69c2b068fc378daa952ba7f163c4a11628f55a4df523b3ef91a4505050565b6001600160a01b03821660009081526005602052604081205461199e90600163ffffffff611c3c16565b600083815260066020526040902054909150808214611a39576001600160a01b03841660009081526005602052604081208054849081106119db57fe5b906000526020600020015490508060056000876001600160a01b03166001600160a01b031681526020019081526020016000208381548110611a1957fe5b600091825260208083209091019290925591825260069052604090208190555b6001600160a01b0384166000908152600560205260409020805490611a62906000198301611dfb565b5050505050565b6001600160a01b0390911660009081526005602081815260408084208054868652600684529185208290559282526001810183559183529091200155565b6000611abb846001600160a01b0316611c85565b611ac7575060016109c8565b600060606001600160a01b038616630a85bd0160e11b611ae561159c565b898888604051602401611afb9493929190612a59565b60408051601f198184030181529181526020820180516001600160e01b03166001600160e01b0319909416939093179092529051611b399190612a27565b6000604051808303816000865af19150503d8060008114611b76576040519150601f19603f3d011682016040523d82523d6000602084013e611b7b565b606091505b509150915081611bad57805115611b955780518082602001fd5b60405162461bcd60e51b81526004016105ad90612b97565b600081806020019051611bc391908101906122b3565b6001600160e01b031916630a85bd0160e11b1493506109c892505050565b6000818152600260205260409020546001600160a01b0316156114eb57600090815260026020526040902080546001600160a01b0319169055565b8054611c2f90600163ffffffff611c3c16565b9055565b80546001019055565b6000611c7e83836040518060400160405280601e81526020017f536166654d6174683a207375627472616374696f6e206f766572666c6f770000815250611cbe565b9392505050565b6000813f7fc5d2460186f7233c927e7db2dcc703c0e500b653ca82273b7bfad8045d85a4708181148015906109c8575050151592915050565b60008184841115611ce25760405162461bcd60e51b81526004016105ad9190612b66565b505050900390565b50805460018160011615610100020316600290046000825580601f10611d1057506114eb565b601f0160209004906000526020600020908101906114eb9190611e1b565b828054600181600116156101000203166002900490600052602060002090601f016020900481019282601f10611d6f57805160ff1916838001178555611d9c565b82800160010185558215611d9c579182015b82811115611d9c578251825591602001919060010190611d81565b50611da8929150611e1b565b5090565b50805460008255906000526020600020908101906114eb9190611e35565b50805460008255906000526020600020908101906114eb9190611e58565b6040518060200160405280606081525090565b8154818355818111156106f5576000838152602090206106f59181019083015b61058391905b80821115611da85760008155600101611e21565b61058391905b80821115611da8576000611e4f8282611cea565b50600101611e3b565b61058391905b80821115611da8576000611e728282611cea565b50600101611e5e565b8035610a2b81612db8565b600082601f830112611e9757600080fd5b8135611eaa611ea582612cce565b612ca7565b91508181835260208401935060208101905083856020840282011115611ecf57600080fd5b60005b83811015611efb5781611ee58882611f10565b8452506020928301929190910190600101611ed2565b5050505092915050565b8035610a2b81612dcc565b8035610a2b81612dd5565b8035610a2b81612dde565b8051610a2b81612dde565b600082601f830112611f4257600080fd5b8135611f50611ea582612cef565b91508082526020830160208301858383011115611f6c57600080fd5b611f77838284612d76565b50505092915050565b600060208284031215611f9257600080fd5b60006109c88484611e7b565b60008060408385031215611fb157600080fd5b6000611fbd8585611e7b565b9250506020611fce85828601611e7b565b9150509250929050565b600080600060608486031215611fed57600080fd5b6000611ff98686611e7b565b935050602061200a86828701611e7b565b925050604061201b86828701611f10565b9150509250925092565b6000806000806080858703121561203b57600080fd5b60006120478787611e7b565b945050602061205887828801611e7b565b935050604061206987828801611f10565b925050606085013567ffffffffffffffff81111561208657600080fd5b61209287828801611f31565b91505092959194509250565b600080604083850312156120b157600080fd5b60006120bd8585611e7b565b9250506020611fce85828601611f05565b600080604083850312156120e157600080fd5b60006120ed8585611e7b565b9250506020611fce85828601611f10565b60006020828403121561211057600080fd5b60006109c88484611f10565b60008060006060848603121561213157600080fd5b600061213d8686611f10565b935050602084013567ffffffffffffffff81111561215a57600080fd5b61200a86828701611e86565b60008060006060848603121561217b57600080fd5b60006121878686611f10565b935050602061219886828701611f10565b925050604084013567ffffffffffffffff8111156121b557600080fd5b61201b86828701611f31565b600080604083850312156121d457600080fd5b60006121e08585611f10565b925050602083013567ffffffffffffffff8111156121fd57600080fd5b611fce85828601611f31565b6000806040838503121561221c57600080fd5b60006120ed8585611f10565b6000806000806080858703121561223e57600080fd5b600061224a8787611f10565b945050602061225b87828801611f10565b935050604085013567ffffffffffffffff81111561227857600080fd5b61228487828801611e86565b925050606061209287828801611f10565b6000602082840312156122a757600080fd5b60006109c88484611f1b565b6000602082840312156122c557600080fd5b60006109c88484611f26565b6000602082840312156122e357600080fd5b813567ffffffffffffffff8111156122fa57600080fd5b6109c884828501611f31565b6000611c7e83836123bb565b61231b81612d65565b82525050565b61231b81612d36565b600061233582612d29565b61233f8185612d2d565b93508360208202850161235185612d17565b8060005b8581101561238b578484038952815161236e8582612306565b945061237983612d17565b60209a909a0199925050600101612355565b5091979650505050505050565b61231b81612d41565b61231b81610583565b61231b6123b682610583565b610583565b60006123c682612d29565b6123d08185612d2d565b93506123e0818560208601612d82565b6123e981612dae565b9093019392505050565b60006123fe82612d29565b61240881856104ea565b9350612418818560208601612d82565b9290920192915050565b60008154600181166000811461243f5760018114612462576124a1565b607f600283041661245081876104ea565b60ff19841681529550850192506124a1565b6002820461247081876104ea565b955061247b85612d1d565b60005b8281101561249a5781548882015260019091019060200161247e565b5050850192505b505092915050565b60006124b6600c83612d2d565b6b41737365742065786973747360a01b815260200192915050565b60006124de602b83612d2d565b7f455243373231456e756d657261626c653a206f776e657220696e646578206f7581526a74206f6620626f756e647360a81b602082015260400192915050565b600061252b603283612d2d565b7f4552433732313a207472616e7366657220746f206e6f6e20455243373231526581527131b2b4bb32b91034b6b83632b6b2b73a32b960711b602082015260400192915050565b600061257f602683612d2d565b7f4f776e61626c653a206e6577206f776e657220697320746865207a65726f206181526564647265737360d01b602082015260400192915050565b60006125c7602483612d2d565b7f4552433732313a207472616e7366657220746f20746865207a65726f206164648152637265737360e01b602082015260400192915050565b600061260d601983612d2d565b7f4552433732313a20617070726f766520746f2063616c6c657200000000000000815260200192915050565b6000612646602c83612d2d565b7f4552433732313a206f70657261746f7220717565727920666f72206e6f6e657881526b34b9ba32b73a103a37b5b2b760a11b602082015260400192915050565b6000612694603883612d2d565b7f4552433732313a20617070726f76652063616c6c6572206973206e6f74206f7781527f6e6572206e6f7220617070726f76656420666f7220616c6c0000000000000000602082015260400192915050565b60006126f3602a83612d2d565b7f4552433732313a2062616c616e636520717565727920666f7220746865207a65815269726f206164647265737360b01b602082015260400192915050565b600061273f602983612d2d565b7f4552433732313a206f776e657220717565727920666f72206e6f6e657869737481526832b73a103a37b5b2b760b91b602082015260400192915050565b600061278a602c83612d2d565b7f4552433732313a20617070726f76656420717565727920666f72206e6f6e657881526b34b9ba32b73a103a37b5b2b760a11b602082015260400192915050565b60006127d8602083612d2d565b7f4f776e61626c653a2063616c6c6572206973206e6f7420746865206f776e6572815260200192915050565b6000612811602283612d2d565b7f796f7520617265206e6f7420746865206f776e6572206f662074686520617373815261195d60f21b602082015260400192915050565b6000612855602983612d2d565b7f4552433732313a207472616e73666572206f6620746f6b656e2074686174206981526839903737ba1037bbb760b91b602082015260400192915050565b60006128a0602f83612d2d565b7f4552433732314d657461646174613a2055524920717565727920666f72206e6f81526e3732bc34b9ba32b73a103a37b5b2b760891b602082015260400192915050565b60006128f1601483612d2d565b73417373657420646f65736e27742065786973747360601b815260200192915050565b6000612921602183612d2d565b7f4552433732313a20617070726f76616c20746f2063757272656e74206f776e658152603960f91b602082015260400192915050565b6000612964603183612d2d565b7f4552433732313a207472616e736665722063616c6c6572206973206e6f74206f8152701ddb995c881b9bdc88185c1c1c9bdd9959607a1b602082015260400192915050565b60006129b7602c83612d2d565b7f455243373231456e756d657261626c653a20676c6f62616c20696e646578206f81526b7574206f6620626f756e647360a01b602082015260400192915050565b61231b81612d5f565b6000612a0d82856123aa565b602082019150612a1d82846123aa565b5060200192915050565b6000611c7e82846123f3565b6000612a3f8285612422565b91506109c882846123f3565b60208101610a2b8284612321565b60808101612a678287612321565b612a746020830186612321565b612a8160408301856123a1565b8181036060830152612a9381846123bb565b9695505050505050565b60608101612aab8286612312565b612ab860208301856123a1565b6109c860408301846123a1565b60808101612ad38287612312565b612a7460208301866123a1565b60808101612aee8287612312565b612afb60208301866123a1565b612b0860408301856123a1565b612b1560608301846123a1565b95945050505050565b60208082528101611c7e818461232a565b60208101610a2b8284612398565b60208101610a2b82846123a1565b60808101612b5982876123a1565b612afb60208301866129f8565b60208082528101611c7e81846123bb565b60208082528101610a2b816124a9565b60208082528101610a2b816124d1565b60208082528101610a2b8161251e565b60208082528101610a2b81612572565b60208082528101610a2b816125ba565b60208082528101610a2b81612600565b60208082528101610a2b81612639565b60208082528101610a2b81612687565b60208082528101610a2b816126e6565b60208082528101610a2b81612732565b60208082528101610a2b8161277d565b60208082528101610a2b816127cb565b60208082528101610a2b81612804565b60208082528101610a2b81612848565b60208082528101610a2b81612893565b60208082528101610a2b816128e4565b60208082528101610a2b81612914565b60208082528101610a2b81612957565b60208082528101610a2b816129aa565b60405181810167ffffffffffffffff81118282101715612cc657600080fd5b604052919050565b600067ffffffffffffffff821115612ce557600080fd5b5060209081020190565b600067ffffffffffffffff821115612d0657600080fd5b506020601f91909101601f19160190565b60200190565b60009081526020902090565b5190565b90815260200190565b6000610a2b82612d53565b151590565b6001600160e01b03191690565b6001600160a01b031690565b60ff1690565b6000610a2b826000610a2b82612d36565b82818337506000910152565b60005b83811015612d9d578181015183820152602001612d85565b838111156110585750506000910152565b601f01601f191690565b612dc181612d36565b81146114eb57600080fd5b612dc181612d41565b612dc181610583565b612dc181612d4656fea365627a7a72315820a14a8663a214682a888c0425fed4fbc579697ac108730265447d7a706be4e23c6c6578706572696d656e74616cf564736f6c63430005100040",
  "source": "// SPDX-License-Identifier: GPL-3.0-or-later\npragma solidity >=0.5 <0.9.0;\npragma experimental ABIEncoderV2;\nimport \"@openzeppelin/contracts/token/ERC721/ERC721Full.sol\";\nimport \"@openzeppelin/contracts/ownership/Ownable.sol\";\nimport \"@openzeppelin/contracts/cryptography/MerkleProof.sol\";\nimport \"@openzeppelin/contracts/cryptography/ECDSA.sol\";\n\ncontract Assets is ERC721Full, Ownable{\n    constructor() ERC721Full('NGSIASSET', 'NGA') public {}\n  \n     struct Asset {\n        address owner;\n        string _hash;\n        Relationship[] relation;\n        Metadata[] meta;\n    }\n\n    struct Relationship {\n        string _hash;\n    }\n\n    struct Metadata {\n        string _metainfo;\n    }\n\n    mapping (bytes32 => Asset) private payloadHash;\n    \n    event AssetCreated(address owner, bytes32 uuid, uint timestamp, string filehash);\n    event AssetUpdated(address owner, bytes32 uuid, uint timestamp, string filehash);\n    event AssetRemoved(address owner, bytes32 uuid, uint timestamp);\n    event RelationAdded(address owner, bytes32 uuid, uint timestamp, string metadatahash);\n    event RelationRemoved(address owner, bytes32 uuid, uint timestamp, uint index);\n    event MetadataAdded(address owner, bytes32 uuid, uint timestamp, string metadatahash);\n    event MetadataRemoved(address owner, bytes32 uuid, uint timestamp, uint index);\n    \n\n    function createAsset(bytes32 uuid, string memory _newHash) public {\n        if(payloadHash[uuid].owner == msg.sender) {\n            revert(\"Asset exists\");\n        }\n        payloadHash[uuid].owner = msg.sender;\n        payloadHash[uuid]._hash = _newHash;\n        emit AssetCreated(msg.sender, uuid, block.timestamp, _newHash);\n    }\n\n    function getAsset(bytes32 uuid) public view returns (string memory) {\n        return payloadHash[uuid]._hash;\n    }\n\n    function updateAsset(bytes32 uuid, string memory _newHash) public {\n        if(payloadHash[uuid].owner != msg.sender) {\n            revert(\"Asset doesn't exists\");\n        }\n        payloadHash[uuid]._hash = _newHash;\n        emit AssetUpdated(msg.sender, uuid, block.timestamp, _newHash);\n    }\n\n    function removeAsset (bytes32 uuid) public {\n        if(payloadHash[uuid].owner != msg.sender) {\n            revert(\"you are not the owner of the asset\");\n        }\n        delete payloadHash[uuid];\n        emit AssetRemoved(msg.sender, uuid, block.timestamp);\n    }\n\n    function isValidAsset(bytes32 uuid, bytes32[] memory _proof, bytes32 _leaf) public view returns (bool) {\n        return MerkleProof.verify(_proof, stringToBytes32(payloadHash[uuid]._hash), _leaf);\n    }\n    \n    // /**\n    //  * @notice Validate authenticity of message signed by Etherium private key.\n    //  * On-chain validation is available only for Ethereum signed messages.\n    //  * @param _messageHash Hash of sent message.\n    //  * @param _signature Signature generated using web3.eth.sign().\n    //  * @return Boolean status.\n    //  */\n    function isValidAssetEthMessage(bytes32 uuid, bytes32 _messageHash, bytes memory _signature) public view returns (bool) {\n        return ECDSA.recover(_messageHash, _signature) == payloadHash[uuid].owner;\n    }\n    \n    function addRelation(bytes32 uuid, string memory _metadatahash) public {\n        //check either uuid exist or not\n        Relationship memory rel = Relationship(_metadatahash);\n        payloadHash[uuid].relation.push(rel);\n        emit RelationAdded(msg.sender, uuid, block.timestamp, _metadatahash);\n    }\n    \n    function getRelations(bytes32 uuid) public view returns (string[] memory) {\n        string[] memory metadataHash = new string[](payloadHash[uuid].relation.length);\n        \n        for(uint i=0; i<payloadHash[uuid].relation.length; i++) {\n            Relationship storage relation = payloadHash[uuid].relation[i];\n            metadataHash[i] = relation._hash;\n        }\n        return (metadataHash);\n    }\n\n    function removeRelation(bytes32 uuid, uint index) public {\n        if(payloadHash[uuid].owner != msg.sender) {\n            revert(\"you are not the owner of the asset\");\n        }\n        delete payloadHash[uuid].relation[index];\n        emit RelationRemoved(msg.sender, uuid, block.timestamp, index);\n    }\n\n    function isValidRelation(bytes32 uuid, uint index, bytes32[] memory _proof, bytes32 _leaf) public view returns (bool) {\n        return MerkleProof.verify(_proof, stringToBytes32(payloadHash[uuid].relation[index]._hash), _leaf);\n    }\n\n    function addMetadata(bytes32 uuid, string memory _metadatahash) public {\n        //check either uuid exist or not\n        Metadata memory meta = Metadata(_metadatahash);\n        payloadHash[uuid].meta.push(meta);\n        emit MetadataAdded(msg.sender, uuid, block.timestamp, _metadatahash);\n    }\n    \n    function getMetadatas(bytes32 uuid) public view returns (string[] memory) {\n        string[] memory metadataHash = new string[](payloadHash[uuid].meta.length);\n        \n        for(uint i=0; i<payloadHash[uuid].meta.length; i++) {\n            Metadata storage meta = payloadHash[uuid].meta[i];\n            metadataHash[i] = meta._metainfo;\n        }\n        return (metadataHash);\n    }\n\n    function removeMetadata(bytes32 uuid, uint index) public {\n        if(payloadHash[uuid].owner != msg.sender) {\n            revert(\"you are not the owner of the asset\");\n        }\n        delete payloadHash[uuid].meta[index];\n        emit MetadataRemoved(msg.sender, uuid, block.timestamp, index);\n    }\n\n    function isValidMetadata(bytes32 uuid, uint index, bytes32[] memory _proof, bytes32 _leaf) public view returns (bool) {\n        return MerkleProof.verify(_proof, stringToBytes32(payloadHash[uuid].meta[index]._metainfo), _leaf);\n    }\n    \n    function stringToBytes32(string memory source) public pure returns (bytes32 result) {\n    bytes memory tempEmptyStringTest = bytes(source);\n    if (tempEmptyStringTest.length == 0) {\n        return 0x0;\n    }\n\n    assembly {\n        result := mload(add(source, 32))\n    }\n}\n}",
  "sourcePath": "/Users/macpro/Desktop/workspace/fiware/blockchain_ge/AEI-Contract/contracts/Assets.sol",
  "compiler": {
    "name": "solc",
    "version": "0.5.16+commit.9c3226ce.Emscripten.clang"
  },
  "schemaVersion": "3.3.4",
  "updatedAt": "2021-04-07T12:18:02.759Z",
  "networkType": "ethereum",
  "devdoc": {
    "methods": {
      "approve(address,uint256)": {
        "details": "Approves another address to transfer the given token ID The zero address indicates there is no approved address. There can only be one approved address per token at a given time. Can only be called by the token owner or an approved operator.",
        "params": {
          "to": "address to be approved for the given token ID",
          "tokenId": "uint256 ID of the token to be approved"
        }
      },
      "balanceOf(address)": {
        "details": "Gets the balance of the specified address.",
        "params": {
          "owner": "address to query the balance of"
        },
        "return": "uint256 representing the amount owned by the passed address"
      },
      "baseURI()": {
        "details": "Returns the base URI set via {_setBaseURI}. This will be automatically added as a preffix in {tokenURI} to each token's URI, when they are non-empty.    * _Available since v2.5.0._"
      },
      "getApproved(uint256)": {
        "details": "Gets the approved address for a token ID, or zero if no address set Reverts if the token ID does not exist.",
        "params": {
          "tokenId": "uint256 ID of the token to query the approval of"
        },
        "return": "address currently approved for the given token ID"
      },
      "isApprovedForAll(address,address)": {
        "details": "Tells whether an operator is approved by a given owner.",
        "params": {
          "operator": "operator address which you want to query the approval of",
          "owner": "owner address which you want to query the approval of"
        },
        "return": "bool whether the given operator is approved by the given owner"
      },
      "isOwner()": {
        "details": "Returns true if the caller is the current owner."
      },
      "name()": {
        "details": "Gets the token name.",
        "return": "string representing the token name"
      },
      "owner()": {
        "details": "Returns the address of the current owner."
      },
      "ownerOf(uint256)": {
        "details": "Gets the owner of the specified token ID.",
        "params": {
          "tokenId": "uint256 ID of the token to query the owner of"
        },
        "return": "address currently marked as the owner of the given token ID"
      },
      "renounceOwnership()": {
        "details": "Leaves the contract without owner. It will not be possible to call `onlyOwner` functions anymore. Can only be called by the current owner.     * NOTE: Renouncing ownership will leave the contract without an owner, thereby removing any functionality that is only available to the owner."
      },
      "safeTransferFrom(address,address,uint256)": {
        "details": "Safely transfers the ownership of a given token ID to another address If the target address is a contract, it must implement {IERC721Receiver-onERC721Received}, which is called upon a safe transfer, and return the magic value `bytes4(keccak256(\"onERC721Received(address,address,uint256,bytes)\"))`; otherwise, the transfer is reverted. Requires the msg.sender to be the owner, approved, or operator",
        "params": {
          "from": "current owner of the token",
          "to": "address to receive the ownership of the given token ID",
          "tokenId": "uint256 ID of the token to be transferred"
        }
      },
      "safeTransferFrom(address,address,uint256,bytes)": {
        "details": "Safely transfers the ownership of a given token ID to another address If the target address is a contract, it must implement {IERC721Receiver-onERC721Received}, which is called upon a safe transfer, and return the magic value `bytes4(keccak256(\"onERC721Received(address,address,uint256,bytes)\"))`; otherwise, the transfer is reverted. Requires the _msgSender() to be the owner, approved, or operator",
        "params": {
          "_data": "bytes data to send along with a safe transfer check",
          "from": "current owner of the token",
          "to": "address to receive the ownership of the given token ID",
          "tokenId": "uint256 ID of the token to be transferred"
        }
      },
      "setApprovalForAll(address,bool)": {
        "details": "Sets or unsets the approval of a given operator An operator is allowed to transfer all tokens of the sender on their behalf.",
        "params": {
          "approved": "representing the status of the approval to be set",
          "to": "operator address to set the approval"
        }
      },
      "supportsInterface(bytes4)": {
        "details": "See {IERC165-supportsInterface}.     * Time complexity O(1), guaranteed to always use less than 30 000 gas."
      },
      "symbol()": {
        "details": "Gets the token symbol.",
        "return": "string representing the token symbol"
      },
      "tokenByIndex(uint256)": {
        "details": "Gets the token ID at a given index of all the tokens in this contract Reverts if the index is greater or equal to the total number of tokens.",
        "params": {
          "index": "uint256 representing the index to be accessed of the tokens list"
        },
        "return": "uint256 token ID at the given index of the tokens list"
      },
      "tokenOfOwnerByIndex(address,uint256)": {
        "details": "Gets the token ID at a given index of the tokens list of the requested owner.",
        "params": {
          "index": "uint256 representing the index to be accessed of the requested tokens list",
          "owner": "address owning the tokens list to be accessed"
        },
        "return": "uint256 token ID at the given index of the tokens list owned by the requested address"
      },
      "tokenURI(uint256)": {
        "details": "Returns the URI for a given token ID. May return an empty string.     * If the token's URI is non-empty and a base URI was set (via {_setBaseURI}), it will be added to the token ID's URI as a prefix.     * Reverts if the token ID does not exist."
      },
      "totalSupply()": {
        "details": "Gets the total amount of tokens stored by the contract.",
        "return": "uint256 representing the total amount of tokens"
      },
      "transferFrom(address,address,uint256)": {
        "details": "Transfers the ownership of a given token ID to another address. Usage of this method is discouraged, use {safeTransferFrom} whenever possible. Requires the msg.sender to be the owner, approved, or operator.",
        "params": {
          "from": "current owner of the token",
          "to": "address to receive the ownership of the given token ID",
          "tokenId": "uint256 ID of the token to be transferred"
        }
      },
      "transferOwnership(address)": {
        "details": "Transfers ownership of the contract to a new account (`newOwner`). Can only be called by the current owner."
      }
    }
  },
  "userdoc": {
    "methods": {}
  }
}