{
  "contractName": "Assets",
  "abi": [
    {
      "inputs": [],
      "payable": false,
      "stateMutability": "nonpayable",
      "type": "constructor"
    },
    {
      "anonymous": false,
      "inputs": [
        {
          "indexed": true,
          "internalType": "address",
          "name": "owner",
          "type": "address"
        },
        {
          "indexed": true,
          "internalType": "address",
          "name": "approved",
          "type": "address"
        },
        {
          "indexed": true,
          "internalType": "uint256",
          "name": "tokenId",
          "type": "uint256"
        }
      ],
      "name": "Approval",
      "type": "event"
    },
    {
      "anonymous": false,
      "inputs": [
        {
          "indexed": true,
          "internalType": "address",
          "name": "owner",
          "type": "address"
        },
        {
          "indexed": true,
          "internalType": "address",
          "name": "operator",
          "type": "address"
        },
        {
          "indexed": false,
          "internalType": "bool",
          "name": "approved",
          "type": "bool"
        }
      ],
      "name": "ApprovalForAll",
      "type": "event"
    },
    {
      "anonymous": false,
      "inputs": [
        {
          "indexed": false,
          "internalType": "address",
          "name": "owner",
          "type": "address"
        },
        {
          "indexed": false,
          "internalType": "bytes32",
          "name": "uuid",
          "type": "bytes32"
        },
        {
          "indexed": false,
          "internalType": "uint256",
          "name": "timestamp",
          "type": "uint256"
        },
        {
          "indexed": false,
          "internalType": "string",
          "name": "filehash",
          "type": "string"
        }
      ],
      "name": "AssetCreated",
      "type": "event"
    },
    {
      "anonymous": false,
      "inputs": [
        {
          "indexed": false,
          "internalType": "address",
          "name": "owner",
          "type": "address"
        },
        {
          "indexed": false,
          "internalType": "bytes32",
          "name": "uuid",
          "type": "bytes32"
        },
        {
          "indexed": false,
          "internalType": "uint256",
          "name": "timestamp",
          "type": "uint256"
        }
      ],
      "name": "AssetRemoved",
      "type": "event"
    },
    {
      "anonymous": false,
      "inputs": [
        {
          "indexed": false,
          "internalType": "address",
          "name": "owner",
          "type": "address"
        },
        {
          "indexed": false,
          "internalType": "bytes32",
          "name": "uuid",
          "type": "bytes32"
        },
        {
          "indexed": false,
          "internalType": "uint256",
          "name": "timestamp",
          "type": "uint256"
        },
        {
          "indexed": false,
          "internalType": "string",
          "name": "filehash",
          "type": "string"
        }
      ],
      "name": "AssetUpdated",
      "type": "event"
    },
    {
      "anonymous": false,
      "inputs": [
        {
          "indexed": false,
          "internalType": "address",
          "name": "owner",
          "type": "address"
        },
        {
          "indexed": false,
          "internalType": "bytes32",
          "name": "uuid",
          "type": "bytes32"
        },
        {
          "indexed": false,
          "internalType": "uint256",
          "name": "timestamp",
          "type": "uint256"
        },
        {
          "indexed": false,
          "internalType": "string",
          "name": "metadatahash",
          "type": "string"
        }
      ],
      "name": "MetadataAdded",
      "type": "event"
    },
    {
      "anonymous": false,
      "inputs": [
        {
          "indexed": false,
          "internalType": "address",
          "name": "owner",
          "type": "address"
        },
        {
          "indexed": false,
          "internalType": "bytes32",
          "name": "uuid",
          "type": "bytes32"
        },
        {
          "indexed": false,
          "internalType": "uint256",
          "name": "timestamp",
          "type": "uint256"
        },
        {
          "indexed": false,
          "internalType": "uint256",
          "name": "index",
          "type": "uint256"
        }
      ],
      "name": "MetadataRemoved",
      "type": "event"
    },
    {
      "anonymous": false,
      "inputs": [
        {
          "indexed": true,
          "internalType": "address",
          "name": "previousOwner",
          "type": "address"
        },
        {
          "indexed": true,
          "internalType": "address",
          "name": "newOwner",
          "type": "address"
        }
      ],
      "name": "OwnershipTransferred",
      "type": "event"
    },
    {
      "anonymous": false,
      "inputs": [
        {
          "indexed": false,
          "internalType": "address",
          "name": "owner",
          "type": "address"
        },
        {
          "indexed": false,
          "internalType": "bytes32",
          "name": "uuid",
          "type": "bytes32"
        },
        {
          "indexed": false,
          "internalType": "uint256",
          "name": "timestamp",
          "type": "uint256"
        },
        {
          "indexed": false,
          "internalType": "bytes32",
          "name": "_reluuid",
          "type": "bytes32"
        }
      ],
      "name": "RelationAdded",
      "type": "event"
    },
    {
      "anonymous": false,
      "inputs": [
        {
          "indexed": false,
          "internalType": "address",
          "name": "owner",
          "type": "address"
        },
        {
          "indexed": false,
          "internalType": "bytes32",
          "name": "uuid",
          "type": "bytes32"
        },
        {
          "indexed": false,
          "internalType": "uint256",
          "name": "timestamp",
          "type": "uint256"
        },
        {
          "indexed": false,
          "internalType": "uint256",
          "name": "index",
          "type": "uint256"
        }
      ],
      "name": "RelationRemoved",
      "type": "event"
    },
    {
      "anonymous": false,
      "inputs": [
        {
          "indexed": true,
          "internalType": "address",
          "name": "from",
          "type": "address"
        },
        {
          "indexed": true,
          "internalType": "address",
          "name": "to",
          "type": "address"
        },
        {
          "indexed": true,
          "internalType": "uint256",
          "name": "tokenId",
          "type": "uint256"
        }
      ],
      "name": "Transfer",
      "type": "event"
    },
    {
      "constant": false,
      "inputs": [
        {
          "internalType": "address",
          "name": "to",
          "type": "address"
        },
        {
          "internalType": "uint256",
          "name": "tokenId",
          "type": "uint256"
        }
      ],
      "name": "approve",
      "outputs": [],
      "payable": false,
      "stateMutability": "nonpayable",
      "type": "function"
    },
    {
      "constant": true,
      "inputs": [
        {
          "internalType": "address",
          "name": "owner",
          "type": "address"
        }
      ],
      "name": "balanceOf",
      "outputs": [
        {
          "internalType": "uint256",
          "name": "",
          "type": "uint256"
        }
      ],
      "payable": false,
      "stateMutability": "view",
      "type": "function"
    },
    {
      "constant": true,
      "inputs": [],
      "name": "baseURI",
      "outputs": [
        {
          "internalType": "string",
          "name": "",
          "type": "string"
        }
      ],
      "payable": false,
      "stateMutability": "view",
      "type": "function"
    },
    {
      "constant": true,
      "inputs": [
        {
          "internalType": "uint256",
          "name": "tokenId",
          "type": "uint256"
        }
      ],
      "name": "getApproved",
      "outputs": [
        {
          "internalType": "address",
          "name": "",
          "type": "address"
        }
      ],
      "payable": false,
      "stateMutability": "view",
      "type": "function"
    },
    {
      "constant": true,
      "inputs": [
        {
          "internalType": "address",
          "name": "owner",
          "type": "address"
        },
        {
          "internalType": "address",
          "name": "operator",
          "type": "address"
        }
      ],
      "name": "isApprovedForAll",
      "outputs": [
        {
          "internalType": "bool",
          "name": "",
          "type": "bool"
        }
      ],
      "payable": false,
      "stateMutability": "view",
      "type": "function"
    },
    {
      "constant": true,
      "inputs": [],
      "name": "isOwner",
      "outputs": [
        {
          "internalType": "bool",
          "name": "",
          "type": "bool"
        }
      ],
      "payable": false,
      "stateMutability": "view",
      "type": "function"
    },
    {
      "constant": true,
      "inputs": [],
      "name": "name",
      "outputs": [
        {
          "internalType": "string",
          "name": "",
          "type": "string"
        }
      ],
      "payable": false,
      "stateMutability": "view",
      "type": "function"
    },
    {
      "constant": true,
      "inputs": [],
      "name": "owner",
      "outputs": [
        {
          "internalType": "address",
          "name": "",
          "type": "address"
        }
      ],
      "payable": false,
      "stateMutability": "view",
      "type": "function"
    },
    {
      "constant": true,
      "inputs": [
        {
          "internalType": "uint256",
          "name": "tokenId",
          "type": "uint256"
        }
      ],
      "name": "ownerOf",
      "outputs": [
        {
          "internalType": "address",
          "name": "",
          "type": "address"
        }
      ],
      "payable": false,
      "stateMutability": "view",
      "type": "function"
    },
    {
      "constant": false,
      "inputs": [],
      "name": "renounceOwnership",
      "outputs": [],
      "payable": false,
      "stateMutability": "nonpayable",
      "type": "function"
    },
    {
      "constant": false,
      "inputs": [
        {
          "internalType": "address",
          "name": "from",
          "type": "address"
        },
        {
          "internalType": "address",
          "name": "to",
          "type": "address"
        },
        {
          "internalType": "uint256",
          "name": "tokenId",
          "type": "uint256"
        }
      ],
      "name": "safeTransferFrom",
      "outputs": [],
      "payable": false,
      "stateMutability": "nonpayable",
      "type": "function"
    },
    {
      "constant": false,
      "inputs": [
        {
          "internalType": "address",
          "name": "from",
          "type": "address"
        },
        {
          "internalType": "address",
          "name": "to",
          "type": "address"
        },
        {
          "internalType": "uint256",
          "name": "tokenId",
          "type": "uint256"
        },
        {
          "internalType": "bytes",
          "name": "_data",
          "type": "bytes"
        }
      ],
      "name": "safeTransferFrom",
      "outputs": [],
      "payable": false,
      "stateMutability": "nonpayable",
      "type": "function"
    },
    {
      "constant": false,
      "inputs": [
        {
          "internalType": "address",
          "name": "to",
          "type": "address"
        },
        {
          "internalType": "bool",
          "name": "approved",
          "type": "bool"
        }
      ],
      "name": "setApprovalForAll",
      "outputs": [],
      "payable": false,
      "stateMutability": "nonpayable",
      "type": "function"
    },
    {
      "constant": true,
      "inputs": [
        {
          "internalType": "bytes4",
          "name": "interfaceId",
          "type": "bytes4"
        }
      ],
      "name": "supportsInterface",
      "outputs": [
        {
          "internalType": "bool",
          "name": "",
          "type": "bool"
        }
      ],
      "payable": false,
      "stateMutability": "view",
      "type": "function"
    },
    {
      "constant": true,
      "inputs": [],
      "name": "symbol",
      "outputs": [
        {
          "internalType": "string",
          "name": "",
          "type": "string"
        }
      ],
      "payable": false,
      "stateMutability": "view",
      "type": "function"
    },
    {
      "constant": true,
      "inputs": [
        {
          "internalType": "uint256",
          "name": "index",
          "type": "uint256"
        }
      ],
      "name": "tokenByIndex",
      "outputs": [
        {
          "internalType": "uint256",
          "name": "",
          "type": "uint256"
        }
      ],
      "payable": false,
      "stateMutability": "view",
      "type": "function"
    },
    {
      "constant": true,
      "inputs": [
        {
          "internalType": "address",
          "name": "owner",
          "type": "address"
        },
        {
          "internalType": "uint256",
          "name": "index",
          "type": "uint256"
        }
      ],
      "name": "tokenOfOwnerByIndex",
      "outputs": [
        {
          "internalType": "uint256",
          "name": "",
          "type": "uint256"
        }
      ],
      "payable": false,
      "stateMutability": "view",
      "type": "function"
    },
    {
      "constant": true,
      "inputs": [
        {
          "internalType": "uint256",
          "name": "tokenId",
          "type": "uint256"
        }
      ],
      "name": "tokenURI",
      "outputs": [
        {
          "internalType": "string",
          "name": "",
          "type": "string"
        }
      ],
      "payable": false,
      "stateMutability": "view",
      "type": "function"
    },
    {
      "constant": true,
      "inputs": [],
      "name": "totalSupply",
      "outputs": [
        {
          "internalType": "uint256",
          "name": "",
          "type": "uint256"
        }
      ],
      "payable": false,
      "stateMutability": "view",
      "type": "function"
    },
    {
      "constant": false,
      "inputs": [
        {
          "internalType": "address",
          "name": "from",
          "type": "address"
        },
        {
          "internalType": "address",
          "name": "to",
          "type": "address"
        },
        {
          "internalType": "uint256",
          "name": "tokenId",
          "type": "uint256"
        }
      ],
      "name": "transferFrom",
      "outputs": [],
      "payable": false,
      "stateMutability": "nonpayable",
      "type": "function"
    },
    {
      "constant": false,
      "inputs": [
        {
          "internalType": "address",
          "name": "newOwner",
          "type": "address"
        }
      ],
      "name": "transferOwnership",
      "outputs": [],
      "payable": false,
      "stateMutability": "nonpayable",
      "type": "function"
    },
    {
      "constant": false,
      "inputs": [],
      "name": "kill",
      "outputs": [],
      "payable": false,
      "stateMutability": "nonpayable",
      "type": "function"
    },
    {
      "constant": false,
      "inputs": [
        {
          "internalType": "bytes32",
          "name": "uuid",
          "type": "bytes32"
        },
        {
          "internalType": "string",
          "name": "_newHash",
          "type": "string"
        }
      ],
      "name": "createAsset",
      "outputs": [],
      "payable": false,
      "stateMutability": "nonpayable",
      "type": "function"
    },
    {
      "constant": true,
      "inputs": [
        {
          "internalType": "bytes32",
          "name": "uuid",
          "type": "bytes32"
        }
      ],
      "name": "getAsset",
      "outputs": [
        {
          "internalType": "string",
          "name": "",
          "type": "string"
        }
      ],
      "payable": false,
      "stateMutability": "view",
      "type": "function"
    },
    {
      "constant": false,
      "inputs": [
        {
          "internalType": "bytes32",
          "name": "uuid",
          "type": "bytes32"
        },
        {
          "internalType": "string",
          "name": "_newHash",
          "type": "string"
        }
      ],
      "name": "updateAsset",
      "outputs": [],
      "payable": false,
      "stateMutability": "nonpayable",
      "type": "function"
    },
    {
      "constant": false,
      "inputs": [
        {
          "internalType": "bytes32",
          "name": "uuid",
          "type": "bytes32"
        }
      ],
      "name": "removeAsset",
      "outputs": [],
      "payable": false,
      "stateMutability": "nonpayable",
      "type": "function"
    },
    {
      "constant": true,
      "inputs": [
        {
          "internalType": "bytes32",
          "name": "uuid",
          "type": "bytes32"
        },
        {
          "internalType": "bytes32",
          "name": "_messageHash",
          "type": "bytes32"
        },
        {
          "internalType": "bytes",
          "name": "_signature",
          "type": "bytes"
        }
      ],
      "name": "isValidAssetEthMessage",
      "outputs": [
        {
          "internalType": "bool",
          "name": "",
          "type": "bool"
        }
      ],
      "payable": false,
      "stateMutability": "view",
      "type": "function"
    },
    {
      "constant": false,
      "inputs": [
        {
          "internalType": "bytes32",
          "name": "uuid",
          "type": "bytes32"
        },
        {
          "internalType": "bytes32",
          "name": "reluuid",
          "type": "bytes32"
        }
      ],
      "name": "addRelation",
      "outputs": [],
      "payable": false,
      "stateMutability": "nonpayable",
      "type": "function"
    },
    {
      "constant": true,
      "inputs": [
        {
          "internalType": "bytes32",
          "name": "uuid",
          "type": "bytes32"
        }
      ],
      "name": "getRelations",
      "outputs": [
        {
          "internalType": "bytes32[]",
          "name": "",
          "type": "bytes32[]"
        }
      ],
      "payable": false,
      "stateMutability": "view",
      "type": "function"
    },
    {
      "constant": false,
      "inputs": [
        {
          "internalType": "bytes32",
          "name": "uuid",
          "type": "bytes32"
        },
        {
          "internalType": "uint256",
          "name": "index",
          "type": "uint256"
        }
      ],
      "name": "removeRelation",
      "outputs": [],
      "payable": false,
      "stateMutability": "nonpayable",
      "type": "function"
    },
    {
      "constant": true,
      "inputs": [
        {
          "internalType": "bytes32",
          "name": "uuid",
          "type": "bytes32"
        },
        {
          "internalType": "uint256",
          "name": "index",
          "type": "uint256"
        },
        {
          "internalType": "bytes32[]",
          "name": "_proof",
          "type": "bytes32[]"
        },
        {
          "internalType": "bytes32",
          "name": "_leaf",
          "type": "bytes32"
        }
      ],
      "name": "isValidRelation",
      "outputs": [
        {
          "internalType": "bool",
          "name": "",
          "type": "bool"
        }
      ],
      "payable": false,
      "stateMutability": "view",
      "type": "function"
    },
    {
      "constant": false,
      "inputs": [
        {
          "internalType": "bytes32",
          "name": "uuid",
          "type": "bytes32"
        },
        {
          "internalType": "string",
          "name": "_metadatahash",
          "type": "string"
        }
      ],
      "name": "addMetadata",
      "outputs": [],
      "payable": false,
      "stateMutability": "nonpayable",
      "type": "function"
    },
    {
      "constant": true,
      "inputs": [
        {
          "internalType": "bytes32",
          "name": "uuid",
          "type": "bytes32"
        }
      ],
      "name": "getMetadatas",
      "outputs": [
        {
          "internalType": "string[]",
          "name": "",
          "type": "string[]"
        }
      ],
      "payable": false,
      "stateMutability": "view",
      "type": "function"
    },
    {
      "constant": false,
      "inputs": [
        {
          "internalType": "bytes32",
          "name": "uuid",
          "type": "bytes32"
        },
        {
          "internalType": "uint256",
          "name": "index",
          "type": "uint256"
        }
      ],
      "name": "removeMetadata",
      "outputs": [],
      "payable": false,
      "stateMutability": "nonpayable",
      "type": "function"
    }
  ],
  "bytecode": "0x60806040523480156200001157600080fd5b5060408051808201825260098152681391d4d25054d4d15560ba1b602080830191909152825180840190935260038352624e474160e81b908301529081816200006a6301ffc9a760e01b6001600160e01b036200015116565b620000856380ac58cd60e01b6001600160e01b036200015116565b620000a063780e9d6360e01b6001600160e01b036200015116565b8151620000b5906009906020850190620001b1565b508051620000cb90600a906020840190620001b1565b50620000e7635b5e139f60e01b6001600160e01b036200015116565b505050506000620000fd620001ac60201b60201c565b600d80546001600160a01b0319166001600160a01b038316908117909155604051919250906000907f8be0079c531659141344cd1fd0a4f28419497f9722a3daafe3b4186f6b6457e0908290a350620002af565b6001600160e01b03198082161415620001875760405162461bcd60e51b81526004016200017e906200028e565b60405180910390fd5b6001600160e01b0319166000908152602081905260409020805460ff19166001179055565b335b90565b828054600181600116156101000203166002900490600052602060002090601f016020900481019282601f10620001f457805160ff191683800117855562000224565b8280016001018555821562000224579182015b828111156200022457825182559160200191906001019062000207565b506200023292915062000236565b5090565b620001ae91905b808211156200023257600081556001016200023d565b600062000262601c83620002a6565b7f4552433136353a20696e76616c696420696e7465726661636520696400000000815260200192915050565b60208082528101620002a08162000253565b92915050565b90815260200190565b612bff80620002bf6000396000f3fe608060405234801561001057600080fd5b50600436106102065760003560e01c806370a082311161011a578063b88d4fde116100ad578063d2f2dd541161007c578063d2f2dd5414610433578063d3e1b62c14610446578063e985e9c514610459578063f2fde38b1461046c578063f7b31d731461047f57610206565b8063b88d4fde146103da578063c349ee0c146103ed578063c87b56dd14610400578063d090cbc01461041357610206565b80638da5cb5b116100e95780638da5cb5b146103af5780638f32d59b146103b757806395d89b41146103bf578063a22cb465146103c757610206565b806370a082311461036e578063715018a6146103815780637ec5655314610389578063837592db1461039c57610206565b80632f745c591161019d57806346c7e1291161016c57806346c7e1291461031a5780634f6ccce71461032d5780636352211e146103405780636a59c8c1146103535780636c0360eb1461036657610206565b80632f745c59146102d95780633de85267146102ec57806341c0e1b5146102ff57806342842e0e1461030757610206565b806318160ddd116101d957806318160ddd1461027e57806323b872dd14610293578063280b7a6a146102a65780632cc3ce80146102c657610206565b806301ffc9a71461020b57806306fdde0314610234578063081812fc14610249578063095ea7b314610269575b600080fd5b61021e610219366004612021565b610492565b60405161022b9190612904565b60405180910390f35b61023c6104b5565b60405161022b919061292d565b61025c610257366004611ed4565b61054c565b60405161022b919061280f565b61027c610277366004611ea4565b610598565b005b61028661067d565b60405161022b9190612a6e565b61027c6102a1366004611dae565b610683565b6102b96102b4366004611ed4565b6106c0565b60405161022b91906128f3565b61023c6102d4366004611ed4565b61080b565b6102866102e7366004611ea4565b6108c3565b61027c6102fa366004611ef2565b610924565b61027c6109cf565b61027c610315366004611dae565b6109f6565b61021e610328366004611fb4565b610a11565b61028661033b366004611ed4565b610a53565b61025c61034e366004611ed4565b610a9a565b61021e610361366004611f11565b610acf565b61023c610b03565b61028661037c366004611d56565b610b64565b61027c610bad565b61027c610397366004611f6c565b610c1b565b61027c6103aa366004611ed4565b610cbd565b61025c610d79565b61021e610d88565b61023c610dae565b61027c6103d5366004611e74565b610e0f565b61027c6103e8366004611dfb565b610edd565b61027c6103fb366004611ef2565b610f1c565b61023c61040e366004611ed4565b610f97565b610426610421366004611ed4565b6110a5565b60405161022b91906128e2565b61027c610441366004611f6c565b611158565b61027c610454366004611ef2565b6111e3565b61021e610467366004611d74565b611277565b61027c61047a366004611d56565b6112a5565b61027c61048d366004611f6c565b6112d5565b6001600160e01b0319811660009081526020819052604090205460ff165b919050565b60098054604080516020601f60026000196101006001881615020190951694909404938401819004810282018101909252828152606093909290918301828280156105415780601f1061051657610100808354040283529160200191610541565b820191906000526020600020905b81548152906001019060200180831161052457829003601f168201915b505050505090505b90565b600061055782611366565b61057c5760405162461bcd60e51b8152600401610573906129de565b60405180910390fd5b506000908152600260205260409020546001600160a01b031690565b60006105a382610a9a565b9050806001600160a01b0316836001600160a01b031614156105d75760405162461bcd60e51b815260040161057390612a3e565b806001600160a01b03166105e9611383565b6001600160a01b03161480610605575061060581610467611383565b6106215760405162461bcd60e51b8152600401610573906129ae565b60008281526002602052604080822080546001600160a01b0319166001600160a01b0387811691821790925591518593918516917f8c5be1e5ebec7d5bd14f71427d1e84f3dd0314c0f7b2291e5b200ac8c7c3b92591a4505050565b60075490565b61069461068e611383565b82611387565b6106b05760405162461bcd60e51b815260040161057390612a4e565b6106bb838383611404565b505050565b606080600e60008481526020019081526020016000206003018054905060405190808252806020026020018201604052801561071057816020015b60608152602001906001900390816106fb5790505b50905060005b6000848152600e6020526040902060030154811015610804576000848152600e6020526040812060030180548390811061074c57fe5b60009182526020918290200180546040805160026001841615610100026000190190931692909204601f8101859004850283018501909152808252919350918391908301828280156107df5780601f106107b4576101008083540402835291602001916107df565b820191906000526020600020905b8154815290600101906020018083116107c257829003601f168201915b50505050508383815181106107f057fe5b602090810291909101015250600101610716565b5092915050565b6060600e60008381526020019081526020016000206001018054600181600116156101000203166002900480601f0160208091040260200160405190810160405280929190818152602001828054600181600116156101000203166002900480156108b75780601f1061088c576101008083540402835291602001916108b7565b820191906000526020600020905b81548152906001019060200180831161089a57829003601f168201915b50505050509050919050565b60006108ce83610b64565b82106108ec5760405162461bcd60e51b81526004016105739061294e565b6001600160a01b038316600090815260056020526040902080548390811061091057fe5b906000526020600020015490505b92915050565b6000828152600e60205260409020546001600160a01b0316331461095a5760405162461bcd60e51b8152600401610573906129fe565b6000828152600e6020526040902060030180548290811061097757fe5b600091825260208220019061098c8282611ad1565b50507f8789a6385b992e5c7a56591a95adfb43a53e9b5fcbe9757d089f358e27749df9338342846040516109c39493929190612889565b60405180910390a15050565b6109d7610d88565b6109f35760405162461bcd60e51b8152600401610573906129ee565b33ff5b6106bb83838360405180602001604052806000815250610edd565b6000848152600e602052604081206002018054610a4891859187908110610a3457fe5b906000526020600020016000015484611423565b90505b949350505050565b6000610a5d61067d565b8210610a7b5760405162461bcd60e51b815260040161057390612a5e565b60078281548110610a8857fe5b90600052602060002001549050919050565b6000818152600160205260408120546001600160a01b03168061091e5760405162461bcd60e51b8152600401610573906129ce565b6000838152600e60205260408120546001600160a01b0316610af184846114c0565b6001600160a01b031614949350505050565b600b8054604080516020601f60026000196101006001881615020190951694909404938401819004810282018101909252828152606093909290918301828280156105415780601f1061051657610100808354040283529160200191610541565b60006001600160a01b038216610b8c5760405162461bcd60e51b8152600401610573906129be565b6001600160a01b038216600090815260036020526040902061091e9061159c565b610bb5610d88565b610bd15760405162461bcd60e51b8152600401610573906129ee565b600d546040516000916001600160a01b0316907f8be0079c531659141344cd1fd0a4f28419497f9722a3daafe3b4186f6b6457e0908390a3600d80546001600160a01b0319169055565b6000828152600e60205260409020546001600160a01b0316331415610c525760405162461bcd60e51b81526004016105739061293e565b6000828152600e6020908152604090912080546001600160a01b031916331781558251610c8792600190920191840190611b15565b507f117ef0a3887baaa508b007da020a6dc877e9f3e78883d885d11e272070e45175338342846040516109c394939291906128c7565b6000818152600e60205260409020546001600160a01b03163314610cf35760405162461bcd60e51b8152600401610573906129fe565b6000818152600e6020526040812080546001600160a01b031916815590610d1d6001830182611ad1565b610d2b600283016000611b93565b610d39600383016000611bb1565b50507f165e0b2b83bed4af93560784cf9d7fb11677ad51853234d96edd5f346a5c2fae338242604051610d6e93929190612861565b60405180910390a150565b600d546001600160a01b031690565b600d546000906001600160a01b0316610d9f611383565b6001600160a01b031614905090565b600a8054604080516020601f60026000196101006001881615020190951694909404938401819004810282018101909252828152606093909290918301828280156105415780601f1061051657610100808354040283529160200191610541565b610e17611383565b6001600160a01b0316826001600160a01b03161415610e485760405162461bcd60e51b81526004016105739061298e565b8060046000610e55611383565b6001600160a01b03908116825260208083019390935260409182016000908120918716808252919093529120805460ff191692151592909217909155610e99611383565b6001600160a01b03167f17307eab39ab6107e8899845ad3d59bd9653f200f220920489ca2b5937696c3183604051610ed19190612904565b60405180910390a35050565b610eee610ee8611383565b83611387565b610f0a5760405162461bcd60e51b815260040161057390612a4e565b610f16848484846115a0565b50505050565b610f24611bcf565b5060408051602080820183528382526000858152600e82528381206002018054600181018255908252919020825191015590517f968696b97a8311b7351024f995bd8ec2f505d1a1bf9389e4dc1bcc11699bc53c90610f8a903390869042908790612889565b60405180910390a1505050565b6060610fa282611366565b610fbe5760405162461bcd60e51b815260040161057390612a1e565b6000828152600c602090815260409182902080548351601f60026000196101006001861615020190931692909204918201849004840281018401909452808452606093928301828280156110535780601f1061102857610100808354040283529160200191611053565b820191906000526020600020905b81548152906001019060200180831161103657829003601f168201915b5050505050905080516000141561107a5750506040805160208101909152600081526104b0565b600b8160405160200161108e9291906127f7565b6040516020818303038152906040529150506104b0565b606080600e6000848152602001908152602001600020600201805490506040519080825280602002602001820160405280156110eb578160200160208202803883390190505b50905060005b6000848152600e6020526040902060020154811015610804576000848152600e6020526040812060020180548390811061112757fe5b906000526020600020019050806000015483838151811061114457fe5b6020908102919091010152506001016110f1565b611160611be1565b5060408051602080820183528382526000858152600e8252928320600301805460018101808355918552938290208351805194959294869492909301926111aa9284920190611b15565b505050507f829d21df03bcaa7394716da182142e158a58f007643bf885a86c3b6c0b8047eb33844285604051610f8a94939291906128c7565b6000828152600e60205260409020546001600160a01b031633146112195760405162461bcd60e51b8152600401610573906129fe565b6000828152600e6020526040902060020180548290811061123657fe5b60009182526020822001556040517f7e5bcbc5dd515efc5e5efaaab255d1905cee90a6818c3d5aeb14aed62c87a75d906109c3903390859042908690612889565b6001600160a01b03918216600090815260046020908152604080832093909416825291909152205460ff1690565b6112ad610d88565b6112c95760405162461bcd60e51b8152600401610573906129ee565b6112d2816115d3565b50565b6000828152600e60205260409020546001600160a01b0316331461130b5760405162461bcd60e51b815260040161057390612a2e565b6000828152600e60209081526040909120825161133092600190920191840190611b15565b507fae9d878cbb7da8d6e131ff7b337b5fd1f8ee1488e193e5528400f3c1ca33e131338342846040516109c394939291906128c7565b6000908152600160205260409020546001600160a01b0316151590565b3390565b600061139282611366565b6113ae5760405162461bcd60e51b81526004016105739061299e565b60006113b983610a9a565b9050806001600160a01b0316846001600160a01b031614806113f45750836001600160a01b03166113e98461054c565b6001600160a01b0316145b80610a4b5750610a4b8185611277565b61140f838383611655565b611419838261175b565b6106bb8282611850565b600081815b85518110156114b557600086828151811061143f57fe5b602002602001015190508083116114805782816040516020016114639291906127c5565b6040516020818303038152906040528051906020012092506114ac565b80836040516020016114939291906127c5565b6040516020818303038152906040528051906020012092505b50600101611428565b509092149392505050565b600081516041146114d35750600061091e565b60208201516040830151606084015160001a7f7fffffffffffffffffffffffffffffff5d576e7357a4501ddfe92f46681b20a0821115611519576000935050505061091e565b8060ff16601b1415801561153157508060ff16601c14155b15611542576000935050505061091e565b600186828585604051600081526020016040526040516115659493929190612912565b6020604051602081039080840390855afa158015611587573d6000803e3d6000fd5b5050604051601f190151979650505050505050565b5490565b6115ab848484611404565b6115b78484848461188e565b610f165760405162461bcd60e51b81526004016105739061295e565b6001600160a01b0381166115f95760405162461bcd60e51b81526004016105739061296e565b600d546040516001600160a01b038084169216907f8be0079c531659141344cd1fd0a4f28419497f9722a3daafe3b4186f6b6457e090600090a3600d80546001600160a01b0319166001600160a01b0392909216919091179055565b826001600160a01b031661166882610a9a565b6001600160a01b03161461168e5760405162461bcd60e51b815260040161057390612a0e565b6001600160a01b0382166116b45760405162461bcd60e51b81526004016105739061297e565b6116bd816119c8565b6001600160a01b03831660009081526003602052604090206116de90611a03565b6001600160a01b03821660009081526003602052604090206116ff90611a1a565b60008181526001602052604080822080546001600160a01b0319166001600160a01b0386811691821790925591518493918716917fddf252ad1be2c89b69c2b068fc378daa952ba7f163c4a11628f55a4df523b3ef91a4505050565b6001600160a01b03821660009081526005602052604081205461178590600163ffffffff611a2316565b600083815260066020526040902054909150808214611820576001600160a01b03841660009081526005602052604081208054849081106117c257fe5b906000526020600020015490508060056000876001600160a01b03166001600160a01b03168152602001908152602001600020838154811061180057fe5b600091825260208083209091019290925591825260069052604090208190555b6001600160a01b0384166000908152600560205260409020805490611849906000198301611bf4565b5050505050565b6001600160a01b0390911660009081526005602081815260408084208054868652600684529185208290559282526001810183559183529091200155565b60006118a2846001600160a01b0316611a6c565b6118ae57506001610a4b565b600060606001600160a01b038616630a85bd0160e11b6118cc611383565b8988886040516024016118e2949392919061281d565b60408051601f198184030181529181526020820180516001600160e01b03166001600160e01b031990941693909317909252905161192091906127eb565b6000604051808303816000865af19150503d806000811461195d576040519150601f19603f3d011682016040523d82523d6000602084013e611962565b606091505b5091509150816119945780511561197c5780518082602001fd5b60405162461bcd60e51b81526004016105739061295e565b6000818060200190516119aa919081019061203f565b6001600160e01b031916630a85bd0160e11b149350610a4b92505050565b6000818152600260205260409020546001600160a01b0316156112d257600090815260026020526040902080546001600160a01b0319169055565b8054611a1690600163ffffffff611a2316565b9055565b80546001019055565b6000611a6583836040518060400160405280601e81526020017f536166654d6174683a207375627472616374696f6e206f766572666c6f770000815250611aa5565b9392505050565b6000813f7fc5d2460186f7233c927e7db2dcc703c0e500b653ca82273b7bfad8045d85a470818114801590610a4b575050151592915050565b60008184841115611ac95760405162461bcd60e51b8152600401610573919061292d565b505050900390565b50805460018160011615610100020316600290046000825580601f10611af757506112d2565b601f0160209004906000526020600020908101906112d29190611c14565b828054600181600116156101000203166002900490600052602060002090601f016020900481019282601f10611b5657805160ff1916838001178555611b83565b82800160010185558215611b83579182015b82811115611b83578251825591602001919060010190611b68565b50611b8f929150611c14565b5090565b50805460008255906000526020600020908101906112d29190611c14565b50805460008255906000526020600020908101906112d29190611c2e565b60408051602081019091526000815290565b6040518060200160405280606081525090565b8154818355818111156106bb576000838152602090206106bb9181019083015b61054991905b80821115611b8f5760008155600101611c1a565b61054991905b80821115611b8f576000611c488282611ad1565b50600101611c34565b803561091e81612b8d565b600082601f830112611c6d57600080fd5b8135611c80611c7b82612aa3565b612a7c565b91508181835260208401935060208101905083856020840282011115611ca557600080fd5b60005b83811015611cd15781611cbb8882611ce6565b8452506020928301929190910190600101611ca8565b5050505092915050565b803561091e81612ba1565b803561091e81612baa565b803561091e81612bb3565b805161091e81612bb3565b600082601f830112611d1857600080fd5b8135611d26611c7b82612ac4565b91508082526020830160208301858383011115611d4257600080fd5b611d4d838284612b4b565b50505092915050565b600060208284031215611d6857600080fd5b6000610a4b8484611c51565b60008060408385031215611d8757600080fd5b6000611d938585611c51565b9250506020611da485828601611c51565b9150509250929050565b600080600060608486031215611dc357600080fd5b6000611dcf8686611c51565b9350506020611de086828701611c51565b9250506040611df186828701611ce6565b9150509250925092565b60008060008060808587031215611e1157600080fd5b6000611e1d8787611c51565b9450506020611e2e87828801611c51565b9350506040611e3f87828801611ce6565b925050606085013567ffffffffffffffff811115611e5c57600080fd5b611e6887828801611d07565b91505092959194509250565b60008060408385031215611e8757600080fd5b6000611e938585611c51565b9250506020611da485828601611cdb565b60008060408385031215611eb757600080fd5b6000611ec38585611c51565b9250506020611da485828601611ce6565b600060208284031215611ee657600080fd5b6000610a4b8484611ce6565b60008060408385031215611f0557600080fd5b6000611ec38585611ce6565b600080600060608486031215611f2657600080fd5b6000611f328686611ce6565b9350506020611f4386828701611ce6565b925050604084013567ffffffffffffffff811115611f6057600080fd5b611df186828701611d07565b60008060408385031215611f7f57600080fd5b6000611f8b8585611ce6565b925050602083013567ffffffffffffffff811115611fa857600080fd5b611da485828601611d07565b60008060008060808587031215611fca57600080fd5b6000611fd68787611ce6565b9450506020611fe787828801611ce6565b935050604085013567ffffffffffffffff81111561200457600080fd5b61201087828801611c5c565b9250506060611e6887828801611ce6565b60006020828403121561203357600080fd5b6000610a4b8484611cf1565b60006020828403121561205157600080fd5b6000610a4b8484611cfc565b60006120698383612165565b505060200190565b6000611a65838361217f565b61208681612b3a565b82525050565b61208681612b0b565b60006120a082612afe565b6120aa8185612b02565b93506120b583612aec565b8060005b838110156120e35781516120cd888261205d565b97506120d883612aec565b9250506001016120b9565b509495945050505050565b60006120f982612afe565b6121038185612b02565b93508360208202850161211585612aec565b8060005b8581101561214f57848403895281516121328582612071565b945061213d83612aec565b60209a909a0199925050600101612119565b5091979650505050505050565b61208681612b16565b61208681610549565b61208661217a82610549565b610549565b600061218a82612afe565b6121948185612b02565b93506121a4818560208601612b57565b6121ad81612b83565b9093019392505050565b60006121c282612afe565b6121cc81856104b0565b93506121dc818560208601612b57565b9290920192915050565b600081546001811660008114612203576001811461222657612265565b607f600283041661221481876104b0565b60ff1984168152955085019250612265565b6002820461223481876104b0565b955061223f85612af2565b60005b8281101561225e57815488820152600190910190602001612242565b5050850192505b505092915050565b600061227a600c83612b02565b6b41737365742065786973747360a01b815260200192915050565b60006122a2602b83612b02565b7f455243373231456e756d657261626c653a206f776e657220696e646578206f7581526a74206f6620626f756e647360a81b602082015260400192915050565b60006122ef603283612b02565b7f4552433732313a207472616e7366657220746f206e6f6e20455243373231526581527131b2b4bb32b91034b6b83632b6b2b73a32b960711b602082015260400192915050565b6000612343602683612b02565b7f4f776e61626c653a206e6577206f776e657220697320746865207a65726f206181526564647265737360d01b602082015260400192915050565b600061238b602483612b02565b7f4552433732313a207472616e7366657220746f20746865207a65726f206164648152637265737360e01b602082015260400192915050565b60006123d1601983612b02565b7f4552433732313a20617070726f766520746f2063616c6c657200000000000000815260200192915050565b600061240a602c83612b02565b7f4552433732313a206f70657261746f7220717565727920666f72206e6f6e657881526b34b9ba32b73a103a37b5b2b760a11b602082015260400192915050565b6000612458603883612b02565b7f4552433732313a20617070726f76652063616c6c6572206973206e6f74206f7781527f6e6572206e6f7220617070726f76656420666f7220616c6c0000000000000000602082015260400192915050565b60006124b7602a83612b02565b7f4552433732313a2062616c616e636520717565727920666f7220746865207a65815269726f206164647265737360b01b602082015260400192915050565b6000612503602983612b02565b7f4552433732313a206f776e657220717565727920666f72206e6f6e657869737481526832b73a103a37b5b2b760b91b602082015260400192915050565b600061254e602c83612b02565b7f4552433732313a20617070726f76656420717565727920666f72206e6f6e657881526b34b9ba32b73a103a37b5b2b760a11b602082015260400192915050565b600061259c602083612b02565b7f4f776e61626c653a2063616c6c6572206973206e6f7420746865206f776e6572815260200192915050565b60006125d5602283612b02565b7f796f7520617265206e6f7420746865206f776e6572206f662074686520617373815261195d60f21b602082015260400192915050565b6000612619602983612b02565b7f4552433732313a207472616e73666572206f6620746f6b656e2074686174206981526839903737ba1037bbb760b91b602082015260400192915050565b6000612664602f83612b02565b7f4552433732314d657461646174613a2055524920717565727920666f72206e6f81526e3732bc34b9ba32b73a103a37b5b2b760891b602082015260400192915050565b60006126b5601483612b02565b73417373657420646f65736e27742065786973747360601b815260200192915050565b60006126e5602183612b02565b7f4552433732313a20617070726f76616c20746f2063757272656e74206f776e658152603960f91b602082015260400192915050565b6000612728603183612b02565b7f4552433732313a207472616e736665722063616c6c6572206973206e6f74206f8152701ddb995c881b9bdc88185c1c1c9bdd9959607a1b602082015260400192915050565b600061277b602c83612b02565b7f455243373231456e756d657261626c653a20676c6f62616c20696e646578206f81526b7574206f6620626f756e647360a01b602082015260400192915050565b61208681612b34565b60006127d1828561216e565b6020820191506127e1828461216e565b5060200192915050565b6000611a6582846121b7565b600061280382856121e6565b9150610a4b82846121b7565b6020810161091e828461208c565b6080810161282b828761208c565b612838602083018661208c565b6128456040830185612165565b8181036060830152612857818461217f565b9695505050505050565b6060810161286f828661207d565b61287c6020830185612165565b610a4b6040830184612165565b60808101612897828761207d565b6128a46020830186612165565b6128b16040830185612165565b6128be6060830184612165565b95945050505050565b608081016128d5828761207d565b6128386020830186612165565b60208082528101611a658184612095565b60208082528101611a6581846120ee565b6020810161091e828461215c565b608081016129208287612165565b6128a460208301866127bc565b60208082528101611a65818461217f565b6020808252810161091e8161226d565b6020808252810161091e81612295565b6020808252810161091e816122e2565b6020808252810161091e81612336565b6020808252810161091e8161237e565b6020808252810161091e816123c4565b6020808252810161091e816123fd565b6020808252810161091e8161244b565b6020808252810161091e816124aa565b6020808252810161091e816124f6565b6020808252810161091e81612541565b6020808252810161091e8161258f565b6020808252810161091e816125c8565b6020808252810161091e8161260c565b6020808252810161091e81612657565b6020808252810161091e816126a8565b6020808252810161091e816126d8565b6020808252810161091e8161271b565b6020808252810161091e8161276e565b6020810161091e8284612165565b60405181810167ffffffffffffffff81118282101715612a9b57600080fd5b604052919050565b600067ffffffffffffffff821115612aba57600080fd5b5060209081020190565b600067ffffffffffffffff821115612adb57600080fd5b506020601f91909101601f19160190565b60200190565b60009081526020902090565b5190565b90815260200190565b600061091e82612b28565b151590565b6001600160e01b03191690565b6001600160a01b031690565b60ff1690565b600061091e82600061091e82612b0b565b82818337506000910152565b60005b83811015612b72578181015183820152602001612b5a565b83811115610f165750506000910152565b601f01601f191690565b612b9681612b0b565b81146112d257600080fd5b612b9681612b16565b612b9681610549565b612b9681612b1b56fea365627a7a72315820070d5ef5d036d6fde2daa1c396ed0914efa49cd38d92eaf07d32d4a813fae93f6c6578706572696d656e74616cf564736f6c63430005100040",
  "source": "// SPDX-License-Identifier: GPL-3.0-or-later\npragma solidity >=0.5.0 <0.9.0;\npragma experimental ABIEncoderV2;\nimport \"@openzeppelin/contracts/token/ERC721/ERC721Full.sol\";\nimport \"@openzeppelin/contracts/ownership/Ownable.sol\";\nimport \"@openzeppelin/contracts/cryptography/MerkleProof.sol\";\nimport \"@openzeppelin/contracts/cryptography/ECDSA.sol\";\n\ncontract Assets is ERC721Full, Ownable {\n    constructor() public ERC721Full(\"NGSIASSET\", \"NGA\") {}\n\n    struct Asset {\n        address owner;\n        string _hash;\n        Relationship[] relation;\n        Metadata[] meta;\n    }\n\n    struct Relationship {\n        bytes32 _reluuid;\n    }\n\n    struct Metadata {\n        string _metainfo;\n    }\n\n    function kill() public onlyOwner {\n        selfdestruct(msg.sender);\n    }\n\n    mapping(bytes32 => Asset) private payloadHash;\n\n    event AssetCreated(\n        address owner,\n        bytes32 uuid,\n        uint256 timestamp,\n        string filehash\n    );\n    event AssetUpdated(\n        address owner,\n        bytes32 uuid,\n        uint256 timestamp,\n        string filehash\n    );\n    event AssetRemoved(address owner, bytes32 uuid, uint256 timestamp);\n    event RelationAdded(\n        address owner,\n        bytes32 uuid,\n        uint256 timestamp,\n        bytes32 _reluuid\n    );\n    event RelationRemoved(\n        address owner,\n        bytes32 uuid,\n        uint256 timestamp,\n        uint256 index\n    );\n    event MetadataAdded(\n        address owner,\n        bytes32 uuid,\n        uint256 timestamp,\n        string metadatahash\n    );\n    event MetadataRemoved(\n        address owner,\n        bytes32 uuid,\n        uint256 timestamp,\n        uint256 index\n    );\n\n    function createAsset(bytes32 uuid, string memory _newHash) public {\n        if (payloadHash[uuid].owner == msg.sender) {\n            revert(\"Asset exists\");\n        }\n        payloadHash[uuid].owner = msg.sender;\n        payloadHash[uuid]._hash = _newHash;\n        // solium-disable-next-line\n        emit AssetCreated(msg.sender, uuid, block.timestamp, _newHash);\n    }\n\n    function getAsset(bytes32 uuid) public view returns (string memory) {\n        return payloadHash[uuid]._hash;\n    }\n\n    function updateAsset(bytes32 uuid, string memory _newHash) public {\n        if (payloadHash[uuid].owner != msg.sender) {\n            revert(\"Asset doesn't exists\");\n        }\n        payloadHash[uuid]._hash = _newHash;\n        // solium-disable-next-line\n        emit AssetUpdated(msg.sender, uuid, block.timestamp, _newHash);\n    }\n\n    function removeAsset(bytes32 uuid) public {\n        if (payloadHash[uuid].owner != msg.sender) {\n            revert(\"you are not the owner of the asset\");\n        }\n        delete payloadHash[uuid];\n        // solium-disable-next-line\n        emit AssetRemoved(msg.sender, uuid, block.timestamp);\n    }\n\n    // function isValidAsset(\n    //     bytes32 uuid,\n    //     bytes32[] memory _proof,\n    //     bytes32 _leaf\n    // ) public view returns (bool) {\n    //     return\n    //         MerkleProof.verify(\n    //             _proof,\n    //             stringToBytes32(payloadHash[uuid]._hash),\n    //             _leaf\n    //         );\n    // }\n\n    // /**\n    //  * @notice Validate authenticity of message signed by Etherium private key.\n    //  * On-chain validation is available only for Ethereum signed messages.\n    //  * @param _messageHash Hash of sent message.\n    //  * @param _signature Signature generated using web3.eth.sign().\n    //  * @return Boolean status.\n    //  */\n    function isValidAssetEthMessage(\n        bytes32 uuid,\n        bytes32 _messageHash,\n        bytes memory _signature\n    ) public view returns (bool) {\n        return\n            ECDSA.recover(_messageHash, _signature) == payloadHash[uuid].owner;\n    }\n\n    function addRelation(bytes32 uuid, bytes32 reluuid) public {\n        //check either uuid exist or not\n        Relationship memory rel = Relationship(reluuid);\n        payloadHash[uuid].relation.push(rel);\n        // solium-disable-next-line\n        emit RelationAdded(msg.sender, uuid, block.timestamp, reluuid);\n    }\n\n    function getRelations(bytes32 uuid) public view returns (bytes32[] memory) {\n        bytes32[] memory metadataHash = new bytes32[](\n            payloadHash[uuid].relation.length\n        );\n\n        for (uint256 i = 0; i < payloadHash[uuid].relation.length; i++) {\n            Relationship storage relation = payloadHash[uuid].relation[i];\n            metadataHash[i] = relation._reluuid;\n        }\n        return (metadataHash);\n    }\n\n    function removeRelation(bytes32 uuid, uint256 index) public {\n        if (payloadHash[uuid].owner != msg.sender) {\n            revert(\"you are not the owner of the asset\");\n        }\n        delete payloadHash[uuid].relation[index];\n        // solium-disable-next-line\n        emit RelationRemoved(msg.sender, uuid, block.timestamp, index);\n    }\n\n    function isValidRelation(\n        bytes32 uuid,\n        uint256 index,\n        bytes32[] memory _proof,\n        bytes32 _leaf\n    ) public view returns (bool) {\n        return\n            MerkleProof.verify(\n                _proof,\n                payloadHash[uuid].relation[index]._reluuid,\n                _leaf\n            );\n    }\n\n    function addMetadata(bytes32 uuid, string memory _metadatahash) public {\n        //check either uuid exist or not\n        Metadata memory meta = Metadata(_metadatahash);\n        payloadHash[uuid].meta.push(meta);\n        // solium-disable-next-line\n        emit MetadataAdded(msg.sender, uuid, block.timestamp, _metadatahash);\n    }\n\n    function getMetadatas(bytes32 uuid) public view returns (string[] memory) {\n        string[] memory metadataHash = new string[](\n            payloadHash[uuid].meta.length\n        );\n\n        for (uint256 i = 0; i < payloadHash[uuid].meta.length; i++) {\n            Metadata storage meta = payloadHash[uuid].meta[i];\n            metadataHash[i] = meta._metainfo;\n        }\n        return (metadataHash);\n    }\n\n    function removeMetadata(bytes32 uuid, uint256 index) public {\n        if (payloadHash[uuid].owner != msg.sender) {\n            revert(\"you are not the owner of the asset\");\n        }\n        delete payloadHash[uuid].meta[index];\n        // solium-disable-next-line\n        emit MetadataRemoved(msg.sender, uuid, block.timestamp, index);\n    }\n\n    // function isValidMetadata(\n    //     bytes32 uuid,\n    //     uint256 index,\n    //     bytes32[] memory _proof,\n    //     bytes32 _leaf\n    // ) public view returns (bool) {\n    //     return\n    //         MerkleProof.verify(\n    //             _proof,\n    //             stringToBytes32(payloadHash[uuid].meta[index]._metainfo),\n    //             _leaf\n    //         );\n    // }\n\n    // function stringToBytes32(string memory source)\n    //     public\n    //     pure\n    //     returns (bytes32 result)\n    // {\n    //     bytes memory tempEmptyStringTest = bytes(source);\n    //     if (tempEmptyStringTest.length == 0) {\n    //         return 0x0;\n    //     }\n\n    //     assembly {\n    //         result := mload(add(source, 32))\n    //     }\n    // }\n}\n",
  "sourcePath": "/Users/admin/workspace/fiware/fiware-blockchain/AEIContract/contracts/Assets.sol",
  "compiler": {
    "name": "solc",
    "version": "0.5.16+commit.9c3226ce.Emscripten.clang"
  },
  "schemaVersion": "3.4.1",
  "updatedAt": "2021-06-23T12:47:23.469Z",
  "devdoc": {
    "methods": {
      "approve(address,uint256)": {
        "details": "Approves another address to transfer the given token ID The zero address indicates there is no approved address. There can only be one approved address per token at a given time. Can only be called by the token owner or an approved operator.",
        "params": {
          "to": "address to be approved for the given token ID",
          "tokenId": "uint256 ID of the token to be approved"
        }
      },
      "balanceOf(address)": {
        "details": "Gets the balance of the specified address.",
        "params": {
          "owner": "address to query the balance of"
        },
        "return": "uint256 representing the amount owned by the passed address"
      },
      "baseURI()": {
        "details": "Returns the base URI set via {_setBaseURI}. This will be automatically added as a preffix in {tokenURI} to each token's URI, when they are non-empty.    * _Available since v2.5.0._"
      },
      "getApproved(uint256)": {
        "details": "Gets the approved address for a token ID, or zero if no address set Reverts if the token ID does not exist.",
        "params": {
          "tokenId": "uint256 ID of the token to query the approval of"
        },
        "return": "address currently approved for the given token ID"
      },
      "isApprovedForAll(address,address)": {
        "details": "Tells whether an operator is approved by a given owner.",
        "params": {
          "operator": "operator address which you want to query the approval of",
          "owner": "owner address which you want to query the approval of"
        },
        "return": "bool whether the given operator is approved by the given owner"
      },
      "isOwner()": {
        "details": "Returns true if the caller is the current owner."
      },
      "name()": {
        "details": "Gets the token name.",
        "return": "string representing the token name"
      },
      "owner()": {
        "details": "Returns the address of the current owner."
      },
      "ownerOf(uint256)": {
        "details": "Gets the owner of the specified token ID.",
        "params": {
          "tokenId": "uint256 ID of the token to query the owner of"
        },
        "return": "address currently marked as the owner of the given token ID"
      },
      "renounceOwnership()": {
        "details": "Leaves the contract without owner. It will not be possible to call `onlyOwner` functions anymore. Can only be called by the current owner.     * NOTE: Renouncing ownership will leave the contract without an owner, thereby removing any functionality that is only available to the owner."
      },
      "safeTransferFrom(address,address,uint256)": {
        "details": "Safely transfers the ownership of a given token ID to another address If the target address is a contract, it must implement {IERC721Receiver-onERC721Received}, which is called upon a safe transfer, and return the magic value `bytes4(keccak256(\"onERC721Received(address,address,uint256,bytes)\"))`; otherwise, the transfer is reverted. Requires the msg.sender to be the owner, approved, or operator",
        "params": {
          "from": "current owner of the token",
          "to": "address to receive the ownership of the given token ID",
          "tokenId": "uint256 ID of the token to be transferred"
        }
      },
      "safeTransferFrom(address,address,uint256,bytes)": {
        "details": "Safely transfers the ownership of a given token ID to another address If the target address is a contract, it must implement {IERC721Receiver-onERC721Received}, which is called upon a safe transfer, and return the magic value `bytes4(keccak256(\"onERC721Received(address,address,uint256,bytes)\"))`; otherwise, the transfer is reverted. Requires the _msgSender() to be the owner, approved, or operator",
        "params": {
          "_data": "bytes data to send along with a safe transfer check",
          "from": "current owner of the token",
          "to": "address to receive the ownership of the given token ID",
          "tokenId": "uint256 ID of the token to be transferred"
        }
      },
      "setApprovalForAll(address,bool)": {
        "details": "Sets or unsets the approval of a given operator An operator is allowed to transfer all tokens of the sender on their behalf.",
        "params": {
          "approved": "representing the status of the approval to be set",
          "to": "operator address to set the approval"
        }
      },
      "supportsInterface(bytes4)": {
        "details": "See {IERC165-supportsInterface}.     * Time complexity O(1), guaranteed to always use less than 30 000 gas."
      },
      "symbol()": {
        "details": "Gets the token symbol.",
        "return": "string representing the token symbol"
      },
      "tokenByIndex(uint256)": {
        "details": "Gets the token ID at a given index of all the tokens in this contract Reverts if the index is greater or equal to the total number of tokens.",
        "params": {
          "index": "uint256 representing the index to be accessed of the tokens list"
        },
        "return": "uint256 token ID at the given index of the tokens list"
      },
      "tokenOfOwnerByIndex(address,uint256)": {
        "details": "Gets the token ID at a given index of the tokens list of the requested owner.",
        "params": {
          "index": "uint256 representing the index to be accessed of the requested tokens list",
          "owner": "address owning the tokens list to be accessed"
        },
        "return": "uint256 token ID at the given index of the tokens list owned by the requested address"
      },
      "tokenURI(uint256)": {
        "details": "Returns the URI for a given token ID. May return an empty string.     * If the token's URI is non-empty and a base URI was set (via {_setBaseURI}), it will be added to the token ID's URI as a prefix.     * Reverts if the token ID does not exist."
      },
      "totalSupply()": {
        "details": "Gets the total amount of tokens stored by the contract.",
        "return": "uint256 representing the total amount of tokens"
      },
      "transferFrom(address,address,uint256)": {
        "details": "Transfers the ownership of a given token ID to another address. Usage of this method is discouraged, use {safeTransferFrom} whenever possible. Requires the msg.sender to be the owner, approved, or operator.",
        "params": {
          "from": "current owner of the token",
          "to": "address to receive the ownership of the given token ID",
          "tokenId": "uint256 ID of the token to be transferred"
        }
      },
      "transferOwnership(address)": {
        "details": "Transfers ownership of the contract to a new account (`newOwner`). Can only be called by the current owner."
      }
    }
  },
  "userdoc": {
    "methods": {}
  }
}