{
  "contractName": "Assets",
  "abi": [
    {
      "inputs": [],
      "payable": false,
      "stateMutability": "nonpayable",
      "type": "constructor"
    },
    {
      "anonymous": false,
      "inputs": [
        {
          "indexed": true,
          "internalType": "address",
          "name": "owner",
          "type": "address"
        },
        {
          "indexed": true,
          "internalType": "address",
          "name": "approved",
          "type": "address"
        },
        {
          "indexed": true,
          "internalType": "uint256",
          "name": "tokenId",
          "type": "uint256"
        }
      ],
      "name": "Approval",
      "type": "event"
    },
    {
      "anonymous": false,
      "inputs": [
        {
          "indexed": true,
          "internalType": "address",
          "name": "owner",
          "type": "address"
        },
        {
          "indexed": true,
          "internalType": "address",
          "name": "operator",
          "type": "address"
        },
        {
          "indexed": false,
          "internalType": "bool",
          "name": "approved",
          "type": "bool"
        }
      ],
      "name": "ApprovalForAll",
      "type": "event"
    },
    {
      "anonymous": false,
      "inputs": [
        {
          "indexed": false,
          "internalType": "address",
          "name": "owner",
          "type": "address"
        },
        {
          "indexed": false,
          "internalType": "bytes32",
          "name": "uuid",
          "type": "bytes32"
        },
        {
          "indexed": false,
          "internalType": "uint256",
          "name": "timestamp",
          "type": "uint256"
        },
        {
          "indexed": false,
          "internalType": "string",
          "name": "filehash",
          "type": "string"
        }
      ],
      "name": "AssetCreated",
      "type": "event"
    },
    {
      "anonymous": false,
      "inputs": [
        {
          "indexed": false,
          "internalType": "address",
          "name": "owner",
          "type": "address"
        },
        {
          "indexed": false,
          "internalType": "bytes32",
          "name": "uuid",
          "type": "bytes32"
        },
        {
          "indexed": false,
          "internalType": "uint256",
          "name": "timestamp",
          "type": "uint256"
        }
      ],
      "name": "AssetRemoved",
      "type": "event"
    },
    {
      "anonymous": false,
      "inputs": [
        {
          "indexed": false,
          "internalType": "address",
          "name": "owner",
          "type": "address"
        },
        {
          "indexed": false,
          "internalType": "bytes32",
          "name": "uuid",
          "type": "bytes32"
        },
        {
          "indexed": false,
          "internalType": "uint256",
          "name": "timestamp",
          "type": "uint256"
        },
        {
          "indexed": false,
          "internalType": "string",
          "name": "filehash",
          "type": "string"
        }
      ],
      "name": "AssetUpdated",
      "type": "event"
    },
    {
      "anonymous": false,
      "inputs": [
        {
          "indexed": false,
          "internalType": "address",
          "name": "owner",
          "type": "address"
        },
        {
          "indexed": false,
          "internalType": "bytes32",
          "name": "uuid",
          "type": "bytes32"
        },
        {
          "indexed": false,
          "internalType": "uint256",
          "name": "timestamp",
          "type": "uint256"
        },
        {
          "indexed": false,
          "internalType": "string",
          "name": "metadatahash",
          "type": "string"
        }
      ],
      "name": "MetadataAdded",
      "type": "event"
    },
    {
      "anonymous": false,
      "inputs": [
        {
          "indexed": false,
          "internalType": "address",
          "name": "owner",
          "type": "address"
        },
        {
          "indexed": false,
          "internalType": "bytes32",
          "name": "uuid",
          "type": "bytes32"
        },
        {
          "indexed": false,
          "internalType": "uint256",
          "name": "timestamp",
          "type": "uint256"
        },
        {
          "indexed": false,
          "internalType": "uint256",
          "name": "index",
          "type": "uint256"
        }
      ],
      "name": "MetadataRemoved",
      "type": "event"
    },
    {
      "anonymous": false,
      "inputs": [
        {
          "indexed": true,
          "internalType": "address",
          "name": "previousOwner",
          "type": "address"
        },
        {
          "indexed": true,
          "internalType": "address",
          "name": "newOwner",
          "type": "address"
        }
      ],
      "name": "OwnershipTransferred",
      "type": "event"
    },
    {
      "anonymous": false,
      "inputs": [
        {
          "indexed": false,
          "internalType": "address",
          "name": "owner",
          "type": "address"
        },
        {
          "indexed": false,
          "internalType": "bytes32",
          "name": "uuid",
          "type": "bytes32"
        },
        {
          "indexed": false,
          "internalType": "uint256",
          "name": "timestamp",
          "type": "uint256"
        },
        {
          "indexed": false,
          "internalType": "bytes32",
          "name": "_reluuid",
          "type": "bytes32"
        }
      ],
      "name": "RelationAdded",
      "type": "event"
    },
    {
      "anonymous": false,
      "inputs": [
        {
          "indexed": false,
          "internalType": "address",
          "name": "owner",
          "type": "address"
        },
        {
          "indexed": false,
          "internalType": "bytes32",
          "name": "uuid",
          "type": "bytes32"
        },
        {
          "indexed": false,
          "internalType": "uint256",
          "name": "timestamp",
          "type": "uint256"
        },
        {
          "indexed": false,
          "internalType": "uint256",
          "name": "index",
          "type": "uint256"
        }
      ],
      "name": "RelationRemoved",
      "type": "event"
    },
    {
      "anonymous": false,
      "inputs": [
        {
          "indexed": true,
          "internalType": "address",
          "name": "from",
          "type": "address"
        },
        {
          "indexed": true,
          "internalType": "address",
          "name": "to",
          "type": "address"
        },
        {
          "indexed": true,
          "internalType": "uint256",
          "name": "tokenId",
          "type": "uint256"
        }
      ],
      "name": "Transfer",
      "type": "event"
    },
    {
      "constant": false,
      "inputs": [
        {
          "internalType": "address",
          "name": "to",
          "type": "address"
        },
        {
          "internalType": "uint256",
          "name": "tokenId",
          "type": "uint256"
        }
      ],
      "name": "approve",
      "outputs": [],
      "payable": false,
      "stateMutability": "nonpayable",
      "type": "function"
    },
    {
      "constant": true,
      "inputs": [
        {
          "internalType": "address",
          "name": "owner",
          "type": "address"
        }
      ],
      "name": "balanceOf",
      "outputs": [
        {
          "internalType": "uint256",
          "name": "",
          "type": "uint256"
        }
      ],
      "payable": false,
      "stateMutability": "view",
      "type": "function"
    },
    {
      "constant": true,
      "inputs": [],
      "name": "baseURI",
      "outputs": [
        {
          "internalType": "string",
          "name": "",
          "type": "string"
        }
      ],
      "payable": false,
      "stateMutability": "view",
      "type": "function"
    },
    {
      "constant": true,
      "inputs": [
        {
          "internalType": "uint256",
          "name": "tokenId",
          "type": "uint256"
        }
      ],
      "name": "getApproved",
      "outputs": [
        {
          "internalType": "address",
          "name": "",
          "type": "address"
        }
      ],
      "payable": false,
      "stateMutability": "view",
      "type": "function"
    },
    {
      "constant": true,
      "inputs": [
        {
          "internalType": "address",
          "name": "owner",
          "type": "address"
        },
        {
          "internalType": "address",
          "name": "operator",
          "type": "address"
        }
      ],
      "name": "isApprovedForAll",
      "outputs": [
        {
          "internalType": "bool",
          "name": "",
          "type": "bool"
        }
      ],
      "payable": false,
      "stateMutability": "view",
      "type": "function"
    },
    {
      "constant": true,
      "inputs": [],
      "name": "isOwner",
      "outputs": [
        {
          "internalType": "bool",
          "name": "",
          "type": "bool"
        }
      ],
      "payable": false,
      "stateMutability": "view",
      "type": "function"
    },
    {
      "constant": true,
      "inputs": [],
      "name": "name",
      "outputs": [
        {
          "internalType": "string",
          "name": "",
          "type": "string"
        }
      ],
      "payable": false,
      "stateMutability": "view",
      "type": "function"
    },
    {
      "constant": true,
      "inputs": [],
      "name": "owner",
      "outputs": [
        {
          "internalType": "address",
          "name": "",
          "type": "address"
        }
      ],
      "payable": false,
      "stateMutability": "view",
      "type": "function"
    },
    {
      "constant": true,
      "inputs": [
        {
          "internalType": "uint256",
          "name": "tokenId",
          "type": "uint256"
        }
      ],
      "name": "ownerOf",
      "outputs": [
        {
          "internalType": "address",
          "name": "",
          "type": "address"
        }
      ],
      "payable": false,
      "stateMutability": "view",
      "type": "function"
    },
    {
      "constant": false,
      "inputs": [],
      "name": "renounceOwnership",
      "outputs": [],
      "payable": false,
      "stateMutability": "nonpayable",
      "type": "function"
    },
    {
      "constant": false,
      "inputs": [
        {
          "internalType": "address",
          "name": "from",
          "type": "address"
        },
        {
          "internalType": "address",
          "name": "to",
          "type": "address"
        },
        {
          "internalType": "uint256",
          "name": "tokenId",
          "type": "uint256"
        }
      ],
      "name": "safeTransferFrom",
      "outputs": [],
      "payable": false,
      "stateMutability": "nonpayable",
      "type": "function"
    },
    {
      "constant": false,
      "inputs": [
        {
          "internalType": "address",
          "name": "from",
          "type": "address"
        },
        {
          "internalType": "address",
          "name": "to",
          "type": "address"
        },
        {
          "internalType": "uint256",
          "name": "tokenId",
          "type": "uint256"
        },
        {
          "internalType": "bytes",
          "name": "_data",
          "type": "bytes"
        }
      ],
      "name": "safeTransferFrom",
      "outputs": [],
      "payable": false,
      "stateMutability": "nonpayable",
      "type": "function"
    },
    {
      "constant": false,
      "inputs": [
        {
          "internalType": "address",
          "name": "to",
          "type": "address"
        },
        {
          "internalType": "bool",
          "name": "approved",
          "type": "bool"
        }
      ],
      "name": "setApprovalForAll",
      "outputs": [],
      "payable": false,
      "stateMutability": "nonpayable",
      "type": "function"
    },
    {
      "constant": true,
      "inputs": [
        {
          "internalType": "bytes4",
          "name": "interfaceId",
          "type": "bytes4"
        }
      ],
      "name": "supportsInterface",
      "outputs": [
        {
          "internalType": "bool",
          "name": "",
          "type": "bool"
        }
      ],
      "payable": false,
      "stateMutability": "view",
      "type": "function"
    },
    {
      "constant": true,
      "inputs": [],
      "name": "symbol",
      "outputs": [
        {
          "internalType": "string",
          "name": "",
          "type": "string"
        }
      ],
      "payable": false,
      "stateMutability": "view",
      "type": "function"
    },
    {
      "constant": true,
      "inputs": [
        {
          "internalType": "uint256",
          "name": "index",
          "type": "uint256"
        }
      ],
      "name": "tokenByIndex",
      "outputs": [
        {
          "internalType": "uint256",
          "name": "",
          "type": "uint256"
        }
      ],
      "payable": false,
      "stateMutability": "view",
      "type": "function"
    },
    {
      "constant": true,
      "inputs": [
        {
          "internalType": "address",
          "name": "owner",
          "type": "address"
        },
        {
          "internalType": "uint256",
          "name": "index",
          "type": "uint256"
        }
      ],
      "name": "tokenOfOwnerByIndex",
      "outputs": [
        {
          "internalType": "uint256",
          "name": "",
          "type": "uint256"
        }
      ],
      "payable": false,
      "stateMutability": "view",
      "type": "function"
    },
    {
      "constant": true,
      "inputs": [
        {
          "internalType": "uint256",
          "name": "tokenId",
          "type": "uint256"
        }
      ],
      "name": "tokenURI",
      "outputs": [
        {
          "internalType": "string",
          "name": "",
          "type": "string"
        }
      ],
      "payable": false,
      "stateMutability": "view",
      "type": "function"
    },
    {
      "constant": true,
      "inputs": [],
      "name": "totalSupply",
      "outputs": [
        {
          "internalType": "uint256",
          "name": "",
          "type": "uint256"
        }
      ],
      "payable": false,
      "stateMutability": "view",
      "type": "function"
    },
    {
      "constant": false,
      "inputs": [
        {
          "internalType": "address",
          "name": "from",
          "type": "address"
        },
        {
          "internalType": "address",
          "name": "to",
          "type": "address"
        },
        {
          "internalType": "uint256",
          "name": "tokenId",
          "type": "uint256"
        }
      ],
      "name": "transferFrom",
      "outputs": [],
      "payable": false,
      "stateMutability": "nonpayable",
      "type": "function"
    },
    {
      "constant": false,
      "inputs": [
        {
          "internalType": "address",
          "name": "newOwner",
          "type": "address"
        }
      ],
      "name": "transferOwnership",
      "outputs": [],
      "payable": false,
      "stateMutability": "nonpayable",
      "type": "function"
    },
    {
      "constant": false,
      "inputs": [],
      "name": "kill",
      "outputs": [],
      "payable": false,
      "stateMutability": "nonpayable",
      "type": "function"
    },
    {
      "constant": false,
      "inputs": [
        {
          "internalType": "bytes32",
          "name": "uuid",
          "type": "bytes32"
        },
        {
          "internalType": "string",
          "name": "_newHash",
          "type": "string"
        }
      ],
      "name": "createAsset",
      "outputs": [],
      "payable": false,
      "stateMutability": "nonpayable",
      "type": "function"
    },
    {
      "constant": true,
      "inputs": [
        {
          "internalType": "bytes32",
          "name": "uuid",
          "type": "bytes32"
        }
      ],
      "name": "getAsset",
      "outputs": [
        {
          "internalType": "string",
          "name": "",
          "type": "string"
        }
      ],
      "payable": false,
      "stateMutability": "view",
      "type": "function"
    },
    {
      "constant": false,
      "inputs": [
        {
          "internalType": "bytes32",
          "name": "uuid",
          "type": "bytes32"
        },
        {
          "internalType": "string",
          "name": "_newHash",
          "type": "string"
        }
      ],
      "name": "updateAsset",
      "outputs": [],
      "payable": false,
      "stateMutability": "nonpayable",
      "type": "function"
    },
    {
      "constant": false,
      "inputs": [
        {
          "internalType": "bytes32",
          "name": "uuid",
          "type": "bytes32"
        }
      ],
      "name": "removeAsset",
      "outputs": [],
      "payable": false,
      "stateMutability": "nonpayable",
      "type": "function"
    },
    {
      "constant": true,
      "inputs": [
        {
          "internalType": "bytes32",
          "name": "uuid",
          "type": "bytes32"
        },
        {
          "internalType": "bytes32[]",
          "name": "_proof",
          "type": "bytes32[]"
        },
        {
          "internalType": "bytes32",
          "name": "_leaf",
          "type": "bytes32"
        }
      ],
      "name": "isValidAsset",
      "outputs": [
        {
          "internalType": "bool",
          "name": "",
          "type": "bool"
        }
      ],
      "payable": false,
      "stateMutability": "view",
      "type": "function"
    },
    {
      "constant": true,
      "inputs": [
        {
          "internalType": "bytes32",
          "name": "uuid",
          "type": "bytes32"
        },
        {
          "internalType": "bytes32",
          "name": "_messageHash",
          "type": "bytes32"
        },
        {
          "internalType": "bytes",
          "name": "_signature",
          "type": "bytes"
        }
      ],
      "name": "isValidAssetEthMessage",
      "outputs": [
        {
          "internalType": "bool",
          "name": "",
          "type": "bool"
        }
      ],
      "payable": false,
      "stateMutability": "view",
      "type": "function"
    },
    {
      "constant": false,
      "inputs": [
        {
          "internalType": "bytes32",
          "name": "uuid",
          "type": "bytes32"
        },
        {
          "internalType": "bytes32",
          "name": "reluuid",
          "type": "bytes32"
        }
      ],
      "name": "addRelation",
      "outputs": [],
      "payable": false,
      "stateMutability": "nonpayable",
      "type": "function"
    },
    {
      "constant": true,
      "inputs": [
        {
          "internalType": "bytes32",
          "name": "uuid",
          "type": "bytes32"
        }
      ],
      "name": "getRelations",
      "outputs": [
        {
          "internalType": "bytes32[]",
          "name": "",
          "type": "bytes32[]"
        }
      ],
      "payable": false,
      "stateMutability": "view",
      "type": "function"
    },
    {
      "constant": false,
      "inputs": [
        {
          "internalType": "bytes32",
          "name": "uuid",
          "type": "bytes32"
        },
        {
          "internalType": "uint256",
          "name": "index",
          "type": "uint256"
        }
      ],
      "name": "removeRelation",
      "outputs": [],
      "payable": false,
      "stateMutability": "nonpayable",
      "type": "function"
    },
    {
      "constant": true,
      "inputs": [
        {
          "internalType": "bytes32",
          "name": "uuid",
          "type": "bytes32"
        },
        {
          "internalType": "uint256",
          "name": "index",
          "type": "uint256"
        },
        {
          "internalType": "bytes32[]",
          "name": "_proof",
          "type": "bytes32[]"
        },
        {
          "internalType": "bytes32",
          "name": "_leaf",
          "type": "bytes32"
        }
      ],
      "name": "isValidRelation",
      "outputs": [
        {
          "internalType": "bool",
          "name": "",
          "type": "bool"
        }
      ],
      "payable": false,
      "stateMutability": "view",
      "type": "function"
    },
    {
      "constant": false,
      "inputs": [
        {
          "internalType": "bytes32",
          "name": "uuid",
          "type": "bytes32"
        },
        {
          "internalType": "string",
          "name": "_metadatahash",
          "type": "string"
        }
      ],
      "name": "addMetadata",
      "outputs": [],
      "payable": false,
      "stateMutability": "nonpayable",
      "type": "function"
    },
    {
      "constant": true,
      "inputs": [
        {
          "internalType": "bytes32",
          "name": "uuid",
          "type": "bytes32"
        }
      ],
      "name": "getMetadatas",
      "outputs": [
        {
          "internalType": "string[]",
          "name": "",
          "type": "string[]"
        }
      ],
      "payable": false,
      "stateMutability": "view",
      "type": "function"
    },
    {
      "constant": false,
      "inputs": [
        {
          "internalType": "bytes32",
          "name": "uuid",
          "type": "bytes32"
        },
        {
          "internalType": "uint256",
          "name": "index",
          "type": "uint256"
        }
      ],
      "name": "removeMetadata",
      "outputs": [],
      "payable": false,
      "stateMutability": "nonpayable",
      "type": "function"
    },
    {
      "constant": true,
      "inputs": [
        {
          "internalType": "bytes32",
          "name": "uuid",
          "type": "bytes32"
        },
        {
          "internalType": "uint256",
          "name": "index",
          "type": "uint256"
        },
        {
          "internalType": "bytes32[]",
          "name": "_proof",
          "type": "bytes32[]"
        },
        {
          "internalType": "bytes32",
          "name": "_leaf",
          "type": "bytes32"
        }
      ],
      "name": "isValidMetadata",
      "outputs": [
        {
          "internalType": "bool",
          "name": "",
          "type": "bool"
        }
      ],
      "payable": false,
      "stateMutability": "view",
      "type": "function"
    },
    {
      "constant": true,
      "inputs": [
        {
          "internalType": "string",
          "name": "source",
          "type": "string"
        }
      ],
      "name": "stringToBytes32",
      "outputs": [
        {
          "internalType": "bytes32",
          "name": "result",
          "type": "bytes32"
        }
      ],
      "payable": false,
      "stateMutability": "pure",
      "type": "function"
    }
  ],
  "bytecode": "0x60806040523480156200001157600080fd5b5060408051808201825260098152681391d4d25054d4d15560ba1b602080830191909152825180840190935260038352624e474160e81b908301529081816200006a6301ffc9a760e01b6001600160e01b036200015116565b620000856380ac58cd60e01b6001600160e01b036200015116565b620000a063780e9d6360e01b6001600160e01b036200015116565b8151620000b5906009906020850190620001b1565b508051620000cb90600a906020840190620001b1565b50620000e7635b5e139f60e01b6001600160e01b036200015116565b505050506000620000fd620001ac60201b60201c565b600d80546001600160a01b0319166001600160a01b038316908117909155604051919250906000907f8be0079c531659141344cd1fd0a4f28419497f9722a3daafe3b4186f6b6457e0908290a350620002af565b6001600160e01b03198082161415620001875760405162461bcd60e51b81526004016200017e906200028e565b60405180910390fd5b6001600160e01b0319166000908152602081905260409020805460ff19166001179055565b335b90565b828054600181600116156101000203166002900490600052602060002090601f016020900481019282601f10620001f457805160ff191683800117855562000224565b8280016001018555821562000224579182015b828111156200022457825182559160200191906001019062000207565b506200023292915062000236565b5090565b620001ae91905b808211156200023257600081556001016200023d565b600062000262601c83620002a6565b7f4552433136353a20696e76616c696420696e7465726661636520696400000000815260200192915050565b60208082528101620002a08162000253565b92915050565b90815260200190565b612e3280620002bf6000396000f3fe608060405234801561001057600080fd5b50600436106102275760003560e01c80636c0360eb11610130578063b88d4fde116100b8578063d2f2dd541161007c578063d2f2dd541461048d578063d3e1b62c146104a0578063e985e9c5146104b3578063f2fde38b146104c6578063f7b31d73146104d957610227565b8063b88d4fde14610421578063c349ee0c14610434578063c87b56dd14610447578063cfb519281461045a578063d090cbc01461046d57610227565b8063837592db116100ff578063837592db146103e35780638da5cb5b146103f65780638f32d59b146103fe57806395d89b4114610406578063a22cb4651461040e57610227565b80636c0360eb146103ad57806370a08231146103b5578063715018a6146103c85780637ec56553146103d057610227565b80632f745c59116101b357806346c7e1291161018257806346c7e1291461034e5780634f6ccce71461036157806362303ec4146103745780636352211e146103875780636a59c8c11461039a57610227565b80632f745c591461030d5780633de852671461032057806341c0e1b51461033357806342842e0e1461033b57610227565b806318160ddd116101fa57806318160ddd1461029f57806323b872dd146102b4578063280b7a6a146102c75780632cc3ce80146102e75780632e449fae146102fa57610227565b806301ffc9a71461022c57806306fdde0314610255578063081812fc1461026a578063095ea7b31461028a575b600080fd5b61023f61023a36600461221f565b6104ec565b60405161024c9190612b37565b60405180910390f35b61025d61050f565b60405161024c9190612b6e565b61027d610278366004612088565b6105a6565b60405161024c9190612a42565b61029d610298366004612058565b6105f2565b005b6102a76106d7565b60405161024c9190612b45565b61029d6102c2366004611f62565b6106dd565b6102da6102d5366004612088565b61071a565b60405161024c9190612b26565b61025d6102f5366004612088565b610865565b61023f6103083660046121b2565b61091d565b6102a761031b366004612058565b6109f0565b61029d61032e3660046120f0565b610a51565b61029d610afc565b61029d610349366004611f62565b610b23565b61023f61035c3660046121b2565b610b3e565b6102a761036f366004612088565b610b75565b61023f6103823660046120a6565b610bbc565b61027d610395366004612088565b610c30565b61023f6103a836600461210f565b610c65565b61025d610c99565b6102a76103c3366004611f0a565b610cfa565b61029d610d43565b61029d6103de36600461216a565b610db1565b61029d6103f1366004612088565b610e53565b61027d610f0f565b61023f610f1e565b61025d610f44565b61029d61041c366004612028565b610fa5565b61029d61042f366004611faf565b611073565b61029d6104423660046120f0565b6110b2565b61025d610455366004612088565b61112d565b6102a761046836600461225b565b61123b565b61048061047b366004612088565b611259565b60405161024c9190612b15565b61029d61049b36600461216a565b61130c565b61029d6104ae3660046120f0565b611397565b61023f6104c1366004611f28565b61142b565b61029d6104d4366004611f0a565b611459565b61029d6104e736600461216a565b611489565b6001600160e01b0319811660009081526020819052604090205460ff165b919050565b60098054604080516020601f600260001961010060018816150201909516949094049384018190048102820181019092528281526060939092909183018282801561059b5780601f106105705761010080835404028352916020019161059b565b820191906000526020600020905b81548152906001019060200180831161057e57829003601f168201915b505050505090505b90565b60006105b18261151a565b6105d65760405162461bcd60e51b81526004016105cd90612c1f565b60405180910390fd5b506000908152600260205260409020546001600160a01b031690565b60006105fd82610c30565b9050806001600160a01b0316836001600160a01b031614156106315760405162461bcd60e51b81526004016105cd90612c7f565b806001600160a01b0316610643611537565b6001600160a01b0316148061065f575061065f816104c1611537565b61067b5760405162461bcd60e51b81526004016105cd90612bef565b60008281526002602052604080822080546001600160a01b0319166001600160a01b0387811691821790925591518593918516917f8c5be1e5ebec7d5bd14f71427d1e84f3dd0314c0f7b2291e5b200ac8c7c3b92591a4505050565b60075490565b6106ee6106e8611537565b8261153b565b61070a5760405162461bcd60e51b81526004016105cd90612c8f565b6107158383836115b8565b505050565b606080600e60008481526020019081526020016000206003018054905060405190808252806020026020018201604052801561076a57816020015b60608152602001906001900390816107555790505b50905060005b6000848152600e602052604090206003015481101561085e576000848152600e602052604081206003018054839081106107a657fe5b60009182526020918290200180546040805160026001841615610100026000190190931692909204601f8101859004850283018501909152808252919350918391908301828280156108395780601f1061080e57610100808354040283529160200191610839565b820191906000526020600020905b81548152906001019060200180831161081c57829003601f168201915b505050505083838151811061084a57fe5b602090810291909101015250600101610770565b5092915050565b6060600e60008381526020019081526020016000206001018054600181600116156101000203166002900480601f0160208091040260200160405190810160405280929190818152602001828054600181600116156101000203166002900480156109115780601f106108e657610100808354040283529160200191610911565b820191906000526020600020905b8154815290600101906020018083116108f457829003601f168201915b50505050509050919050565b60006109e5836109df600e6000898152602001908152602001600020600301878154811061094757fe5b600091825260209182902001805460408051601f60026000196101006001871615020190941693909304928301859004850281018501909152818152928301828280156109d55780601f106109aa576101008083540402835291602001916109d5565b820191906000526020600020905b8154815290600101906020018083116109b857829003601f168201915b505050505061123b565b846115d7565b90505b949350505050565b60006109fb83610cfa565b8210610a195760405162461bcd60e51b81526004016105cd90612b8f565b6001600160a01b0383166000908152600560205260409020805483908110610a3d57fe5b906000526020600020015490505b92915050565b6000828152600e60205260409020546001600160a01b03163314610a875760405162461bcd60e51b81526004016105cd90612c3f565b6000828152600e60205260409020600301805482908110610aa457fe5b6000918252602082200190610ab98282611c85565b50507f8789a6385b992e5c7a56591a95adfb43a53e9b5fcbe9757d089f358e27749df933834284604051610af09493929190612abc565b60405180910390a15050565b610b04610f1e565b610b205760405162461bcd60e51b81526004016105cd90612c2f565b33ff5b61071583838360405180602001604052806000815250611073565b6000848152600e6020526040812060020180546109e591859187908110610b6157fe5b9060005260206000200160000154846115d7565b6000610b7f6106d7565b8210610b9d5760405162461bcd60e51b81526004016105cd90612c9f565b60078281548110610baa57fe5b90600052602060002001549050919050565b6000838152600e60209081526040808320600190810180548351600293821615610100026000190190911692909204601f81018590048502830185019093528282526109e89387936109df9392918301828280156109d55780601f106109aa576101008083540402835291602001916109d5565b6000818152600160205260408120546001600160a01b031680610a4b5760405162461bcd60e51b81526004016105cd90612c0f565b6000838152600e60205260408120546001600160a01b0316610c878484611674565b6001600160a01b031614949350505050565b600b8054604080516020601f600260001961010060018816150201909516949094049384018190048102820181019092528281526060939092909183018282801561059b5780601f106105705761010080835404028352916020019161059b565b60006001600160a01b038216610d225760405162461bcd60e51b81526004016105cd90612bff565b6001600160a01b0382166000908152600360205260409020610a4b90611750565b610d4b610f1e565b610d675760405162461bcd60e51b81526004016105cd90612c2f565b600d546040516000916001600160a01b0316907f8be0079c531659141344cd1fd0a4f28419497f9722a3daafe3b4186f6b6457e0908390a3600d80546001600160a01b0319169055565b6000828152600e60205260409020546001600160a01b0316331415610de85760405162461bcd60e51b81526004016105cd90612b7f565b6000828152600e6020908152604090912080546001600160a01b031916331781558251610e1d92600190920191840190611cc9565b507f117ef0a3887baaa508b007da020a6dc877e9f3e78883d885d11e272070e4517533834284604051610af09493929190612afa565b6000818152600e60205260409020546001600160a01b03163314610e895760405162461bcd60e51b81526004016105cd90612c3f565b6000818152600e6020526040812080546001600160a01b031916815590610eb36001830182611c85565b610ec1600283016000611d47565b610ecf600383016000611d65565b50507f165e0b2b83bed4af93560784cf9d7fb11677ad51853234d96edd5f346a5c2fae338242604051610f0493929190612a94565b60405180910390a150565b600d546001600160a01b031690565b600d546000906001600160a01b0316610f35611537565b6001600160a01b031614905090565b600a8054604080516020601f600260001961010060018816150201909516949094049384018190048102820181019092528281526060939092909183018282801561059b5780601f106105705761010080835404028352916020019161059b565b610fad611537565b6001600160a01b0316826001600160a01b03161415610fde5760405162461bcd60e51b81526004016105cd90612bcf565b8060046000610feb611537565b6001600160a01b03908116825260208083019390935260409182016000908120918716808252919093529120805460ff19169215159290921790915561102f611537565b6001600160a01b03167f17307eab39ab6107e8899845ad3d59bd9653f200f220920489ca2b5937696c31836040516110679190612b37565b60405180910390a35050565b61108461107e611537565b8361153b565b6110a05760405162461bcd60e51b81526004016105cd90612c8f565b6110ac84848484611754565b50505050565b6110ba611d83565b5060408051602080820183528382526000858152600e82528381206002018054600181018255908252919020825191015590517f968696b97a8311b7351024f995bd8ec2f505d1a1bf9389e4dc1bcc11699bc53c90611120903390869042908790612abc565b60405180910390a1505050565b60606111388261151a565b6111545760405162461bcd60e51b81526004016105cd90612c5f565b6000828152600c602090815260409182902080548351601f60026000196101006001861615020190931692909204918201849004840281018401909452808452606093928301828280156111e95780601f106111be576101008083540402835291602001916111e9565b820191906000526020600020905b8154815290600101906020018083116111cc57829003601f168201915b5050505050905080516000141561121057505060408051602081019091526000815261050a565b600b81604051602001611224929190612a2a565b60405160208183030381529060405291505061050a565b8051600090829061125057506000905061050a565b50506020015190565b606080600e60008481526020019081526020016000206002018054905060405190808252806020026020018201604052801561129f578160200160208202803883390190505b50905060005b6000848152600e602052604090206002015481101561085e576000848152600e602052604081206002018054839081106112db57fe5b90600052602060002001905080600001548383815181106112f857fe5b6020908102919091010152506001016112a5565b611314611d95565b5060408051602080820183528382526000858152600e82529283206003018054600181018083559185529382902083518051949592948694929093019261135e9284920190611cc9565b505050507f829d21df03bcaa7394716da182142e158a58f007643bf885a86c3b6c0b8047eb338442856040516111209493929190612afa565b6000828152600e60205260409020546001600160a01b031633146113cd5760405162461bcd60e51b81526004016105cd90612c3f565b6000828152600e602052604090206002018054829081106113ea57fe5b60009182526020822001556040517f7e5bcbc5dd515efc5e5efaaab255d1905cee90a6818c3d5aeb14aed62c87a75d90610af0903390859042908690612abc565b6001600160a01b03918216600090815260046020908152604080832093909416825291909152205460ff1690565b611461610f1e565b61147d5760405162461bcd60e51b81526004016105cd90612c2f565b61148681611787565b50565b6000828152600e60205260409020546001600160a01b031633146114bf5760405162461bcd60e51b81526004016105cd90612c6f565b6000828152600e6020908152604090912082516114e492600190920191840190611cc9565b507fae9d878cbb7da8d6e131ff7b337b5fd1f8ee1488e193e5528400f3c1ca33e13133834284604051610af09493929190612afa565b6000908152600160205260409020546001600160a01b0316151590565b3390565b60006115468261151a565b6115625760405162461bcd60e51b81526004016105cd90612bdf565b600061156d83610c30565b9050806001600160a01b0316846001600160a01b031614806115a85750836001600160a01b031661159d846105a6565b6001600160a01b0316145b806109e857506109e8818561142b565b6115c3838383611809565b6115cd838261190f565b6107158282611a04565b600081815b85518110156116695760008682815181106115f357fe5b602002602001015190508083116116345782816040516020016116179291906129f8565b604051602081830303815290604052805190602001209250611660565b80836040516020016116479291906129f8565b6040516020818303038152906040528051906020012092505b506001016115dc565b509092149392505050565b6000815160411461168757506000610a4b565b60208201516040830151606084015160001a7f7fffffffffffffffffffffffffffffff5d576e7357a4501ddfe92f46681b20a08211156116cd5760009350505050610a4b565b8060ff16601b141580156116e557508060ff16601c14155b156116f65760009350505050610a4b565b600186828585604051600081526020016040526040516117199493929190612b53565b6020604051602081039080840390855afa15801561173b573d6000803e3d6000fd5b5050604051601f190151979650505050505050565b5490565b61175f8484846115b8565b61176b84848484611a42565b6110ac5760405162461bcd60e51b81526004016105cd90612b9f565b6001600160a01b0381166117ad5760405162461bcd60e51b81526004016105cd90612baf565b600d546040516001600160a01b038084169216907f8be0079c531659141344cd1fd0a4f28419497f9722a3daafe3b4186f6b6457e090600090a3600d80546001600160a01b0319166001600160a01b0392909216919091179055565b826001600160a01b031661181c82610c30565b6001600160a01b0316146118425760405162461bcd60e51b81526004016105cd90612c4f565b6001600160a01b0382166118685760405162461bcd60e51b81526004016105cd90612bbf565b61187181611b7c565b6001600160a01b038316600090815260036020526040902061189290611bb7565b6001600160a01b03821660009081526003602052604090206118b390611bce565b60008181526001602052604080822080546001600160a01b0319166001600160a01b0386811691821790925591518493918716917fddf252ad1be2c89b69c2b068fc378daa952ba7f163c4a11628f55a4df523b3ef91a4505050565b6001600160a01b03821660009081526005602052604081205461193990600163ffffffff611bd716565b6000838152600660205260409020549091508082146119d4576001600160a01b038416600090815260056020526040812080548490811061197657fe5b906000526020600020015490508060056000876001600160a01b03166001600160a01b0316815260200190815260200160002083815481106119b457fe5b600091825260208083209091019290925591825260069052604090208190555b6001600160a01b03841660009081526005602052604090208054906119fd906000198301611da8565b5050505050565b6001600160a01b0390911660009081526005602081815260408084208054868652600684529185208290559282526001810183559183529091200155565b6000611a56846001600160a01b0316611c20565b611a62575060016109e8565b600060606001600160a01b038616630a85bd0160e11b611a80611537565b898888604051602401611a969493929190612a50565b60408051601f198184030181529181526020820180516001600160e01b03166001600160e01b0319909416939093179092529051611ad49190612a1e565b6000604051808303816000865af19150503d8060008114611b11576040519150601f19603f3d011682016040523d82523d6000602084013e611b16565b606091505b509150915081611b4857805115611b305780518082602001fd5b60405162461bcd60e51b81526004016105cd90612b9f565b600081806020019051611b5e919081019061223d565b6001600160e01b031916630a85bd0160e11b1493506109e892505050565b6000818152600260205260409020546001600160a01b03161561148657600090815260026020526040902080546001600160a01b0319169055565b8054611bca90600163ffffffff611bd716565b9055565b80546001019055565b6000611c1983836040518060400160405280601e81526020017f536166654d6174683a207375627472616374696f6e206f766572666c6f770000815250611c59565b9392505050565b6000813f7fc5d2460186f7233c927e7db2dcc703c0e500b653ca82273b7bfad8045d85a4708181148015906109e8575050151592915050565b60008184841115611c7d5760405162461bcd60e51b81526004016105cd9190612b6e565b505050900390565b50805460018160011615610100020316600290046000825580601f10611cab5750611486565b601f0160209004906000526020600020908101906114869190611dc8565b828054600181600116156101000203166002900490600052602060002090601f016020900481019282601f10611d0a57805160ff1916838001178555611d37565b82800160010185558215611d37579182015b82811115611d37578251825591602001919060010190611d1c565b50611d43929150611dc8565b5090565b50805460008255906000526020600020908101906114869190611dc8565b50805460008255906000526020600020908101906114869190611de2565b60408051602081019091526000815290565b6040518060200160405280606081525090565b815481835581811115610715576000838152602090206107159181019083015b6105a391905b80821115611d435760008155600101611dce565b6105a391905b80821115611d43576000611dfc8282611c85565b50600101611de8565b8035610a4b81612dc0565b600082601f830112611e2157600080fd5b8135611e34611e2f82612cd6565b612caf565b91508181835260208401935060208101905083856020840282011115611e5957600080fd5b60005b83811015611e855781611e6f8882611e9a565b8452506020928301929190910190600101611e5c565b5050505092915050565b8035610a4b81612dd4565b8035610a4b81612ddd565b8035610a4b81612de6565b8051610a4b81612de6565b600082601f830112611ecc57600080fd5b8135611eda611e2f82612cf7565b91508082526020830160208301858383011115611ef657600080fd5b611f01838284612d7e565b50505092915050565b600060208284031215611f1c57600080fd5b60006109e88484611e05565b60008060408385031215611f3b57600080fd5b6000611f478585611e05565b9250506020611f5885828601611e05565b9150509250929050565b600080600060608486031215611f7757600080fd5b6000611f838686611e05565b9350506020611f9486828701611e05565b9250506040611fa586828701611e9a565b9150509250925092565b60008060008060808587031215611fc557600080fd5b6000611fd18787611e05565b9450506020611fe287828801611e05565b9350506040611ff387828801611e9a565b925050606085013567ffffffffffffffff81111561201057600080fd5b61201c87828801611ebb565b91505092959194509250565b6000806040838503121561203b57600080fd5b60006120478585611e05565b9250506020611f5885828601611e8f565b6000806040838503121561206b57600080fd5b60006120778585611e05565b9250506020611f5885828601611e9a565b60006020828403121561209a57600080fd5b60006109e88484611e9a565b6000806000606084860312156120bb57600080fd5b60006120c78686611e9a565b935050602084013567ffffffffffffffff8111156120e457600080fd5b611f9486828701611e10565b6000806040838503121561210357600080fd5b60006120778585611e9a565b60008060006060848603121561212457600080fd5b60006121308686611e9a565b935050602061214186828701611e9a565b925050604084013567ffffffffffffffff81111561215e57600080fd5b611fa586828701611ebb565b6000806040838503121561217d57600080fd5b60006121898585611e9a565b925050602083013567ffffffffffffffff8111156121a657600080fd5b611f5885828601611ebb565b600080600080608085870312156121c857600080fd5b60006121d48787611e9a565b94505060206121e587828801611e9a565b935050604085013567ffffffffffffffff81111561220257600080fd5b61220e87828801611e10565b925050606061201c87828801611e9a565b60006020828403121561223157600080fd5b60006109e88484611ea5565b60006020828403121561224f57600080fd5b60006109e88484611eb0565b60006020828403121561226d57600080fd5b813567ffffffffffffffff81111561228457600080fd5b6109e884828501611ebb565b600061229c8383612398565b505060200190565b6000611c1983836123b2565b6122b981612d6d565b82525050565b6122b981612d3e565b60006122d382612d31565b6122dd8185612d35565b93506122e883612d1f565b8060005b838110156123165781516123008882612290565b975061230b83612d1f565b9250506001016122ec565b509495945050505050565b600061232c82612d31565b6123368185612d35565b93508360208202850161234885612d1f565b8060005b85811015612382578484038952815161236585826122a4565b945061237083612d1f565b60209a909a019992505060010161234c565b5091979650505050505050565b6122b981612d49565b6122b9816105a3565b6122b96123ad826105a3565b6105a3565b60006123bd82612d31565b6123c78185612d35565b93506123d7818560208601612d8a565b6123e081612db6565b9093019392505050565b60006123f582612d31565b6123ff818561050a565b935061240f818560208601612d8a565b9290920192915050565b600081546001811660008114612436576001811461245957612498565b607f6002830416612447818761050a565b60ff1984168152955085019250612498565b60028204612467818761050a565b955061247285612d25565b60005b8281101561249157815488820152600190910190602001612475565b5050850192505b505092915050565b60006124ad600c83612d35565b6b41737365742065786973747360a01b815260200192915050565b60006124d5602b83612d35565b7f455243373231456e756d657261626c653a206f776e657220696e646578206f7581526a74206f6620626f756e647360a81b602082015260400192915050565b6000612522603283612d35565b7f4552433732313a207472616e7366657220746f206e6f6e20455243373231526581527131b2b4bb32b91034b6b83632b6b2b73a32b960711b602082015260400192915050565b6000612576602683612d35565b7f4f776e61626c653a206e6577206f776e657220697320746865207a65726f206181526564647265737360d01b602082015260400192915050565b60006125be602483612d35565b7f4552433732313a207472616e7366657220746f20746865207a65726f206164648152637265737360e01b602082015260400192915050565b6000612604601983612d35565b7f4552433732313a20617070726f766520746f2063616c6c657200000000000000815260200192915050565b600061263d602c83612d35565b7f4552433732313a206f70657261746f7220717565727920666f72206e6f6e657881526b34b9ba32b73a103a37b5b2b760a11b602082015260400192915050565b600061268b603883612d35565b7f4552433732313a20617070726f76652063616c6c6572206973206e6f74206f7781527f6e6572206e6f7220617070726f76656420666f7220616c6c0000000000000000602082015260400192915050565b60006126ea602a83612d35565b7f4552433732313a2062616c616e636520717565727920666f7220746865207a65815269726f206164647265737360b01b602082015260400192915050565b6000612736602983612d35565b7f4552433732313a206f776e657220717565727920666f72206e6f6e657869737481526832b73a103a37b5b2b760b91b602082015260400192915050565b6000612781602c83612d35565b7f4552433732313a20617070726f76656420717565727920666f72206e6f6e657881526b34b9ba32b73a103a37b5b2b760a11b602082015260400192915050565b60006127cf602083612d35565b7f4f776e61626c653a2063616c6c6572206973206e6f7420746865206f776e6572815260200192915050565b6000612808602283612d35565b7f796f7520617265206e6f7420746865206f776e6572206f662074686520617373815261195d60f21b602082015260400192915050565b600061284c602983612d35565b7f4552433732313a207472616e73666572206f6620746f6b656e2074686174206981526839903737ba1037bbb760b91b602082015260400192915050565b6000612897602f83612d35565b7f4552433732314d657461646174613a2055524920717565727920666f72206e6f81526e3732bc34b9ba32b73a103a37b5b2b760891b602082015260400192915050565b60006128e8601483612d35565b73417373657420646f65736e27742065786973747360601b815260200192915050565b6000612918602183612d35565b7f4552433732313a20617070726f76616c20746f2063757272656e74206f776e658152603960f91b602082015260400192915050565b600061295b603183612d35565b7f4552433732313a207472616e736665722063616c6c6572206973206e6f74206f8152701ddb995c881b9bdc88185c1c1c9bdd9959607a1b602082015260400192915050565b60006129ae602c83612d35565b7f455243373231456e756d657261626c653a20676c6f62616c20696e646578206f81526b7574206f6620626f756e647360a01b602082015260400192915050565b6122b981612d67565b6000612a0482856123a1565b602082019150612a1482846123a1565b5060200192915050565b6000611c1982846123ea565b6000612a368285612419565b91506109e882846123ea565b60208101610a4b82846122bf565b60808101612a5e82876122bf565b612a6b60208301866122bf565b612a786040830185612398565b8181036060830152612a8a81846123b2565b9695505050505050565b60608101612aa282866122b0565b612aaf6020830185612398565b6109e86040830184612398565b60808101612aca82876122b0565b612ad76020830186612398565b612ae46040830185612398565b612af16060830184612398565b95945050505050565b60808101612b0882876122b0565b612a6b6020830186612398565b60208082528101611c1981846122c8565b60208082528101611c198184612321565b60208101610a4b828461238f565b60208101610a4b8284612398565b60808101612b618287612398565b612ad760208301866129ef565b60208082528101611c1981846123b2565b60208082528101610a4b816124a0565b60208082528101610a4b816124c8565b60208082528101610a4b81612515565b60208082528101610a4b81612569565b60208082528101610a4b816125b1565b60208082528101610a4b816125f7565b60208082528101610a4b81612630565b60208082528101610a4b8161267e565b60208082528101610a4b816126dd565b60208082528101610a4b81612729565b60208082528101610a4b81612774565b60208082528101610a4b816127c2565b60208082528101610a4b816127fb565b60208082528101610a4b8161283f565b60208082528101610a4b8161288a565b60208082528101610a4b816128db565b60208082528101610a4b8161290b565b60208082528101610a4b8161294e565b60208082528101610a4b816129a1565b60405181810167ffffffffffffffff81118282101715612cce57600080fd5b604052919050565b600067ffffffffffffffff821115612ced57600080fd5b5060209081020190565b600067ffffffffffffffff821115612d0e57600080fd5b506020601f91909101601f19160190565b60200190565b60009081526020902090565b5190565b90815260200190565b6000610a4b82612d5b565b151590565b6001600160e01b03191690565b6001600160a01b031690565b60ff1690565b6000610a4b826000610a4b82612d3e565b82818337506000910152565b60005b83811015612da5578181015183820152602001612d8d565b838111156110ac5750506000910152565b601f01601f191690565b612dc981612d3e565b811461148657600080fd5b612dc981612d49565b612dc9816105a3565b612dc981612d4e56fea365627a7a72315820db70fc17fcc2ed2bcf180ddae87261ca643fd6a46e5eb31ac42fa7195eb08c9c6c6578706572696d656e74616cf564736f6c63430005100040",
  "source": "// SPDX-License-Identifier: GPL-3.0-or-later\npragma solidity >=0.5 <0.9.0;\npragma experimental ABIEncoderV2;\nimport \"@openzeppelin/contracts/token/ERC721/ERC721Full.sol\";\nimport \"@openzeppelin/contracts/ownership/Ownable.sol\";\nimport \"@openzeppelin/contracts/cryptography/MerkleProof.sol\";\nimport \"@openzeppelin/contracts/cryptography/ECDSA.sol\";\n\ncontract Assets is ERC721Full, Ownable{\n    constructor() ERC721Full('NGSIASSET', 'NGA') public {}\n  \n     struct Asset {\n        address owner;\n        string _hash;\n        Relationship[] relation;\n        Metadata[] meta;\n    }\n\n    struct Relationship {\n        bytes32 _reluuid;\n    }\n\n    struct Metadata {\n        string _metainfo;\n    }\n\n    function kill() public onlyOwner {\n        selfdestruct(msg.sender);\n    }\n    \n    mapping (bytes32 => Asset) private payloadHash;\n    \n    event AssetCreated(address owner, bytes32 uuid, uint timestamp, string filehash);\n    event AssetUpdated(address owner, bytes32 uuid, uint timestamp, string filehash);\n    event AssetRemoved(address owner, bytes32 uuid, uint timestamp);\n    event RelationAdded(address owner, bytes32 uuid, uint timestamp, bytes32 _reluuid);\n    event RelationRemoved(address owner, bytes32 uuid, uint timestamp, uint index);\n    event MetadataAdded(address owner, bytes32 uuid, uint timestamp, string metadatahash);\n    event MetadataRemoved(address owner, bytes32 uuid, uint timestamp, uint index);\n    \n\n    function createAsset(bytes32 uuid, string memory _newHash) public {\n        if(payloadHash[uuid].owner == msg.sender) {\n            revert(\"Asset exists\");\n        }\n        payloadHash[uuid].owner = msg.sender;\n        payloadHash[uuid]._hash = _newHash;\n        emit AssetCreated(msg.sender, uuid, block.timestamp, _newHash);\n    }\n\n    function getAsset(bytes32 uuid) public view returns (string memory) {\n        return payloadHash[uuid]._hash;\n    }\n\n    function updateAsset(bytes32 uuid, string memory _newHash) public {\n        if(payloadHash[uuid].owner != msg.sender) {\n            revert(\"Asset doesn't exists\");\n        }\n        payloadHash[uuid]._hash = _newHash;\n        emit AssetUpdated(msg.sender, uuid, block.timestamp, _newHash);\n    }\n\n    function removeAsset (bytes32 uuid) public {\n        if(payloadHash[uuid].owner != msg.sender) {\n            revert(\"you are not the owner of the asset\");\n        }\n        delete payloadHash[uuid];\n        emit AssetRemoved(msg.sender, uuid, block.timestamp);\n    }\n\n    function isValidAsset(bytes32 uuid, bytes32[] memory _proof, bytes32 _leaf) public view returns (bool) {\n        return MerkleProof.verify(_proof, stringToBytes32(payloadHash[uuid]._hash), _leaf);\n    }\n    \n    // /**\n    //  * @notice Validate authenticity of message signed by Etherium private key.\n    //  * On-chain validation is available only for Ethereum signed messages.\n    //  * @param _messageHash Hash of sent message.\n    //  * @param _signature Signature generated using web3.eth.sign().\n    //  * @return Boolean status.\n    //  */\n    function isValidAssetEthMessage(bytes32 uuid, bytes32 _messageHash, bytes memory _signature) public view returns (bool) {\n        return ECDSA.recover(_messageHash, _signature) == payloadHash[uuid].owner;\n    }\n    \n    function addRelation(bytes32 uuid, bytes32 reluuid) public {\n        //check either uuid exist or not\n        Relationship memory rel = Relationship(reluuid);\n        payloadHash[uuid].relation.push(rel);\n        emit RelationAdded(msg.sender, uuid, block.timestamp, reluuid);\n    }\n    \n    function getRelations(bytes32 uuid) public view returns (bytes32[] memory) {\n        bytes32[] memory metadataHash = new bytes32[](payloadHash[uuid].relation.length);\n        \n        for(uint i=0; i<payloadHash[uuid].relation.length; i++) {\n            Relationship storage relation = payloadHash[uuid].relation[i];\n            metadataHash[i] = relation._reluuid;\n        }\n        return (metadataHash);\n    }\n\n    function removeRelation(bytes32 uuid, uint index) public {\n        if(payloadHash[uuid].owner != msg.sender) {\n            revert(\"you are not the owner of the asset\");\n        }\n        delete payloadHash[uuid].relation[index];\n        emit RelationRemoved(msg.sender, uuid, block.timestamp, index);\n    }\n\n    function isValidRelation(bytes32 uuid, uint index, bytes32[] memory _proof, bytes32 _leaf) public view returns (bool) {\n        return MerkleProof.verify(_proof, payloadHash[uuid].relation[index]._reluuid, _leaf);\n    }\n\n    function addMetadata(bytes32 uuid, string memory _metadatahash) public {\n        //check either uuid exist or not\n        Metadata memory meta = Metadata(_metadatahash);\n        payloadHash[uuid].meta.push(meta);\n        emit MetadataAdded(msg.sender, uuid, block.timestamp, _metadatahash);\n    }\n    \n    function getMetadatas(bytes32 uuid) public view returns (string[] memory) {\n        string[] memory metadataHash = new string[](payloadHash[uuid].meta.length);\n        \n        for(uint i=0; i<payloadHash[uuid].meta.length; i++) {\n            Metadata storage meta = payloadHash[uuid].meta[i];\n            metadataHash[i] = meta._metainfo;\n        }\n        return (metadataHash);\n    }\n\n    function removeMetadata(bytes32 uuid, uint index) public {\n        if(payloadHash[uuid].owner != msg.sender) {\n            revert(\"you are not the owner of the asset\");\n        }\n        delete payloadHash[uuid].meta[index];\n        emit MetadataRemoved(msg.sender, uuid, block.timestamp, index);\n    }\n\n    function isValidMetadata(bytes32 uuid, uint index, bytes32[] memory _proof, bytes32 _leaf) public view returns (bool) {\n        return MerkleProof.verify(_proof, stringToBytes32(payloadHash[uuid].meta[index]._metainfo), _leaf);\n    }\n    \n    function stringToBytes32(string memory source) public pure returns (bytes32 result) {\n    bytes memory tempEmptyStringTest = bytes(source);\n    if (tempEmptyStringTest.length == 0) {\n        return 0x0;\n    }\n\n    assembly {\n        result := mload(add(source, 32))\n    }\n}\n}",
  "sourcePath": "/Users/macpro/Desktop/workspace/fiware/blockchain_ge/AEI-Contract/contracts/Assets.sol",
  "compiler": {
    "name": "solc",
    "version": "0.5.16+commit.9c3226ce.Emscripten.clang"
  },
  "schemaVersion": "3.3.4",
  "updatedAt": "2021-04-13T18:30:46.124Z",
  "networkType": "ethereum",
  "devdoc": {
    "methods": {
      "approve(address,uint256)": {
        "details": "Approves another address to transfer the given token ID The zero address indicates there is no approved address. There can only be one approved address per token at a given time. Can only be called by the token owner or an approved operator.",
        "params": {
          "to": "address to be approved for the given token ID",
          "tokenId": "uint256 ID of the token to be approved"
        }
      },
      "balanceOf(address)": {
        "details": "Gets the balance of the specified address.",
        "params": {
          "owner": "address to query the balance of"
        },
        "return": "uint256 representing the amount owned by the passed address"
      },
      "baseURI()": {
        "details": "Returns the base URI set via {_setBaseURI}. This will be automatically added as a preffix in {tokenURI} to each token's URI, when they are non-empty.    * _Available since v2.5.0._"
      },
      "getApproved(uint256)": {
        "details": "Gets the approved address for a token ID, or zero if no address set Reverts if the token ID does not exist.",
        "params": {
          "tokenId": "uint256 ID of the token to query the approval of"
        },
        "return": "address currently approved for the given token ID"
      },
      "isApprovedForAll(address,address)": {
        "details": "Tells whether an operator is approved by a given owner.",
        "params": {
          "operator": "operator address which you want to query the approval of",
          "owner": "owner address which you want to query the approval of"
        },
        "return": "bool whether the given operator is approved by the given owner"
      },
      "isOwner()": {
        "details": "Returns true if the caller is the current owner."
      },
      "name()": {
        "details": "Gets the token name.",
        "return": "string representing the token name"
      },
      "owner()": {
        "details": "Returns the address of the current owner."
      },
      "ownerOf(uint256)": {
        "details": "Gets the owner of the specified token ID.",
        "params": {
          "tokenId": "uint256 ID of the token to query the owner of"
        },
        "return": "address currently marked as the owner of the given token ID"
      },
      "renounceOwnership()": {
        "details": "Leaves the contract without owner. It will not be possible to call `onlyOwner` functions anymore. Can only be called by the current owner.     * NOTE: Renouncing ownership will leave the contract without an owner, thereby removing any functionality that is only available to the owner."
      },
      "safeTransferFrom(address,address,uint256)": {
        "details": "Safely transfers the ownership of a given token ID to another address If the target address is a contract, it must implement {IERC721Receiver-onERC721Received}, which is called upon a safe transfer, and return the magic value `bytes4(keccak256(\"onERC721Received(address,address,uint256,bytes)\"))`; otherwise, the transfer is reverted. Requires the msg.sender to be the owner, approved, or operator",
        "params": {
          "from": "current owner of the token",
          "to": "address to receive the ownership of the given token ID",
          "tokenId": "uint256 ID of the token to be transferred"
        }
      },
      "safeTransferFrom(address,address,uint256,bytes)": {
        "details": "Safely transfers the ownership of a given token ID to another address If the target address is a contract, it must implement {IERC721Receiver-onERC721Received}, which is called upon a safe transfer, and return the magic value `bytes4(keccak256(\"onERC721Received(address,address,uint256,bytes)\"))`; otherwise, the transfer is reverted. Requires the _msgSender() to be the owner, approved, or operator",
        "params": {
          "_data": "bytes data to send along with a safe transfer check",
          "from": "current owner of the token",
          "to": "address to receive the ownership of the given token ID",
          "tokenId": "uint256 ID of the token to be transferred"
        }
      },
      "setApprovalForAll(address,bool)": {
        "details": "Sets or unsets the approval of a given operator An operator is allowed to transfer all tokens of the sender on their behalf.",
        "params": {
          "approved": "representing the status of the approval to be set",
          "to": "operator address to set the approval"
        }
      },
      "supportsInterface(bytes4)": {
        "details": "See {IERC165-supportsInterface}.     * Time complexity O(1), guaranteed to always use less than 30 000 gas."
      },
      "symbol()": {
        "details": "Gets the token symbol.",
        "return": "string representing the token symbol"
      },
      "tokenByIndex(uint256)": {
        "details": "Gets the token ID at a given index of all the tokens in this contract Reverts if the index is greater or equal to the total number of tokens.",
        "params": {
          "index": "uint256 representing the index to be accessed of the tokens list"
        },
        "return": "uint256 token ID at the given index of the tokens list"
      },
      "tokenOfOwnerByIndex(address,uint256)": {
        "details": "Gets the token ID at a given index of the tokens list of the requested owner.",
        "params": {
          "index": "uint256 representing the index to be accessed of the requested tokens list",
          "owner": "address owning the tokens list to be accessed"
        },
        "return": "uint256 token ID at the given index of the tokens list owned by the requested address"
      },
      "tokenURI(uint256)": {
        "details": "Returns the URI for a given token ID. May return an empty string.     * If the token's URI is non-empty and a base URI was set (via {_setBaseURI}), it will be added to the token ID's URI as a prefix.     * Reverts if the token ID does not exist."
      },
      "totalSupply()": {
        "details": "Gets the total amount of tokens stored by the contract.",
        "return": "uint256 representing the total amount of tokens"
      },
      "transferFrom(address,address,uint256)": {
        "details": "Transfers the ownership of a given token ID to another address. Usage of this method is discouraged, use {safeTransferFrom} whenever possible. Requires the msg.sender to be the owner, approved, or operator.",
        "params": {
          "from": "current owner of the token",
          "to": "address to receive the ownership of the given token ID",
          "tokenId": "uint256 ID of the token to be transferred"
        }
      },
      "transferOwnership(address)": {
        "details": "Transfers ownership of the contract to a new account (`newOwner`). Can only be called by the current owner."
      }
    }
  },
  "userdoc": {
    "methods": {}
  }
}