{
  "contractName": "DeviceManager",
  "abi": [
    {
      "anonymous": false,
      "inputs": [
        {
          "indexed": true,
          "internalType": "uint256",
          "name": "deviceId",
          "type": "uint256"
        },
        {
          "indexed": true,
          "internalType": "address",
          "name": "owner",
          "type": "address"
        },
        {
          "indexed": false,
          "internalType": "bytes32",
          "name": "identifier",
          "type": "bytes32"
        },
        {
          "indexed": false,
          "internalType": "bytes32",
          "name": "metadataHash",
          "type": "bytes32"
        },
        {
          "indexed": false,
          "internalType": "bytes32",
          "name": "firmwareHash",
          "type": "bytes32"
        }
      ],
      "name": "DeviceCreated",
      "type": "event"
    },
    {
      "anonymous": false,
      "inputs": [
        {
          "indexed": true,
          "internalType": "uint256",
          "name": "deviceId",
          "type": "uint256"
        },
        {
          "indexed": true,
          "internalType": "bytes32",
          "name": "property",
          "type": "bytes32"
        },
        {
          "indexed": false,
          "internalType": "bytes32",
          "name": "newValue",
          "type": "bytes32"
        }
      ],
      "name": "DevicePropertyUpdated",
      "type": "event"
    },
    {
      "anonymous": false,
      "inputs": [
        {
          "indexed": true,
          "internalType": "uint256",
          "name": "signatureId",
          "type": "uint256"
        },
        {
          "indexed": true,
          "internalType": "uint256",
          "name": "deviceId",
          "type": "uint256"
        },
        {
          "indexed": true,
          "internalType": "address",
          "name": "signer",
          "type": "address"
        },
        {
          "indexed": false,
          "internalType": "uint256",
          "name": "expiryTime",
          "type": "uint256"
        }
      ],
      "name": "DeviceSigned",
      "type": "event"
    },
    {
      "anonymous": false,
      "inputs": [
        {
          "indexed": true,
          "internalType": "uint256",
          "name": "deviceId",
          "type": "uint256"
        },
        {
          "indexed": false,
          "internalType": "address",
          "name": "oldOwner",
          "type": "address"
        },
        {
          "indexed": false,
          "internalType": "address",
          "name": "newOwner",
          "type": "address"
        }
      ],
      "name": "DeviceTransfered",
      "type": "event"
    },
    {
      "anonymous": false,
      "inputs": [
        {
          "indexed": true,
          "internalType": "address",
          "name": "owner",
          "type": "address"
        },
        {
          "indexed": false,
          "internalType": "string",
          "name": "newData",
          "type": "string"
        }
      ],
      "name": "EntityDataUpdated",
      "type": "event"
    },
    {
      "anonymous": false,
      "inputs": [
        {
          "indexed": true,
          "internalType": "uint256",
          "name": "signatureId",
          "type": "uint256"
        },
        {
          "indexed": true,
          "internalType": "uint256",
          "name": "deviceId",
          "type": "uint256"
        }
      ],
      "name": "SignatureRevoked",
      "type": "event"
    },
    {
      "constant": false,
      "inputs": [
        {
          "internalType": "bytes32",
          "name": "_identifier",
          "type": "bytes32"
        },
        {
          "internalType": "bytes32",
          "name": "_metadataHash",
          "type": "bytes32"
        },
        {
          "internalType": "bytes32",
          "name": "_firmwareHash",
          "type": "bytes32"
        }
      ],
      "name": "createDevice",
      "outputs": [
        {
          "internalType": "uint256",
          "name": "",
          "type": "uint256"
        }
      ],
      "payable": false,
      "stateMutability": "nonpayable",
      "type": "function"
    },
    {
      "constant": true,
      "inputs": [
        {
          "internalType": "uint256",
          "name": "",
          "type": "uint256"
        }
      ],
      "name": "deviceSignatureCount",
      "outputs": [
        {
          "internalType": "uint256",
          "name": "",
          "type": "uint256"
        }
      ],
      "payable": false,
      "stateMutability": "view",
      "type": "function"
    },
    {
      "constant": true,
      "inputs": [
        {
          "internalType": "uint256",
          "name": "",
          "type": "uint256"
        }
      ],
      "name": "devices",
      "outputs": [
        {
          "internalType": "address",
          "name": "owner",
          "type": "address"
        },
        {
          "internalType": "bytes32",
          "name": "identifier",
          "type": "bytes32"
        },
        {
          "internalType": "bytes32",
          "name": "metadataHash",
          "type": "bytes32"
        },
        {
          "internalType": "bytes32",
          "name": "firmwareHash",
          "type": "bytes32"
        }
      ],
      "payable": false,
      "stateMutability": "view",
      "type": "function"
    },
    {
      "constant": true,
      "inputs": [
        {
          "internalType": "uint256",
          "name": "_deviceId",
          "type": "uint256"
        }
      ],
      "name": "getActiveSignaturesForDevice",
      "outputs": [
        {
          "internalType": "uint256[]",
          "name": "",
          "type": "uint256[]"
        }
      ],
      "payable": false,
      "stateMutability": "view",
      "type": "function"
    },
    {
      "constant": true,
      "inputs": [
        {
          "internalType": "address",
          "name": "_owner",
          "type": "address"
        }
      ],
      "name": "getDevicesByOwner",
      "outputs": [
        {
          "internalType": "uint256[]",
          "name": "",
          "type": "uint256[]"
        }
      ],
      "payable": false,
      "stateMutability": "view",
      "type": "function"
    },
    {
      "constant": true,
      "inputs": [
        {
          "internalType": "uint256",
          "name": "_deviceId",
          "type": "uint256"
        }
      ],
      "name": "isDeviceAnEntity",
      "outputs": [
        {
          "internalType": "bool",
          "name": "",
          "type": "bool"
        }
      ],
      "payable": false,
      "stateMutability": "view",
      "type": "function"
    },
    {
      "constant": true,
      "inputs": [
        {
          "internalType": "uint256",
          "name": "_deviceId",
          "type": "uint256"
        },
        {
          "internalType": "bytes32",
          "name": "_messageHash",
          "type": "bytes32"
        },
        {
          "internalType": "bytes",
          "name": "_signature",
          "type": "bytes"
        }
      ],
      "name": "isValidEthMessage",
      "outputs": [
        {
          "internalType": "bool",
          "name": "",
          "type": "bool"
        }
      ],
      "payable": false,
      "stateMutability": "view",
      "type": "function"
    },
    {
      "constant": true,
      "inputs": [
        {
          "internalType": "uint256",
          "name": "_deviceId",
          "type": "uint256"
        },
        {
          "internalType": "bytes32",
          "name": "_firmwareHash",
          "type": "bytes32"
        }
      ],
      "name": "isValidFirmwareHash",
      "outputs": [
        {
          "internalType": "bool",
          "name": "",
          "type": "bool"
        }
      ],
      "payable": false,
      "stateMutability": "view",
      "type": "function"
    },
    {
      "constant": true,
      "inputs": [
        {
          "internalType": "uint256",
          "name": "_deviceId",
          "type": "uint256"
        },
        {
          "internalType": "bytes32[]",
          "name": "_proof",
          "type": "bytes32[]"
        },
        {
          "internalType": "bytes32",
          "name": "_leaf",
          "type": "bytes32"
        }
      ],
      "name": "isValidMetadataMember",
      "outputs": [
        {
          "internalType": "bool",
          "name": "",
          "type": "bool"
        }
      ],
      "payable": false,
      "stateMutability": "view",
      "type": "function"
    },
    {
      "constant": true,
      "inputs": [
        {
          "internalType": "address",
          "name": "",
          "type": "address"
        }
      ],
      "name": "ownerDeviceCount",
      "outputs": [
        {
          "internalType": "uint256",
          "name": "",
          "type": "uint256"
        }
      ],
      "payable": false,
      "stateMutability": "view",
      "type": "function"
    },
    {
      "constant": true,
      "inputs": [
        {
          "internalType": "address",
          "name": "",
          "type": "address"
        }
      ],
      "name": "ownerToEntity",
      "outputs": [
        {
          "internalType": "string",
          "name": "data",
          "type": "string"
        }
      ],
      "payable": false,
      "stateMutability": "view",
      "type": "function"
    },
    {
      "constant": false,
      "inputs": [
        {
          "internalType": "uint256",
          "name": "_signatureId",
          "type": "uint256"
        }
      ],
      "name": "revokeSignature",
      "outputs": [],
      "payable": false,
      "stateMutability": "nonpayable",
      "type": "function"
    },
    {
      "constant": false,
      "inputs": [
        {
          "internalType": "uint256",
          "name": "_deviceId",
          "type": "uint256"
        },
        {
          "internalType": "uint256",
          "name": "_expiryTime",
          "type": "uint256"
        }
      ],
      "name": "signDevice",
      "outputs": [
        {
          "internalType": "uint256",
          "name": "",
          "type": "uint256"
        }
      ],
      "payable": false,
      "stateMutability": "nonpayable",
      "type": "function"
    },
    {
      "constant": true,
      "inputs": [
        {
          "internalType": "uint256",
          "name": "",
          "type": "uint256"
        }
      ],
      "name": "signatures",
      "outputs": [
        {
          "internalType": "address",
          "name": "signer",
          "type": "address"
        },
        {
          "internalType": "uint256",
          "name": "deviceId",
          "type": "uint256"
        },
        {
          "internalType": "uint256",
          "name": "expiryTime",
          "type": "uint256"
        },
        {
          "internalType": "bool",
          "name": "revoked",
          "type": "bool"
        }
      ],
      "payable": false,
      "stateMutability": "view",
      "type": "function"
    },
    {
      "constant": false,
      "inputs": [
        {
          "internalType": "uint256",
          "name": "_deviceId",
          "type": "uint256"
        },
        {
          "internalType": "address",
          "name": "_to",
          "type": "address"
        }
      ],
      "name": "transferDevice",
      "outputs": [],
      "payable": false,
      "stateMutability": "nonpayable",
      "type": "function"
    },
    {
      "constant": false,
      "inputs": [
        {
          "internalType": "string",
          "name": "_data",
          "type": "string"
        }
      ],
      "name": "updateEntityData",
      "outputs": [],
      "payable": false,
      "stateMutability": "nonpayable",
      "type": "function"
    },
    {
      "constant": false,
      "inputs": [
        {
          "internalType": "uint256",
          "name": "_deviceId",
          "type": "uint256"
        },
        {
          "internalType": "bytes32",
          "name": "_newFirmwareHash",
          "type": "bytes32"
        }
      ],
      "name": "updateFirmwareHash",
      "outputs": [],
      "payable": false,
      "stateMutability": "nonpayable",
      "type": "function"
    },
    {
      "constant": false,
      "inputs": [
        {
          "internalType": "uint256",
          "name": "_deviceId",
          "type": "uint256"
        },
        {
          "internalType": "bytes32",
          "name": "_newIdentifier",
          "type": "bytes32"
        }
      ],
      "name": "updateIdentifier",
      "outputs": [],
      "payable": false,
      "stateMutability": "nonpayable",
      "type": "function"
    },
    {
      "constant": false,
      "inputs": [
        {
          "internalType": "uint256",
          "name": "_deviceId",
          "type": "uint256"
        },
        {
          "internalType": "bytes32",
          "name": "_newMetadataHash",
          "type": "bytes32"
        }
      ],
      "name": "updateMetadataHash",
      "outputs": [],
      "payable": false,
      "stateMutability": "nonpayable",
      "type": "function"
    }
  ],
  "bytecode": "0x608060405234801561001057600080fd5b506117a5806100206000396000f3fe608060405234801561001057600080fd5b50600436106101215760003560e01c80636231fb0b116100ad578063acbcb50711610071578063acbcb507146104ea578063b0bd9fda14610585578063b22d439d146105a2578063c40613df146105c5578063ee2357831461067157610121565b80636231fb0b146103865780638be10194146103a95780638e9075be146103f85780639de9662d146104aa578063aa554c9d146104c757610121565b80633da1f79a116100f45780633da1f79a146102015780634840c63b1461021e57806351b0e98714610247578063533293ab146102bd5780635a3f79d2146102e057610121565b806307f63700146101265780630bcb88e81461014b57806310ff8e311461017c5780632a08e601146101c9575b600080fd5b6101496004803603604081101561013c57600080fd5b508035906020013561069d565b005b6101686004803603602081101561016157600080fd5b50356107de565b604080519115158252519081900360200190f35b6101996004803603602081101561019257600080fd5b5035610839565b604080516001600160a01b0390951685526020850193909352838301919091526060830152519081900360800190f35b6101ef600480360360208110156101df57600080fd5b50356001600160a01b031661087a565b60408051918252519081900360200190f35b6101496004803603602081101561021757600080fd5b503561088c565b6101ef6004803603606081101561023457600080fd5b50803590602081013590604001356109d5565b61026d6004803603602081101561025d57600080fd5b50356001600160a01b0316610b2d565b60408051602080825283518183015283519192839290830191858101910280838360005b838110156102a9578181015183820152602001610291565b505050509050019250505060405180910390f35b610149600480360360408110156102d357600080fd5b5080359060200135610bf7565b610149600480360360208110156102f657600080fd5b81019060208101813564010000000081111561031157600080fd5b82018360208201111561032357600080fd5b8035906020019184600183028401116401000000008311171561034557600080fd5b91908080601f016020809104026020016040519081016040528093929190818152602001838380828437600092019190915250929550610d3a945050505050565b6101496004803603604081101561039c57600080fd5b5080359060200135610df5565b6103c6600480360360208110156103bf57600080fd5b5035610f36565b604080516001600160a01b03909516855260208501939093528383019190915215156060830152519081900360800190f35b6101686004803603606081101561040e57600080fd5b81359160208101359181019060608101604082013564010000000081111561043557600080fd5b82018360208201111561044757600080fd5b8035906020019184600183028401116401000000008311171561046957600080fd5b91908080601f016020809104026020016040519081016040528093929190818152602001838380828437600092019190915250929550610f7a945050505050565b61026d600480360360208110156104c057600080fd5b5035610fc3565b6101ef600480360360408110156104dd57600080fd5b508035906020013561108e565b6105106004803603602081101561050057600080fd5b50356001600160a01b03166111ec565b6040805160208082528351818301528351919283929083019185019080838360005b8381101561054a578181015183820152602001610532565b50505050905090810190601f1680156105775780820380516001836020036101000a031916815260200191505b509250505060405180910390f35b6101ef6004803603602081101561059b57600080fd5b503561128a565b610168600480360360408110156105b857600080fd5b508035906020013561129c565b610168600480360360608110156105db57600080fd5b813591908101906040810160208201356401000000008111156105fd57600080fd5b82018360208201111561060f57600080fd5b8035906020019184602083028401116401000000008311171561063157600080fd5b91908080602002602001604051908101604052809392919081815260200183836020028082843760009201919091525092955050913592506112c7915050565b6101496004803603604081101561068757600080fd5b50803590602001356001600160a01b03166112fa565b81336001600160a01b0316600182815481106106b557fe5b60009182526020909120600490910201546001600160a01b031614610719576040805162461bcd60e51b815260206004820152601560248201527427b7363c903337b9103232bb34b1b29037bbb732b960591b604482015290519081900360640190fd5b600083815260046020526040902054839015610771576040805162461bcd60e51b8152602060048201526012602482015271135d5cdd081b9bdd081899481cda59db995960721b604482015290519081900360640190fd5b826001858154811061077f57fe5b906000526020600020906004020160020181905550676d6574616461746160c01b847f67ace838aca3988a026b61036d72b93a8316d05feecb6ee10316e8d59f0e687f856040518082815260200191505060405180910390a350505050565b6000600182815481106107ed57fe5b90600052602060002090600402016001015460001c6001600160a01b03166001838154811061081857fe5b60009182526020909120600490910201546001600160a01b03161492915050565b6001818154811061084657fe5b600091825260209091206004909102018054600182015460028301546003909301546001600160a01b039092169350919084565b60026020526000908152604090205481565b336001600160a01b0316600382815481106108a357fe5b60009182526020909120600490910201546001600160a01b0316146108f95760405162461bcd60e51b815260040180806020018281038252602181526020018061172c6021913960400191505060405180910390fd5b6003818154811061090657fe5b600091825260209091206003600490920201015460ff16156109595760405162461bcd60e51b815260040180806020018281038252602481526020018061174d6024913960400191505060405180910390fd5b60006003828154811061096857fe5b60009182526020808320600492830201600381018054600160ff199091168117909155810180548552929091526040808420805460001901905591549151909350909184917ff93d5095ac7696e643e1fa0aa35d622f4a13e11f4e199f30794679dcdcdb97379190a35050565b60006109df611636565b50604080516080810182523380825260208083018881528385018881526060808601898152600180548082018255600082815289517fb10e2d527612073b26eecdfd717e6a320cf44b4afac2b0732d9fcbe2b7fa0cf66004840290810180546001600160a01b0319166001600160a01b039093169290921790915596517fb10e2d527612073b26eecdfd717e6a320cf44b4afac2b0732d9fcbe2b7fa0cf788015594517fb10e2d527612073b26eecdfd717e6a320cf44b4afac2b0732d9fcbe2b7fa0cf887015591517fb10e2d527612073b26eecdfd717e6a320cf44b4afac2b0732d9fcbe2b7fa0cf9909501949094558583526002855291879020805490930190925585518a8152928301899052828601889052945193949384927f093aad13dfa930f4f2311a7f59be1c3674ccc072b729756c22447948a2c0520092908290030190a395945050505050565b60608060026000846001600160a01b03166001600160a01b0316815260200190815260200160002054604051908082528060200260200182016040528015610b7f578160200160208202803883390190505b5090506000805b600154811015610bee57846001600160a01b031660018281548110610ba757fe5b60009182526020909120600490910201546001600160a01b03161415610be65780838381518110610bd457fe5b60209081029190910101526001909101905b600101610b86565b50909392505050565b81336001600160a01b031660018281548110610c0f57fe5b60009182526020909120600490910201546001600160a01b031614610c73576040805162461bcd60e51b815260206004820152601560248201527427b7363c903337b9103232bb34b1b29037bbb732b960591b604482015290519081900360640190fd5b600083815260046020526040902054839015610ccb576040805162461bcd60e51b8152602060048201526012602482015271135d5cdd081b9bdd081899481cda59db995960721b604482015290519081900360640190fd5b8260018581548110610cd957fe5b9060005260206000209060040201600101819055506934b232b73a34b334b2b960b11b847f67ace838aca3988a026b61036d72b93a8316d05feecb6ee10316e8d59f0e687f856040518082815260200191505060405180910390a350505050565b336000908152602081815260409091208251610d589284019061165d565b50604080516020808252835181830152835133937f53d207b6cf416d44764c48a52a7e64ffa2793f67215d452a032a11e0dd34bd2c9386939092839283019185019080838360005b83811015610db8578181015183820152602001610da0565b50505050905090810190601f168015610de55780820380516001836020036101000a031916815260200191505b509250505060405180910390a250565b81336001600160a01b031660018281548110610e0d57fe5b60009182526020909120600490910201546001600160a01b031614610e71576040805162461bcd60e51b815260206004820152601560248201527427b7363c903337b9103232bb34b1b29037bbb732b960591b604482015290519081900360640190fd5b600083815260046020526040902054839015610ec9576040805162461bcd60e51b8152602060048201526012602482015271135d5cdd081b9bdd081899481cda59db995960721b604482015290519081900360640190fd5b8260018581548110610ed757fe5b906000526020600020906004020160030181905550676669726d7761726560c01b847f67ace838aca3988a026b61036d72b93a8316d05feecb6ee10316e8d59f0e687f856040518082815260200191505060405180910390a350505050565b60038181548110610f4357fe5b600091825260209091206004909102018054600182015460028301546003909301546001600160a01b039092169350919060ff1684565b600060018481548110610f8957fe5b90600052602060002090600402016001015460001c6001600160a01b0316610fb1848461149f565b6001600160a01b031614949350505050565b6060806004600084815260200190815260200160002054604051908082528060200260200182016040528015611003578160200160208202803883390190505b5090506000805b600354811015610bee57846003828154811061102257fe5b90600052602060002090600402016001015414801561106257506003818154811061104957fe5b600091825260209091206003600490920201015460ff16155b15611086578083838151811061107457fe5b60209081029190910101526001909101905b60010161100a565b60006110986116db565b5060408051608081018252338082526020808301878152838501878152600060608601818152600380546001808201835591845288517fc2575a0e9e593c00f959f8c92f12db2869c3395a3b0502d05e2516446f71f85b600480840291820180546001600160a01b0319166001600160a01b039094169390931790925596517fc2575a0e9e593c00f959f8c92f12db2869c3395a3b0502d05e2516446f71f85c88015594517fc2575a0e9e593c00f959f8c92f12db2869c3395a3b0502d05e2516446f71f85d87015591517fc2575a0e9e593c00f959f8c92f12db2869c3395a3b0502d05e2516446f71f85e909501805460ff1916951515959095179094558a825291845286902080549092019091558451878152945193949093889285927f3739f348a11e3a029a385b4746ea6edba7f01ceec207010638e9d17862b78c40929081900390910190a49150505b92915050565b6000602081815291815260409081902080548251601f6002600019610100600186161502019093169290920491820185900485028101850190935280835290928391908301828280156112805780601f1061125557610100808354040283529160200191611280565b820191906000526020600020905b81548152906001019060200180831161126357829003601f168201915b5050505050905081565b60046020526000908152604090205481565b600081600184815481106112ac57fe5b90600052602060002090600402016003015414905092915050565b60006112f283600186815481106112da57fe5b9060005260206000209060040201600201548461158d565b949350505050565b81336001600160a01b03166001828154811061131257fe5b60009182526020909120600490910201546001600160a01b031614611376576040805162461bcd60e51b815260206004820152601560248201527427b7363c903337b9103232bb34b1b29037bbb732b960591b604482015290519081900360640190fd5b6000838152600460205260409020548390156113ce576040805162461bcd60e51b8152602060048201526012602482015271135d5cdd081b9bdd081899481cda59db995960721b604482015290519081900360640190fd5b6000600185815481106113dd57fe5b6000918252602090912060049091020154600180546001600160a01b03909216925085918790811061140b57fe5b6000918252602080832060049290920290910180546001600160a01b0319166001600160a01b03948516179055338252600281526040808320805460001901905587841680845292819020805460010190558051938516845290830191909152805187927f848155b8e733cfd6e7258639111d906437ddb051818f4061fc4c7cfbc575cb2e92908290030190a25050505050565b600081516041146114b2575060006111e6565b60208201516040830151606084015160001a7f7fffffffffffffffffffffffffffffff5d576e7357a4501ddfe92f46681b20a08211156114f857600093505050506111e6565b8060ff16601b1415801561151057508060ff16601c14155b1561152157600093505050506111e6565b6040805160008152602080820180845289905260ff8416828401526060820186905260808201859052915160019260a0808401939192601f1981019281900390910190855afa158015611578573d6000803e3d6000fd5b5050604051601f190151979650505050505050565b600081815b855181101561162b5760008682815181106115a957fe5b602002602001015190508083116115f05782816040516020018083815260200182815260200192505050604051602081830303815290604052805190602001209250611622565b808360405160200180838152602001828152602001925050506040516020818303038152906040528051906020012092505b50600101611592565b509092149392505050565b60408051608081018252600080825260208201819052918101829052606081019190915290565b828054600181600116156101000203166002900490600052602060002090601f016020900481019282601f1061169e57805160ff19168380011785556116cb565b828001600101855582156116cb579182015b828111156116cb5782518255916020019190600101906116b0565b506116d792915061170e565b5090565b604051806080016040528060006001600160a01b0316815260200160008152602001600081526020016000151581525090565b61172891905b808211156116d75760008155600101611714565b9056fe4f6e6c7920666f722063726561746f72206f6620746865207369676e61747572655369676e6174757265206d7573746e2774206265207265766f6b656420616c7265616479a265627a7a7231582055755c3d7d40b51c35bd4a527d0651cf8442ada73dadbe140d0569a6831a566464736f6c63430005100032",
  "source": "// SPDX-License-Identifier: GPL-3.0-or-later\npragma solidity >=0.4.22 <0.9.0;\n\nimport \"@openzeppelin/contracts/cryptography/MerkleProof.sol\";\nimport \"@openzeppelin/contracts/cryptography/ECDSA.sol\";\n\ncontract EntityBase {\n    struct Entity {\n        string data;\n    }\n    mapping (address => Entity) public ownerToEntity;\n    event EntityDataUpdated(address indexed owner, string newData);\n    function updateEntityData(string memory _data) public {\n        ownerToEntity[msg.sender].data = _data;\n\n        emit EntityDataUpdated(msg.sender, _data);\n    }\n}\n\ncontract DeviceBase {\n    struct Device {\n        address owner;\n        bytes32 identifier;        \n        // Merkle root hash of metadata or simple hash of concatenated data.\n        // It is recommended to use Merkle tree to store information on device as it enables to \n        // prove membership of specific data by providing Merkle proof without revealing whole dataset.\n        bytes32 metadataHash;\n        bytes32 firmwareHash;\n    }\n    Device[] public devices;\n\n    mapping (address => uint) public ownerDeviceCount;\n    event DeviceCreated(uint indexed deviceId, address indexed owner, bytes32 identifier, bytes32 metadataHash, bytes32 firmwareHash);\n    modifier onlyOwnerOf(uint _deviceId) {\n        require(devices[_deviceId].owner == msg.sender, \"Only for device owner\");\n        _;\n    }\n\n    /**\n     * @notice Creates and saves device into storage. Emits DeviceCreated. \n     * @param _identifier Unique device identifier, such as fingerprint of RSA/ECC public key or Ethereum address (recommended).\n     * @param _metadataHash Merkle root hash of metadata (recommended) or simple hash of concatenated metadata.\n     * @param _firmwareHash Hash of actual firmware hash.\n     * @return Created device ID.\n     */\n    function createDevice(bytes32 _identifier, bytes32 _metadataHash, bytes32 _firmwareHash) public returns (uint) {\n        Device memory newDevice = Device(msg.sender, _identifier, _metadataHash, _firmwareHash);\n        uint deviceId = devices.push(newDevice) - 1;\n        ownerDeviceCount[msg.sender]++;\n\n        emit DeviceCreated(deviceId, msg.sender, _identifier, _metadataHash, _firmwareHash);\n        return deviceId;\n    }\n}\n\ncontract DeviceHelper is DeviceBase {\n    function getDevicesByOwner(address _owner) public view returns (uint[] memory) {\n        uint[] memory deviceIds = new uint[](ownerDeviceCount[_owner]);\n        uint counter = 0;\n        for (uint i = 0; i < devices.length; i++) {\n            if (devices[i].owner == _owner) {\n                deviceIds[counter] = i;\n                counter++;\n            }\n        }\n        return deviceIds;\n    }\n\n    function isDeviceAnEntity(uint _deviceId) public view returns (bool) {\n        return devices[_deviceId].owner == address(uint160(uint256(devices[_deviceId].identifier)));\n    }\n\n    function isValidMetadataMember(uint _deviceId, bytes32[] memory _proof, bytes32 _leaf) public view returns (bool) {\n        return MerkleProof.verify(_proof, devices[_deviceId].metadataHash, _leaf);\n    }\n\n    function isValidFirmwareHash(uint _deviceId, bytes32 _firmwareHash) public view returns (bool) {\n        return devices[_deviceId].firmwareHash == _firmwareHash;\n    }\n\n    function isValidEthMessage(uint _deviceId, bytes32 _messageHash, bytes memory _signature) public view returns (bool) {\n        return ECDSA.recover(_messageHash, _signature) == address(uint160(uint256(devices[_deviceId].identifier)));\n    }\n}\n\ncontract SignatureBase {\n    struct Signature {\n        address signer;\n        uint deviceId;\n        uint expiryTime;\n        bool revoked;\n    }\n    Signature[] public signatures;\n    mapping (uint => uint) public deviceSignatureCount;\n    event DeviceSigned(uint indexed signatureId, uint indexed deviceId, address indexed signer, uint expiryTime);\n    event SignatureRevoked(uint indexed signatureId, uint indexed deviceId);\n    modifier notSigned(uint _deviceId) {\n        require(deviceSignatureCount[_deviceId] == 0, \"Must not be signed\");\n        _;\n    }\n\n    function signDevice(uint _deviceId, uint _expiryTime) public returns (uint) {\n        Signature memory signature = Signature(msg.sender, _deviceId, _expiryTime, false);\n        uint signatureId = signatures.push(signature) - 1;\n        deviceSignatureCount[_deviceId]++;\n\n        emit DeviceSigned(signatureId, _deviceId, msg.sender, _expiryTime);\n        return signatureId;\n    }\n\n    function revokeSignature(uint _signatureId) public {\n        require(signatures[_signatureId].signer == msg.sender, \"Only for creator of the signature\");\n        require(signatures[_signatureId].revoked == false, \"Signature mustn't be revoked already\");\n        Signature storage signature = signatures[_signatureId];\n        signature.revoked = true;\n        deviceSignatureCount[signature.deviceId]--;\n\n        emit SignatureRevoked(_signatureId, signature.deviceId);\n    }\n}\n\ncontract SignatureHelper is SignatureBase {\n    function getActiveSignaturesForDevice(uint _deviceId) public view returns (uint[] memory) {\n        uint[] memory signatureIds = new uint[](deviceSignatureCount[_deviceId]);\n        uint counter = 0;\n        for (uint i = 0; i < signatures.length; i++) {\n            if (signatures[i].deviceId == _deviceId && signatures[i].revoked == false) {\n                signatureIds[counter] = i;\n                counter++;\n            }\n        }\n        return signatureIds;\n    }\n}\n\ncontract DeviceUpdatable is DeviceHelper, SignatureHelper {\n    event DeviceTransfered(uint indexed deviceId, address oldOwner, address newOwner);    \n    event DevicePropertyUpdated(uint indexed deviceId, bytes32 indexed property, bytes32 newValue);\n\n    function transferDevice(uint _deviceId, address _to) public onlyOwnerOf(_deviceId) notSigned(_deviceId) {\n        address currentOwner = devices[_deviceId].owner;\n        devices[_deviceId].owner = _to;\n        ownerDeviceCount[msg.sender]--;\n        ownerDeviceCount[_to]++;\n\n        emit DeviceTransfered(_deviceId, currentOwner, _to);\n    } \n\n    function updateIdentifier(uint _deviceId, bytes32 _newIdentifier) public onlyOwnerOf(_deviceId) notSigned(_deviceId) {\n        devices[_deviceId].identifier = _newIdentifier;\n\n        emit DevicePropertyUpdated(_deviceId, \"identifier\", _newIdentifier);\n    }\n\n\n    function updateMetadataHash(uint _deviceId, bytes32 _newMetadataHash) public onlyOwnerOf(_deviceId) notSigned(_deviceId) {\n        devices[_deviceId].metadataHash = _newMetadataHash;\n\n        emit DevicePropertyUpdated(_deviceId, \"metadata\", _newMetadataHash);\n    }\n\n    function updateFirmwareHash(uint _deviceId, bytes32 _newFirmwareHash) public onlyOwnerOf(_deviceId) notSigned(_deviceId) {\n        devices[_deviceId].firmwareHash = _newFirmwareHash;\n\n        emit DevicePropertyUpdated(_deviceId, \"firmware\", _newFirmwareHash);\n    }\n}\n\ncontract DeviceManager is EntityBase, DeviceUpdatable {\n}",
  "sourcePath": "/Users/macpro/Desktop/workspace/fiware/blockchain_ge/AEI-Contract/contracts/DeviceManager.sol",
  "compiler": {
    "name": "solc",
    "version": "0.5.16+commit.9c3226ce.Emscripten.clang"
  },
  "schemaVersion": "3.3.4",
  "updatedAt": "2021-04-01T13:52:32.967Z",
  "networkType": "ethereum",
  "devdoc": {
    "methods": {
      "createDevice(bytes32,bytes32,bytes32)": {
        "params": {
          "_firmwareHash": "Hash of actual firmware hash.",
          "_identifier": "Unique device identifier, such as fingerprint of RSA/ECC public key or Ethereum address (recommended).",
          "_metadataHash": "Merkle root hash of metadata (recommended) or simple hash of concatenated metadata."
        },
        "return": "Created device ID."
      }
    }
  },
  "userdoc": {
    "methods": {
      "createDevice(bytes32,bytes32,bytes32)": {
        "notice": "Creates and saves device into storage. Emits DeviceCreated. "
      }
    }
  }
}